{"abi":[{"type":"constructor","inputs":[{"name":"_evc","type":"address","internalType":"contract IEVC"},{"name":"_asset","type":"address","internalType":"contract IERC20"}],"stateMutability":"nonpayable"},{"type":"function","name":"allowance","inputs":[{"name":"owner","type":"address","internalType":"address"},{"name":"spender","type":"address","internalType":"address"}],"outputs":[{"name":"","type":"uint256","internalType":"uint256"}],"stateMutability":"view"},{"type":"function","name":"approve","inputs":[{"name":"spender","type":"address","internalType":"address"},{"name":"value","type":"uint256","internalType":"uint256"}],"outputs":[{"name":"","type":"bool","internalType":"bool"}],"stateMutability":"nonpayable"},{"type":"function","name":"asset","inputs":[],"outputs":[{"name":"","type":"address","internalType":"address"}],"stateMutability":"view"},{"type":"function","name":"balanceOf","inputs":[{"name":"account","type":"address","internalType":"address"}],"outputs":[{"name":"","type":"uint256","internalType":"uint256"}],"stateMutability":"view"},{"type":"function","name":"checkAccountStatus","inputs":[{"name":"account","type":"address","internalType":"address"},{"name":"collaterals","type":"address[]","internalType":"address[]"}],"outputs":[{"name":"magicValue","type":"bytes4","internalType":"bytes4"}],"stateMutability":"view"},{"type":"function","name":"checkVaultStatus","inputs":[],"outputs":[{"name":"magicValue","type":"bytes4","internalType":"bytes4"}],"stateMutability":"nonpayable"},{"type":"function","name":"convertToAssets","inputs":[{"name":"shares","type":"uint256","internalType":"uint256"}],"outputs":[{"name":"","type":"uint256","internalType":"uint256"}],"stateMutability":"view"},{"type":"function","name":"convertToShares","inputs":[{"name":"assets","type":"uint256","internalType":"uint256"}],"outputs":[{"name":"","type":"uint256","internalType":"uint256"}],"stateMutability":"view"},{"type":"function","name":"decimals","inputs":[],"outputs":[{"name":"","type":"uint8","internalType":"uint8"}],"stateMutability":"view"},{"type":"function","name":"deposit","inputs":[{"name":"assets","type":"uint256","internalType":"uint256"},{"name":"receiver","type":"address","internalType":"address"}],"outputs":[{"name":"shares","type":"uint256","internalType":"uint256"}],"stateMutability":"nonpayable"},{"type":"function","name":"disableController","inputs":[],"outputs":[],"stateMutability":"nonpayable"},{"type":"function","name":"maxDeposit","inputs":[{"name":"","type":"address","internalType":"address"}],"outputs":[{"name":"","type":"uint256","internalType":"uint256"}],"stateMutability":"view"},{"type":"function","name":"maxMint","inputs":[{"name":"","type":"address","internalType":"address"}],"outputs":[{"name":"","type":"uint256","internalType":"uint256"}],"stateMutability":"view"},{"type":"function","name":"maxRedeem","inputs":[{"name":"owner","type":"address","internalType":"address"}],"outputs":[{"name":"","type":"uint256","internalType":"uint256"}],"stateMutability":"view"},{"type":"function","name":"maxWithdraw","inputs":[{"name":"owner","type":"address","internalType":"address"}],"outputs":[{"name":"","type":"uint256","internalType":"uint256"}],"stateMutability":"view"},{"type":"function","name":"mint","inputs":[{"name":"shares","type":"uint256","internalType":"uint256"},{"name":"receiver","type":"address","internalType":"address"}],"outputs":[{"name":"assets","type":"uint256","internalType":"uint256"}],"stateMutability":"nonpayable"},{"type":"function","name":"name","inputs":[],"outputs":[{"name":"","type":"string","internalType":"string"}],"stateMutability":"view"},{"type":"function","name":"owner","inputs":[],"outputs":[{"name":"","type":"address","internalType":"address"}],"stateMutability":"view"},{"type":"function","name":"previewDeposit","inputs":[{"name":"assets","type":"uint256","internalType":"uint256"}],"outputs":[{"name":"","type":"uint256","internalType":"uint256"}],"stateMutability":"view"},{"type":"function","name":"previewMint","inputs":[{"name":"shares","type":"uint256","internalType":"uint256"}],"outputs":[{"name":"","type":"uint256","internalType":"uint256"}],"stateMutability":"view"},{"type":"function","name":"previewRedeem","inputs":[{"name":"shares","type":"uint256","internalType":"uint256"}],"outputs":[{"name":"","type":"uint256","internalType":"uint256"}],"stateMutability":"view"},{"type":"function","name":"previewWithdraw","inputs":[{"name":"assets","type":"uint256","internalType":"uint256"}],"outputs":[{"name":"","type":"uint256","internalType":"uint256"}],"stateMutability":"view"},{"type":"function","name":"redeem","inputs":[{"name":"shares","type":"uint256","internalType":"uint256"},{"name":"receiver","type":"address","internalType":"address"},{"name":"owner","type":"address","internalType":"address"}],"outputs":[{"name":"assets","type":"uint256","internalType":"uint256"}],"stateMutability":"nonpayable"},{"type":"function","name":"renounceOwnership","inputs":[],"outputs":[],"stateMutability":"nonpayable"},{"type":"function","name":"supplyCap","inputs":[],"outputs":[{"name":"","type":"uint256","internalType":"uint256"}],"stateMutability":"view"},{"type":"function","name":"symbol","inputs":[],"outputs":[{"name":"","type":"string","internalType":"string"}],"stateMutability":"view"},{"type":"function","name":"totalAssets","inputs":[],"outputs":[{"name":"","type":"uint256","internalType":"uint256"}],"stateMutability":"view"},{"type":"function","name":"totalSupply","inputs":[],"outputs":[{"name":"","type":"uint256","internalType":"uint256"}],"stateMutability":"view"},{"type":"function","name":"transfer","inputs":[{"name":"to","type":"address","internalType":"address"},{"name":"amount","type":"uint256","internalType":"uint256"}],"outputs":[{"name":"","type":"bool","internalType":"bool"}],"stateMutability":"nonpayable"},{"type":"function","name":"transferFrom","inputs":[{"name":"from","type":"address","internalType":"address"},{"name":"to","type":"address","internalType":"address"},{"name":"amount","type":"uint256","internalType":"uint256"}],"outputs":[{"name":"","type":"bool","internalType":"bool"}],"stateMutability":"nonpayable"},{"type":"function","name":"transferOwnership","inputs":[{"name":"newOwner","type":"address","internalType":"address"}],"outputs":[],"stateMutability":"nonpayable"},{"type":"function","name":"withdraw","inputs":[{"name":"assets","type":"uint256","internalType":"uint256"},{"name":"receiver","type":"address","internalType":"address"},{"name":"owner","type":"address","internalType":"address"}],"outputs":[{"name":"shares","type":"uint256","internalType":"uint256"}],"stateMutability":"nonpayable"},{"type":"event","name":"Approval","inputs":[{"name":"owner","type":"address","indexed":true,"internalType":"address"},{"name":"spender","type":"address","indexed":true,"internalType":"address"},{"name":"value","type":"uint256","indexed":false,"internalType":"uint256"}],"anonymous":false},{"type":"event","name":"Deposit","inputs":[{"name":"sender","type":"address","indexed":true,"internalType":"address"},{"name":"owner","type":"address","indexed":true,"internalType":"address"},{"name":"assets","type":"uint256","indexed":false,"internalType":"uint256"},{"name":"shares","type":"uint256","indexed":false,"internalType":"uint256"}],"anonymous":false},{"type":"event","name":"OwnershipTransferred","inputs":[{"name":"previousOwner","type":"address","indexed":true,"internalType":"address"},{"name":"newOwner","type":"address","indexed":true,"internalType":"address"}],"anonymous":false},{"type":"event","name":"SupplyCapSet","inputs":[{"name":"newSupplyCap","type":"uint256","indexed":false,"internalType":"uint256"}],"anonymous":false},{"type":"event","name":"Transfer","inputs":[{"name":"from","type":"address","indexed":true,"internalType":"address"},{"name":"to","type":"address","indexed":true,"internalType":"address"},{"name":"value","type":"uint256","indexed":false,"internalType":"uint256"}],"anonymous":false},{"type":"event","name":"Withdraw","inputs":[{"name":"sender","type":"address","indexed":true,"internalType":"address"},{"name":"receiver","type":"address","indexed":true,"internalType":"address"},{"name":"owner","type":"address","indexed":true,"internalType":"address"},{"name":"assets","type":"uint256","indexed":false,"internalType":"uint256"},{"name":"shares","type":"uint256","indexed":false,"internalType":"uint256"}],"anonymous":false},{"type":"error","name":"AddressEmptyCode","inputs":[{"name":"target","type":"address","internalType":"address"}]},{"type":"error","name":"AddressInsufficientBalance","inputs":[{"name":"account","type":"address","internalType":"address"}]},{"type":"error","name":"ControllerDisabled","inputs":[]},{"type":"error","name":"ERC20InsufficientAllowance","inputs":[{"name":"spender","type":"address","internalType":"address"},{"name":"allowance","type":"uint256","internalType":"uint256"},{"name":"needed","type":"uint256","internalType":"uint256"}]},{"type":"error","name":"ERC20InsufficientBalance","inputs":[{"name":"sender","type":"address","internalType":"address"},{"name":"balance","type":"uint256","internalType":"uint256"},{"name":"needed","type":"uint256","internalType":"uint256"}]},{"type":"error","name":"ERC20InvalidApprover","inputs":[{"name":"approver","type":"address","internalType":"address"}]},{"type":"error","name":"ERC20InvalidReceiver","inputs":[{"name":"receiver","type":"address","internalType":"address"}]},{"type":"error","name":"ERC20InvalidSender","inputs":[{"name":"sender","type":"address","internalType":"address"}]},{"type":"error","name":"ERC20InvalidSpender","inputs":[{"name":"spender","type":"address","internalType":"address"}]},{"type":"error","name":"ERC4626ExceededMaxDeposit","inputs":[{"name":"receiver","type":"address","internalType":"address"},{"name":"assets","type":"uint256","internalType":"uint256"},{"name":"max","type":"uint256","internalType":"uint256"}]},{"type":"error","name":"ERC4626ExceededMaxMint","inputs":[{"name":"receiver","type":"address","internalType":"address"},{"name":"shares","type":"uint256","internalType":"uint256"},{"name":"max","type":"uint256","internalType":"uint256"}]},{"type":"error","name":"ERC4626ExceededMaxRedeem","inputs":[{"name":"owner","type":"address","internalType":"address"},{"name":"shares","type":"uint256","internalType":"uint256"},{"name":"max","type":"uint256","internalType":"uint256"}]},{"type":"error","name":"ERC4626ExceededMaxWithdraw","inputs":[{"name":"owner","type":"address","internalType":"address"},{"name":"assets","type":"uint256","internalType":"uint256"},{"name":"max","type":"uint256","internalType":"uint256"}]},{"type":"error","name":"FailedInnerCall","inputs":[]},{"type":"error","name":"MathOverflowedMulDiv","inputs":[]},{"type":"error","name":"NotAuthorized","inputs":[]},{"type":"error","name":"OwnableInvalidOwner","inputs":[{"name":"owner","type":"address","internalType":"address"}]},{"type":"error","name":"OwnableUnauthorizedAccount","inputs":[{"name":"account","type":"address","internalType":"address"}]},{"type":"error","name":"Reentrancy","inputs":[]},{"type":"error","name":"SafeERC20FailedOperation","inputs":[{"name":"token","type":"address","internalType":"address"}]},{"type":"error","name":"SharesSeizureFailed","inputs":[]},{"type":"error","name":"SnapshotNotTaken","inputs":[]},{"type":"error","name":"SupplyCapExceeded","inputs":[]}],"bytecode":{"object":"0x60e06040523480156200001157600080fd5b506040516200293e3803806200293e83398101604081905262000034916200034e565b8181826001600160a01b03166306fdde036040518163ffffffff1660e01b8152600401600060405180830381865afa15801562000075573d6000803e3d6000fd5b505050506040513d6000823e601f3d908101601f191682016040526200009f9190810190620003c9565b604051602001620000b1919062000481565b604051602081830303815290604052836001600160a01b03166395d89b416040518163ffffffff1660e01b8152600401600060405180830381865afa158015620000ff573d6000803e3d6000fd5b505050506040513d6000823e601f3d908101601f19168201604052620001299190810190620003c9565b6040516020016200013b9190620004b0565b60408051601f198184030181529190526001600160a01b03841660805260016000553383838360056200016f838262000561565b5060066200017e828262000561565b5050506000806200019583620001fe60201b60201c565b9150915081620001a7576012620001a9565b805b60ff1660c05250506001600160a01b0390811660a0528116620001e657604051631e4fbdf760e01b81526000600482015260240160405180910390fd5b620001f181620002e3565b5050505050505062000665565b60408051600481526024810182526020810180516001600160e01b031663313ce56760e01b17905290516000918291829182916001600160a01b0387169162000247916200062d565b600060405180830381855afa9150503d806000811462000284576040519150601f19603f3d011682016040523d82523d6000602084013e62000289565b606091505b50915091508180156200029e57506020815110155b15620002d657600081806020019051810190620002bc91906200064b565b905060ff8111620002d4576001969095509350505050565b505b5060009485945092505050565b600780546001600160a01b038381166001600160a01b0319831681179093556040519116919082907f8be0079c531659141344cd1fd0a4f28419497f9722a3daafe3b4186f6b6457e090600090a35050565b6001600160a01b03811681146200034b57600080fd5b50565b600080604083850312156200036257600080fd5b82516200036f8162000335565b6020840151909250620003828162000335565b809150509250929050565b634e487b7160e01b600052604160045260246000fd5b60005b83811015620003c0578181015183820152602001620003a6565b50506000910152565b600060208284031215620003dc57600080fd5b81516001600160401b0380821115620003f457600080fd5b818401915084601f8301126200040957600080fd5b8151818111156200041e576200041e6200038d565b604051601f8201601f19908116603f011681019083821181831017156200044957620004496200038d565b816040528281528760208487010111156200046357600080fd5b62000476836020830160208801620003a3565b979650505050505050565b6402932b837960dd1b815260008251620004a3816005850160208701620003a3565b9190910160050192915050565b645245504f2d60d81b815260008251620004a3816005850160208701620003a3565b600181811c90821680620004e757607f821691505b6020821081036200050857634e487b7160e01b600052602260045260246000fd5b50919050565b601f8211156200055c57600081815260208120601f850160051c81016020861015620005375750805b601f850160051c820191505b81811015620005585782815560010162000543565b5050505b505050565b81516001600160401b038111156200057d576200057d6200038d565b62000595816200058e8454620004d2565b846200050e565b602080601f831160018114620005cd5760008415620005b45750858301515b600019600386901b1c1916600185901b17855562000558565b600085815260208120601f198616915b82811015620005fe57888601518255948401946001909101908401620005dd565b50858210156200061d5787850151600019600388901b60f8161c191681555b5050505050600190811b01905550565b6000825162000641818460208701620003a3565b9190910192915050565b6000602082840312156200065e57600080fd5b5051919050565b60805160a05160c05161222b6200071360003960006106d30152600081816102a10152818161150d01526115bf0152600081816105a1015281816106360152818161070901528181610733015281816108970152818161098201528181610a1101528181610a9e01528181610ac801528181610b9101528181610c2101528181610e1001528181610ea301528181610fd00152818161111201528181611240015261127c015261222b6000f3fe608060405234801561001057600080fd5b50600436106101f05760003560e01c80638da5cb5b1161010f578063ba087652116100a2578063d905777e11610071578063d905777e1461042a578063dd62ed3e1461043d578063ef8b30f714610476578063f2fde38b1461048957600080fd5b8063ba087652146103f1578063c63d75b6146102d9578063c6e6f59214610404578063ce96cb771461041757600080fd5b8063a9059cbb116100de578063a9059cbb146103a5578063b168c58f146103b8578063b3d7f6b9146103cb578063b460af94146103de57600080fd5b80638da5cb5b146103705780638f770ad01461038157806394bf804d1461038a57806395d89b411461039d57600080fd5b806338d52e0f116101875780636e553f65116101565780636e553f651461032257806370a0823114610335578063715018a61461035e578063869e50c71461036857600080fd5b806338d52e0f1461029f578063402d267d146102d95780634b3d1223146102ee5780634cdad5061461030f57600080fd5b80630a28a477116101c35780630a28a4771461025757806318160ddd1461026a57806323b872dd14610272578063313ce5671461028557600080fd5b806301e1d114146101f557806306fdde031461020c57806307a2d13a14610221578063095ea7b314610234575b600080fd5b6008545b6040519081526020015b60405180910390f35b61021461049c565b6040516102039190611b29565b6101f961022f366004611b5c565b61052e565b610247610242366004611b8a565b610564565b6040519015158152602001610203565b6101f9610265366004611b5c565b610588565b6004546101f9565b610247610280366004611bb6565b610595565b61028d6106cb565b60405160ff9091168152602001610203565b7f00000000000000000000000000000000000000000000000000000000000000005b6040516001600160a01b039091168152602001610203565b6101f96102e7366004611bf7565b5060001990565b6102f66106fc565b6040516001600160e01b03199091168152602001610203565b6101f961031d366004611b5c565b61087e565b6101f9610330366004611c14565b61088b565b6101f9610343366004611bf7565b6001600160a01b031660009081526002602052604090205490565b610366610923565b005b610366610937565b6007546001600160a01b03166102c1565b6101f960095481565b6101f9610398366004611c14565b610976565b6102146109f6565b6102476103b3366004611b8a565b610a05565b6102f66103c6366004611c44565b610a91565b6101f96103d9366004611b5c565b610b78565b6101f96103ec366004611ccc565b610b85565b6101f96103ff366004611ccc565b610c15565b6101f9610412366004611b5c565b610c96565b6101f9610425366004611bf7565b610cc4565b6101f9610438366004611bf7565b610ce9565b6101f961044b366004611d0e565b6001600160a01b03918216600090815260036020908152604080832093909416825291909152205490565b6101f9610484366004611b5c565b610d07565b610366610497366004611bf7565b610d14565b6060600580546104ab90611d3c565b80601f01602080910402602001604051908101604052809291908181526020018280546104d790611d3c565b80156105245780601f106104f957610100808354040283529160200191610524565b820191906000526020600020905b81548152906001019060200180831161050757829003601f168201915b5050505050905090565b60006001600054146105535760405163558a1e0360e11b815260040160405180910390fd5b61055c8261087e565b90505b919050565b60008061056f610d57565b905061057c818585610d61565b60019150505b92915050565b600061055c826001610d73565b60006001600160a01b037f000000000000000000000000000000000000000000000000000000000000000016330361061c576001600054146105ea5760405163558a1e0360e11b815260040160405180910390fd5b60026000556105f7610da7565b6000610604858585610dd2565b905061060f85610e00565b90505b60016000556106c4565b604051631f8b521560e01b81526000906001600160a01b037f00000000000000000000000000000000000000000000000000000000000000001690631f8b5215906106739030903390869081903690600401611d76565b6000604051808303816000875af1158015610692573d6000803e3d6000fd5b505050506040513d6000823e601f3d908101601f191682016040526106ba9190810190611de0565b9050805181602001f35b9392505050565b60006106f7817f0000000000000000000000000000000000000000000000000000000000000000611ea3565b905090565b6000336001600160a01b037f0000000000000000000000000000000000000000000000000000000000000000161415806107b557507f00000000000000000000000000000000000000000000000000000000000000006001600160a01b031663e21e537c6040518163ffffffff1660e01b8152600401602060405180830381865afa15801561078f573d6000803e3d6000fd5b505050506040513d601f19601f820116820180604052508101906107b39190611ecc565b155b156107d35760405163ea8e4eb560e01b815260040160405180910390fd5b610866600180546107e390611d3c565b80601f016020809104026020016040519081016040528092919081815260200182805461080f90611d3c565b801561085c5780601f106108315761010080835404028352916020019161085c565b820191906000526020600020905b81548152906001019060200180831161083f57829003601f168201915b5050505050610ee8565b61087260016000611ab7565b50634b3d122360e01b90565b600061055c826000610f6f565b60006001600160a01b037f000000000000000000000000000000000000000000000000000000000000000016330361061c576001600054146108e05760405163558a1e0360e11b815260040160405180910390fd5b60026000556108ed610da7565b6108f78383610fa1565b9050826008600082825461090b9190611ee7565b909155506109199050610fce565b6001600055610582565b61092b611043565b61093560006110a1565b565b60016000541461095a5760405163558a1e0360e11b815260040160405180910390fd5b600260005561096f61096a610d57565b6110f3565b6001600055565b60006001600160a01b037f000000000000000000000000000000000000000000000000000000000000000016330361061c576001600054146109cb5760405163558a1e0360e11b815260040160405180910390fd5b60026000556109d8610da7565b6109e28383611141565b9050806008600082825461090b9190611ee7565b6060600680546104ab90611d3c565b60006001600160a01b037f000000000000000000000000000000000000000000000000000000000000000016330361061c57600160005414610a5a5760405163558a1e0360e11b815260040160405180910390fd5b6002600055610a67610da7565b6000610a738484611166565b9050610a85610a80610d57565b610e00565b90506001600055610582565b6000336001600160a01b037f000000000000000000000000000000000000000000000000000000000000000016141580610b4a57507f00000000000000000000000000000000000000000000000000000000000000006001600160a01b031663e21e537c6040518163ffffffff1660e01b8152600401602060405180830381865afa158015610b24573d6000803e3d6000fd5b505050506040513d601f19601f82011682018060405250810190610b489190611ecc565b155b15610b685760405163ea8e4eb560e01b815260040160405180910390fd5b5063b168c58f60e01b9392505050565b600061055c826001610f6f565b60006001600160a01b037f000000000000000000000000000000000000000000000000000000000000000016330361061c57600160005414610bda5760405163558a1e0360e11b815260040160405180910390fd5b6002600055610be7610da7565b610bf284848461117e565b90508360086000828254610c069190611efa565b90915550610612905082610e00565b60006001600160a01b037f000000000000000000000000000000000000000000000000000000000000000016330361061c57600160005414610c6a5760405163558a1e0360e11b815260040160405180910390fd5b6002600055610c77610da7565b610c828484846111dd565b90508060086000828254610c069190611efa565b6000600160005414610cbb5760405163558a1e0360e11b815260040160405180910390fd5b61055c82610d07565b6001600160a01b03811660009081526002602052604081205461055c905b6000610f6f565b6001600160a01b03811660009081526002602052604081205461055c565b600061055c826000610d73565b610d1c611043565b6001600160a01b038116610d4b57604051631e4fbdf760e01b8152600060048201526024015b60405180910390fd5b610d54816110a1565b50565b60006106f7611233565b610d6e83838360016112f5565b505050565b60006106c4610d8382600a611ff1565b600454610d909190611ee7565b600854610d9e906001611ee7565b859190856113ca565b60018054610db490611d3c565b905060000361093557610dc5611419565b600190610d54908261204e565b600080610ddd610d57565b9050610dea858285611444565b610df58585856114a9565b506001949350505050565b6001600160a01b038116610e84577f00000000000000000000000000000000000000000000000000000000000000006001600160a01b031663a37d54af6040518163ffffffff1660e01b8152600401600060405180830381600087803b158015610e6957600080fd5b505af1158015610e7d573d6000803e3d6000fd5b5050505050565b6040516330f3166760e01b81526001600160a01b0382811660048301527f000000000000000000000000000000000000000000000000000000000000000016906330f31667906024015b600060405180830381600087803b158015610e6957600080fd5b8051600003610f0a576040516332e17beb60e21b815260040160405180910390fd5b600081806020019051810190610f20919061210e565b90506000610f30610ce260045490565b9050600954600014158015610f46575060095481115b8015610f5157508181115b15610d6e57604051637ac7b99d60e11b815260040160405180910390fd5b60006106c4610f7d60085490565b610f88906001611ee7565b610f946000600a611ff1565b600454610d9e9190611ee7565b60006000196000610fb185610d07565b9050610fc6610fbe610d57565b858784611508565b949350505050565b7f00000000000000000000000000000000000000000000000000000000000000006001600160a01b031663a37d54af6040518163ffffffff1660e01b8152600401600060405180830381600087803b15801561102957600080fd5b505af115801561103d573d6000803e3d6000fd5b50505050565b61104b610d57565b6001600160a01b03166110666007546001600160a01b031690565b6001600160a01b0316146109355761107c610d57565b60405163118cdaa760e01b81526001600160a01b039091166004820152602401610d42565b600780546001600160a01b038381166001600160a01b0319831681179093556040519116919082907f8be0079c531659141344cd1fd0a4f28419497f9722a3daafe3b4186f6b6457e090600090a35050565b604051630f4fc35760e41b81526001600160a01b0382811660048301527f0000000000000000000000000000000000000000000000000000000000000000169063f4fc357090602401610ece565b6000600019600061115185610b78565b9050610fc661115e610d57565b858388611508565b600080611171610d57565b905061057c8185856114a9565b60008061118a83610cc4565b9050808511156111b357828582604051633fa733bb60e21b8152600401610d4293929190612127565b60006111be86610588565b90506111d46111cb610d57565b8686898561158c565b95945050505050565b6000806111e983610ce9565b90508085111561121257828582604051632e52afbb60e21b8152600401610d4293929190612127565b600061121d8661087e565b90506111d461122a610d57565b8686848a61158c565b6000336001600160a01b037f000000000000000000000000000000000000000000000000000000000000000016810361055f57604051630c281d0f60e11b8152600060048201527f00000000000000000000000000000000000000000000000000000000000000006001600160a01b0316906318503a1e906024016040805180830381865afa1580156112ca573d6000803e3d6000fd5b505050506040513d601f19601f820116820180604052508101906112ee9190612148565b5092915050565b6001600160a01b03841661131f5760405163e602df0560e01b815260006004820152602401610d42565b6001600160a01b03831661134957604051634a1406b160e11b815260006004820152602401610d42565b6001600160a01b038085166000908152600360209081526040808320938716835292905220829055801561103d57826001600160a01b0316846001600160a01b03167f8c5be1e5ebec7d5bd14f71427d1e84f3dd0314c0f7b2291e5b200ac8c7c3b925846040516113bc91815260200190565b60405180910390a350505050565b6000806113d886868661164c565b90506113e383611710565b80156113ff5750600084806113fa576113fa61217d565b868809115b156111d45761140f600182611ee7565b9695505050505050565b606060085460405160200161143091815260200190565b604051602081830303815290604052905090565b6001600160a01b03838116600090815260036020908152604080832093861683529290522054600019811461103d578181101561149a57828183604051637dc7a0d960e11b8152600401610d4293929190612127565b61103d848484840360006112f5565b6001600160a01b0383166114d357604051634b637e8f60e11b815260006004820152602401610d42565b6001600160a01b0382166114fd5760405163ec442f0560e01b815260006004820152602401610d42565b610d6e83838361173d565b6115347f0000000000000000000000000000000000000000000000000000000000000000853085611854565b61153e83826118bb565b826001600160a01b0316846001600160a01b03167fdcbc1c05240f31ff3ad067ef1ee35ce4997762752e3a095284754544f4c709d784846040516113bc929190918252602082015260400190565b826001600160a01b0316856001600160a01b0316146115b0576115b0838683611444565b6115ba83826118f5565b6115e57f0000000000000000000000000000000000000000000000000000000000000000858461192b565b826001600160a01b0316846001600160a01b0316866001600160a01b03167ffbde797d201c681b91056529119e0b02407c7bb96a4a2c75c01fc9667232c8db858560405161163d929190918252602082015260400190565b60405180910390a45050505050565b6000838302816000198587098281108382030391505080600003611683578382816116795761167961217d565b04925050506106c4565b8084116116a35760405163227bc15360e01b815260040160405180910390fd5b6000848688096000868103871696879004966002600389028118808a02820302808a02820302808a02820302808a02820302808a02820302808a02909103029181900381900460010186841190950394909402919094039290920491909117919091029150509392505050565b6000600282600381111561172657611726612193565b61173091906121a9565b60ff166001149050919050565b6001600160a01b03831661176857806004600082825461175d9190611ee7565b909155506117c79050565b6001600160a01b038316600090815260026020526040902054818110156117a85783818360405163391434e360e21b8152600401610d4293929190612127565b6001600160a01b03841660009081526002602052604090209082900390555b6001600160a01b0382166117e357600480548290039055611802565b6001600160a01b03821660009081526002602052604090208054820190555b816001600160a01b0316836001600160a01b03167fddf252ad1be2c89b69c2b068fc378daa952ba7f163c4a11628f55a4df523b3ef8360405161184791815260200190565b60405180910390a3505050565b6040516001600160a01b03848116602483015283811660448301526064820183905261103d9186918216906323b872dd906084015b604051602081830303815290604052915060e01b6020820180516001600160e01b03838183161783525050505061195c565b6001600160a01b0382166118e55760405163ec442f0560e01b815260006004820152602401610d42565b6118f16000838361173d565b5050565b6001600160a01b03821661191f57604051634b637e8f60e11b815260006004820152602401610d42565b6118f18260008361173d565b6040516001600160a01b03838116602483015260448201839052610d6e91859182169063a9059cbb90606401611889565b60006119716001600160a01b038416836119bf565b905080516000141580156119965750808060200190518101906119949190611ecc565b155b15610d6e57604051635274afe760e01b81526001600160a01b0384166004820152602401610d42565b60606106c48383600084600080856001600160a01b031684866040516119e591906121d9565b60006040518083038185875af1925050503d8060008114611a22576040519150601f19603f3d011682016040523d82523d6000602084013e611a27565b606091505b509150915061140f868383606082611a4757611a4282611a8e565b6106c4565b8151158015611a5e57506001600160a01b0384163b155b15611a8757604051639996b31560e01b81526001600160a01b0385166004820152602401610d42565b50806106c4565b805115611a9e5780518082602001fd5b604051630a12f52160e11b815260040160405180910390fd5b508054611ac390611d3c565b6000825580601f10611ad3575050565b601f016020900490600052602060002090810190610d5491905b80821115611b015760008155600101611aed565b5090565b60005b83811015611b20578181015183820152602001611b08565b50506000910152565b6020815260008251806020840152611b48816040850160208701611b05565b601f01601f19169190910160400192915050565b600060208284031215611b6e57600080fd5b5035919050565b6001600160a01b0381168114610d5457600080fd5b60008060408385031215611b9d57600080fd5b8235611ba881611b75565b946020939093013593505050565b600080600060608486031215611bcb57600080fd5b8335611bd681611b75565b92506020840135611be681611b75565b929592945050506040919091013590565b600060208284031215611c0957600080fd5b81356106c481611b75565b60008060408385031215611c2757600080fd5b823591506020830135611c3981611b75565b809150509250929050565b600080600060408486031215611c5957600080fd5b8335611c6481611b75565b9250602084013567ffffffffffffffff80821115611c8157600080fd5b818601915086601f830112611c9557600080fd5b813581811115611ca457600080fd5b8760208260051b8501011115611cb957600080fd5b6020830194508093505050509250925092565b600080600060608486031215611ce157600080fd5b833592506020840135611cf381611b75565b91506040840135611d0381611b75565b809150509250925092565b60008060408385031215611d2157600080fd5b8235611d2c81611b75565b91506020830135611c3981611b75565b600181811c90821680611d5057607f821691505b602082108103611d7057634e487b7160e01b600052602260045260246000fd5b50919050565b6001600160a01b038681168252851660208201526040810184905260806060820181905281018290526000828460a0840137600060a0848401015260a0601f19601f85011683010190509695505050505050565b634e487b7160e01b600052604160045260246000fd5b600060208284031215611df257600080fd5b815167ffffffffffffffff80821115611e0a57600080fd5b818401915084601f830112611e1e57600080fd5b815181811115611e3057611e30611dca565b604051601f8201601f19908116603f01168101908382118183101715611e5857611e58611dca565b81604052828152876020848701011115611e7157600080fd5b611e82836020830160208801611b05565b979650505050505050565b634e487b7160e01b600052601160045260246000fd5b60ff818116838216019081111561058257610582611e8d565b8051801515811461055f57600080fd5b600060208284031215611ede57600080fd5b6106c482611ebc565b8082018082111561058257610582611e8d565b8181038181111561058257610582611e8d565b600181815b80851115611f48578160001904821115611f2e57611f2e611e8d565b80851615611f3b57918102915b93841c9390800290611f12565b509250929050565b600082611f5f57506001610582565b81611f6c57506000610582565b8160018114611f825760028114611f8c57611fa8565b6001915050610582565b60ff841115611f9d57611f9d611e8d565b50506001821b610582565b5060208310610133831016604e8410600b8410161715611fcb575081810a610582565b611fd58383611f0d565b8060001904821115611fe957611fe9611e8d565b029392505050565b60006106c460ff841683611f50565b601f821115610d6e57600081815260208120601f850160051c810160208610156120275750805b601f850160051c820191505b8181101561204657828155600101612033565b505050505050565b815167ffffffffffffffff81111561206857612068611dca565b61207c816120768454611d3c565b84612000565b602080601f8311600181146120b157600084156120995750858301515b600019600386901b1c1916600185901b178555612046565b600085815260208120601f198616915b828110156120e0578886015182559484019460019091019084016120c1565b50858210156120fe5787850151600019600388901b60f8161c191681555b5050505050600190811b01905550565b60006020828403121561212057600080fd5b5051919050565b6001600160a01b039390931683526020830191909152604082015260600190565b6000806040838503121561215b57600080fd5b825161216681611b75565b915061217460208401611ebc565b90509250929050565b634e487b7160e01b600052601260045260246000fd5b634e487b7160e01b600052602160045260246000fd5b600060ff8316806121ca57634e487b7160e01b600052601260045260246000fd5b8060ff84160691505092915050565b600082516121eb818460208701611b05565b919091019291505056fea2646970667358221220ee9cce442a126d6cd2f30548b2de8dbd1935737a795f2e9f50692e92375c849764736f6c63430008140033","linkReferences":{}},"methodIdentifiers":{"allowance(address,address)":"dd62ed3e","approve(address,uint256)":"095ea7b3","asset()":"38d52e0f","balanceOf(address)":"70a08231","checkAccountStatus(address,address[])":"b168c58f","checkVaultStatus()":"4b3d1223","convertToAssets(uint256)":"07a2d13a","convertToShares(uint256)":"c6e6f592","decimals()":"313ce567","deposit(uint256,address)":"6e553f65","disableController()":"869e50c7","maxDeposit(address)":"402d267d","maxMint(address)":"c63d75b6","maxRedeem(address)":"d905777e","maxWithdraw(address)":"ce96cb77","mint(uint256,address)":"94bf804d","name()":"06fdde03","owner()":"8da5cb5b","previewDeposit(uint256)":"ef8b30f7","previewMint(uint256)":"b3d7f6b9","previewRedeem(uint256)":"4cdad506","previewWithdraw(uint256)":"0a28a477","redeem(uint256,address,address)":"ba087652","renounceOwnership()":"715018a6","supplyCap()":"8f770ad0","symbol()":"95d89b41","totalAssets()":"01e1d114","totalSupply()":"18160ddd","transfer(address,uint256)":"a9059cbb","transferFrom(address,address,uint256)":"23b872dd","transferOwnership(address)":"f2fde38b","withdraw(uint256,address,address)":"b460af94"},"id":69}