{"abi":[{"type":"constructor","inputs":[{"name":"_twapDuration","type":"uint32","internalType":"uint32"},{"name":"_market","type":"address","internalType":"address"},{"name":"_feed","type":"address","internalType":"address"},{"name":"_ptOracle","type":"address","internalType":"address"}],"stateMutability":"nonpayable"},{"type":"function","name":"checkOracleState","inputs":[],"outputs":[],"stateMutability":"view"},{"type":"function","name":"feed","inputs":[],"outputs":[{"name":"","type":"address","internalType":"address"}],"stateMutability":"view"},{"type":"function","name":"feedDecimals","inputs":[],"outputs":[{"name":"","type":"uint8","internalType":"uint8"}],"stateMutability":"view"},{"type":"function","name":"getPtPrice","inputs":[],"outputs":[{"name":"","type":"uint256","internalType":"uint256"}],"stateMutability":"view"},{"type":"function","name":"getPtPriceSample1","inputs":[],"outputs":[{"name":"","type":"uint256","internalType":"uint256"}],"stateMutability":"view"},{"type":"function","name":"getPtPriceSample2","inputs":[],"outputs":[{"name":"","type":"uint256","internalType":"uint256"}],"stateMutability":"view"},{"type":"function","name":"market","inputs":[],"outputs":[{"name":"","type":"address","internalType":"address"}],"stateMutability":"view"},{"type":"function","name":"ptOracle","inputs":[],"outputs":[{"name":"","type":"address","internalType":"address"}],"stateMutability":"view"},{"type":"function","name":"twapDuration","inputs":[],"outputs":[{"name":"","type":"uint32","internalType":"uint32"}],"stateMutability":"view"},{"type":"error","name":"AdditionalWaitRequired","inputs":[{"name":"duration","type":"uint32","internalType":"uint32"}]},{"type":"error","name":"IncreaseCardinalityRequired","inputs":[{"name":"cardinalityRequired","type":"uint16","internalType":"uint16"}]}],"bytecode":{"object":"0x6101206040523480156200001257600080fd5b50604051620015ff380380620015ff8339810160408190526200003591620000f0565b63ffffffff84166080526001600160a01b0380841660a052821660c08190526040805163313ce56760e01b8152905163313ce567916004808201926020929091908290030181865afa15801562000090573d6000803e3d6000fd5b505050506040513d601f19601f82011682018060405250810190620000b6919062000157565b60ff1660e0526001600160a01b0316610100525062000183915050565b80516001600160a01b0381168114620000eb57600080fd5b919050565b600080600080608085870312156200010757600080fd5b845163ffffffff811681146200011c57600080fd5b93506200012c60208601620000d3565b92506200013c60408601620000d3565b91506200014c60608601620000d3565b905092959194509250565b6000602082840312156200016a57600080fd5b815160ff811681146200017c57600080fd5b9392505050565b60805160a05160c05160e051610100516113d06200022f60003960008181609d0152818161032101526103fd015260008181610189015281816105c2015281816105f0015261063301526000818161011d015261053c015260008181610144015281816101df01528181610266015281816102c801526103a201526000818160e10152818161020101528181610288015281816102f0015281816103ca01526104b301526113d06000f3fe608060405234801561001057600080fd5b50600436106100935760003560e01c8063addccbb311610066578063addccbb314610166578063bc3ff1dc1461017c578063c23953d014610184578063e710b82f146101bd578063f9294d8b146101c557600080fd5b806305d7b9a21461009857806326d89545146100dc57806337a7b7d81461011857806380f556051461013f575b600080fd5b6100bf7f000000000000000000000000000000000000000000000000000000000000000081565b6040516001600160a01b0390911681526020015b60405180910390f35b6101037f000000000000000000000000000000000000000000000000000000000000000081565b60405163ffffffff90911681526020016100d3565b6100bf7f000000000000000000000000000000000000000000000000000000000000000081565b6100bf7f000000000000000000000000000000000000000000000000000000000000000081565b61016e6101cf565b6040519081526020016100d3565b61016e610257565b6101ab7f000000000000000000000000000000000000000000000000000000000000000081565b60405160ff90911681526020016100d3565b61016e6102b1565b6101cd61038c565b005b6000806102256001600160a01b037f0000000000000000000000000000000000000000000000000000000000000000167f00000000000000000000000000000000000000000000000000000000000000006104e5565b90506000610231610537565b9050670de0b6b3a76400006102468383610f7f565b6102509190610fac565b9250505090565b60006102ac6001600160a01b037f0000000000000000000000000000000000000000000000000000000000000000167f00000000000000000000000000000000000000000000000000000000000000006104e5565b905090565b60405163abca0eab60e01b81526001600160a01b037f0000000000000000000000000000000000000000000000000000000000000000811660048301527f000000000000000000000000000000000000000000000000000000000000000063ffffffff16602483015260009182917f0000000000000000000000000000000000000000000000000000000000000000169063abca0eab90604401602060405180830381865afa158015610368573d6000803e3d6000fd5b505050506040513d601f19601f820116820180604052508101906102259190610fc0565b60405162439f4b60e91b81526001600160a01b037f0000000000000000000000000000000000000000000000000000000000000000811660048301527f000000000000000000000000000000000000000000000000000000000000000063ffffffff166024830152600091829182917f00000000000000000000000000000000000000000000000000000000000000009091169063873e960090604401606060405180830381865afa158015610446573d6000803e3d6000fd5b505050506040513d601f19601f8201168201806040525081019061046a9190610fee565b925092509250821561049a576040516333b3ceb360e01b815261ffff831660048201526024015b60405180910390fd5b806104e057604051631229555360e01b815263ffffffff7f0000000000000000000000000000000000000000000000000000000000000000166004820152602401610491565b505050565b60008060006104f385610674565b915091508082106105115761050885856108a4565b92505050610531565b808261051d87876108a4565b6105279190610f7f565b6105089190610fac565b92915050565b6000807f00000000000000000000000000000000000000000000000000000000000000006001600160a01b03166350d25bcd6040518163ffffffff1660e01b8152600401602060405180830381865afa158015610598573d6000803e3d6000fd5b505050506040513d601f19601f820116820180604052508101906105bc9190610fc0565b905060127f000000000000000000000000000000000000000000000000000000000000000060ff161061062e5761061460127f000000000000000000000000000000000000000000000000000000000000000061103a565b61061f90600a611137565b6106299082610fac565b61066e565b6106597f0000000000000000000000000000000000000000000000000000000000000000601261103a565b61066490600a611137565b61066e9082610f7f565b91505090565b600080600080846001600160a01b0316632c8ce6bc6040518163ffffffff1660e01b8152600401606060405180830381865afa1580156106b8573d6000803e3d6000fd5b505050506040513d601f19601f820116820180604052508101906106dc919061115e565b9250509150816001600160a01b0316633ba0b9a96040518163ffffffff1660e01b8152600401602060405180830381865afa15801561071f573d6000803e3d6000fd5b505050506040513d601f19601f820116820180604052508101906107439190610fc0565b93506000816001600160a01b031663d2a3584e6040518163ffffffff1660e01b8152600401602060405180830381865afa158015610785573d6000803e3d6000fd5b505050506040513d601f19601f820116820180604052508101906107a99190610fc0565b9050816001600160a01b031663516399df6040518163ffffffff1660e01b8152600401602060405180830381865afa1580156107e9573d6000803e3d6000fd5b505050506040513d601f19601f8201168201806040525081019061080d91906111ab565b8015610882575043826001600160a01b03166360e0a9e16040518163ffffffff1660e01b8152600401602060405180830381865afa158015610853573d6000803e3d6000fd5b505050506040513d601f19601f8201168201806040525081019061087791906111c6565b6001600160801b0316145b1561088f5780935061089c565b6108998582610979565b93505b505050915091565b600080836001600160a01b031663e184c9be6040518163ffffffff1660e01b8152600401602060405180830381865afa1580156108e5573d6000803e3d6000fd5b505050506040513d601f19601f820116820180604052508101906109099190610fc0565b905042811161092357670de0b6b3a7640000915050610531565b600061092f8585610991565b9050600061093d42846111ef565b9050600061095361094e8484610ab8565b610af9565b9050610967670de0b6b3a764000082610b0c565b945050505050610531565b5092915050565b6000818311610988578161098a565b825b9392505050565b6040805160028082526060820183526000928392919060208301908036833701905050905082816000815181106109ca576109ca611218565b63ffffffff9092166020928302919091019091015260405163883bdbfd60e01b81526000906001600160a01b0386169063883bdbfd90610a0e90859060040161122e565b600060405180830381865afa158015610a2b573d6000803e3d6000fd5b505050506040513d6000823e601f3d908101601f19168201604052610a53919081019061128f565b90508363ffffffff1681600081518110610a6f57610a6f611218565b602002602001015182600181518110610a8a57610a8a611218565b6020026020010151610a9c9190611354565b610aa69190611374565b6001600160d81b031695945050505050565b600080610aca6201518061016d610f7f565b610ad48486610f7f565b610ade9190610fac565b9050610af1610aec82610b3b565b610b51565b949350505050565b600080821215610b0857600080fd5b5090565b600080610b21670de0b6b3a764000085610f7f565b9050828181610b3257610b32610f96565b04949350505050565b60006001600160ff1b03821115610b0857600080fd5b6000680238fd42c5cf03ffff198212158015610b76575068070c1cc73b00c800008213155b610bb55760405162461bcd60e51b815260206004820152601060248201526f125b9d985b1a5908195e1c1bdb995b9d60821b6044820152606401610491565b6000821215610bee57610bca82600003610b51565b6ec097ce7bc90715b34b9f100000000081610be757610be7610f96565b0592915050565b60006806f05b59d3b20000008312610c2e57506806f05b59d3b1ffffff1990910190770195e54c5dd42177f53a27172fa9ec630262827000000000610c64565b6803782dace9d90000008312610c6057506803782dace9d8ffffff19909101906b1425982cf597cd205cef7380610c64565b5060015b6064929092029168056bc75e2d6310000068ad78ebc5ac620000008412610cb45768ad78ebc5ac61ffffff199093019268056bc75e2d631000006e01855144814a7ff805980ff008400082020590505b6856bc75e2d6310000008412610cf0576856bc75e2d630ffffff199093019268056bc75e2d631000006b02df0ab5a80a22c61ab5a70082020590505b682b5e3af16b188000008412610d2a57682b5e3af16b187fffff199093019268056bc75e2d63100000693f1fce3da636ea5cf85082020590505b6815af1d78b58c4000008412610d64576815af1d78b58c3fffff199093019268056bc75e2d63100000690127fa27722cc06cc5e282020590505b680ad78ebc5ac62000008412610d9d57680ad78ebc5ac61fffff199093019268056bc75e2d6310000068280e60114edb805d0382020590505b68056bc75e2d631000008412610dd65768056bc75e2d630fffff199093019268056bc75e2d63100000680ebc5fb4174612111082020590505b6802b5e3af16b18800008412610e0f576802b5e3af16b187ffff199093019268056bc75e2d631000006808f00f760a4b2db55d82020590505b68015af1d78b58c400008412610e485768015af1d78b58c3ffff199093019268056bc75e2d631000006806f5f177578893793782020590505b68056bc75e2d631000008481019085906002908280020505918201919050600368056bc75e2d631000008783020505918201919050600468056bc75e2d631000008783020505918201919050600568056bc75e2d631000008783020505918201919050600668056bc75e2d631000008783020505918201919050600768056bc75e2d631000008783020505918201919050600868056bc75e2d631000008783020505918201919050600968056bc75e2d631000008783020505918201919050600a68056bc75e2d631000008783020505918201919050600b68056bc75e2d631000008783020505918201919050600c68056bc75e2d631000008783020505918201919050606468056bc75e2d63100000848402058502059695505050505050565b634e487b7160e01b600052601160045260246000fd5b808202811582820484141761053157610531610f69565b634e487b7160e01b600052601260045260246000fd5b600082610fbb57610fbb610f96565b500490565b600060208284031215610fd257600080fd5b5051919050565b80518015158114610fe957600080fd5b919050565b60008060006060848603121561100357600080fd5b61100c84610fd9565b9250602084015161ffff8116811461102357600080fd5b915061103160408501610fd9565b90509250925092565b60ff828116828216039081111561053157610531610f69565b600181815b8085111561108e57816000190482111561107457611074610f69565b8085161561108157918102915b93841c9390800290611058565b509250929050565b6000826110a557506001610531565b816110b257506000610531565b81600181146110c857600281146110d2576110ee565b6001915050610531565b60ff8411156110e3576110e3610f69565b50506001821b610531565b5060208310610133831016604e8410600b8410161715611111575081810a610531565b61111b8383611053565b806000190482111561112f5761112f610f69565b029392505050565b600061098a60ff841683611096565b6001600160a01b038116811461115b57600080fd5b50565b60008060006060848603121561117357600080fd5b835161117e81611146565b602085015190935061118f81611146565b60408501519092506111a081611146565b809150509250925092565b6000602082840312156111bd57600080fd5b61098a82610fd9565b6000602082840312156111d857600080fd5b81516001600160801b038116811461098a57600080fd5b8181038181111561053157610531610f69565b634e487b7160e01b600052604160045260246000fd5b634e487b7160e01b600052603260045260246000fd5b6020808252825182820181905260009190848201906040850190845b8181101561126c57835163ffffffff168352928401929184019160010161124a565b50909695505050505050565b80516001600160d81b0381168114610fe957600080fd5b600060208083850312156112a257600080fd5b825167ffffffffffffffff808211156112ba57600080fd5b818501915085601f8301126112ce57600080fd5b8151818111156112e0576112e0611202565b8060051b604051601f19603f8301168101818110858211171561130557611305611202565b60405291825284820192508381018501918883111561132357600080fd5b938501935b828510156113485761133985611278565b84529385019392850192611328565b98975050505050505050565b6001600160d81b0382811682821603908082111561097257610972610f69565b60006001600160d81b038381168061138e5761138e610f96565b9216919091049291505056fea2646970667358221220c714346f9d4220375278b60fd61508e74d179f1f4972b05e09f26cd24662a87d64736f6c63430008140033","linkReferences":{}},"methodIdentifiers":{"checkOracleState()":"f9294d8b","feed()":"37a7b7d8","feedDecimals()":"c23953d0","getPtPrice()":"bc3ff1dc","getPtPriceSample1()":"addccbb3","getPtPriceSample2()":"e710b82f","market()":"80f55605","ptOracle()":"05d7b9a2","twapDuration()":"26d89545"},"id":60}