{"abi":[{"type":"constructor","inputs":[{"name":"_evc","type":"address","internalType":"contract IEVC"},{"name":"_asset","type":"address","internalType":"contract IERC20"},{"name":"_collateralVault","type":"address","internalType":"address"},{"name":"_oracle","type":"address","internalType":"address"},{"name":"_market","type":"address","internalType":"address"}],"stateMutability":"nonpayable"},{"type":"function","name":"LTV","inputs":[],"outputs":[{"name":"","type":"uint256","internalType":"uint256"}],"stateMutability":"view"},{"type":"function","name":"allowance","inputs":[{"name":"owner","type":"address","internalType":"address"},{"name":"spender","type":"address","internalType":"address"}],"outputs":[{"name":"","type":"uint256","internalType":"uint256"}],"stateMutability":"view"},{"type":"function","name":"approve","inputs":[{"name":"spender","type":"address","internalType":"address"},{"name":"value","type":"uint256","internalType":"uint256"}],"outputs":[{"name":"","type":"bool","internalType":"bool"}],"stateMutability":"nonpayable"},{"type":"function","name":"asset","inputs":[],"outputs":[{"name":"","type":"address","internalType":"address"}],"stateMutability":"view"},{"type":"function","name":"balanceOf","inputs":[{"name":"account","type":"address","internalType":"address"}],"outputs":[{"name":"","type":"uint256","internalType":"uint256"}],"stateMutability":"view"},{"type":"function","name":"borrow","inputs":[{"name":"assets","type":"uint256","internalType":"uint256"},{"name":"term","type":"uint256","internalType":"uint256"},{"name":"receiver","type":"address","internalType":"address"}],"outputs":[],"stateMutability":"nonpayable"},{"type":"function","name":"checkAccountStatus","inputs":[{"name":"account","type":"address","internalType":"address"},{"name":"collaterals","type":"address[]","internalType":"address[]"}],"outputs":[{"name":"magicValue","type":"bytes4","internalType":"bytes4"}],"stateMutability":"view"},{"type":"function","name":"checkVaultStatus","inputs":[],"outputs":[{"name":"magicValue","type":"bytes4","internalType":"bytes4"}],"stateMutability":"nonpayable"},{"type":"function","name":"collateral","inputs":[],"outputs":[{"name":"","type":"address","internalType":"contract IPPrincipalToken"}],"stateMutability":"view"},{"type":"function","name":"collateralFactor","inputs":[{"name":"","type":"address","internalType":"address"}],"outputs":[{"name":"","type":"uint256","internalType":"uint256"}],"stateMutability":"view"},{"type":"function","name":"collateralVault","inputs":[],"outputs":[{"name":"","type":"address","internalType":"contract IFixedYieldCollateralVault"}],"stateMutability":"view"},{"type":"function","name":"convertToAssets","inputs":[{"name":"shares","type":"uint256","internalType":"uint256"}],"outputs":[{"name":"","type":"uint256","internalType":"uint256"}],"stateMutability":"view"},{"type":"function","name":"convertToShares","inputs":[{"name":"assets","type":"uint256","internalType":"uint256"}],"outputs":[{"name":"","type":"uint256","internalType":"uint256"}],"stateMutability":"view"},{"type":"function","name":"decimals","inputs":[],"outputs":[{"name":"","type":"uint8","internalType":"uint8"}],"stateMutability":"view"},{"type":"function","name":"deposit","inputs":[{"name":"assets","type":"uint256","internalType":"uint256"},{"name":"receiver","type":"address","internalType":"address"}],"outputs":[{"name":"shares","type":"uint256","internalType":"uint256"}],"stateMutability":"nonpayable"},{"type":"function","name":"disableController","inputs":[],"outputs":[],"stateMutability":"nonpayable"},{"type":"function","name":"getMaxBorrow","inputs":[{"name":"_collateralValue","type":"uint256","internalType":"uint256"},{"name":"_term","type":"uint256","internalType":"uint256"}],"outputs":[{"name":"","type":"uint256","internalType":"uint256"}],"stateMutability":"view"},{"type":"function","name":"getRate","inputs":[],"outputs":[{"name":"","type":"uint256","internalType":"uint256"}],"stateMutability":"view"},{"type":"function","name":"getRepoLoan","inputs":[{"name":"account","type":"address","internalType":"address"},{"name":"loandIndex","type":"uint256","internalType":"uint256"}],"outputs":[{"name":"collateral","type":"uint256","internalType":"uint256"},{"name":"repurchasePrice","type":"uint256","internalType":"uint256"},{"name":"term","type":"uint256","internalType":"uint256"}],"stateMutability":"view"},{"type":"function","name":"getTermFee","inputs":[{"name":"_collateralValue","type":"uint256","internalType":"uint256"},{"name":"_term","type":"uint256","internalType":"uint256"}],"outputs":[{"name":"","type":"uint256","internalType":"uint256"}],"stateMutability":"view"},{"type":"function","name":"getTermFeeForAmount","inputs":[{"name":"_amount","type":"uint256","internalType":"uint256"},{"name":"_term","type":"uint256","internalType":"uint256"}],"outputs":[{"name":"","type":"uint256","internalType":"uint256"}],"stateMutability":"view"},{"type":"function","name":"liquidate","inputs":[{"name":"_borrower","type":"address","internalType":"address"},{"name":"_loanIndex","type":"uint256","internalType":"uint256"}],"outputs":[],"stateMutability":"nonpayable"},{"type":"function","name":"loans","inputs":[{"name":"","type":"address","internalType":"address"}],"outputs":[{"name":"","type":"uint256","internalType":"uint256"}],"stateMutability":"view"},{"type":"function","name":"market","inputs":[],"outputs":[{"name":"","type":"address","internalType":"address"}],"stateMutability":"view"},{"type":"function","name":"maxDeposit","inputs":[{"name":"","type":"address","internalType":"address"}],"outputs":[{"name":"","type":"uint256","internalType":"uint256"}],"stateMutability":"view"},{"type":"function","name":"maxLoanValue","inputs":[{"name":"_collateralValue","type":"uint256","internalType":"uint256"}],"outputs":[{"name":"","type":"uint256","internalType":"uint256"}],"stateMutability":"view"},{"type":"function","name":"maxMint","inputs":[{"name":"","type":"address","internalType":"address"}],"outputs":[{"name":"","type":"uint256","internalType":"uint256"}],"stateMutability":"view"},{"type":"function","name":"maxRedeem","inputs":[{"name":"owner","type":"address","internalType":"address"}],"outputs":[{"name":"","type":"uint256","internalType":"uint256"}],"stateMutability":"view"},{"type":"function","name":"maxWithdraw","inputs":[{"name":"owner","type":"address","internalType":"address"}],"outputs":[{"name":"","type":"uint256","internalType":"uint256"}],"stateMutability":"view"},{"type":"function","name":"mint","inputs":[{"name":"shares","type":"uint256","internalType":"uint256"},{"name":"receiver","type":"address","internalType":"address"}],"outputs":[{"name":"assets","type":"uint256","internalType":"uint256"}],"stateMutability":"nonpayable"},{"type":"function","name":"name","inputs":[],"outputs":[{"name":"","type":"string","internalType":"string"}],"stateMutability":"view"},{"type":"function","name":"openTradeBaseForPT","inputs":[{"name":"_PTAmount","type":"uint256","internalType":"uint256"},{"name":"_term","type":"uint256","internalType":"uint256"},{"name":"_minPtOut","type":"uint256","internalType":"uint256"},{"name":"receiver","type":"address","internalType":"address"}],"outputs":[],"stateMutability":"nonpayable"},{"type":"function","name":"oracle","inputs":[],"outputs":[{"name":"","type":"address","internalType":"contract PtUsdOracle"}],"stateMutability":"view"},{"type":"function","name":"owner","inputs":[],"outputs":[{"name":"","type":"address","internalType":"address"}],"stateMutability":"view"},{"type":"function","name":"pledgedCollateral","inputs":[{"name":"","type":"address","internalType":"address"}],"outputs":[{"name":"","type":"uint256","internalType":"uint256"}],"stateMutability":"view"},{"type":"function","name":"previewDeposit","inputs":[{"name":"assets","type":"uint256","internalType":"uint256"}],"outputs":[{"name":"","type":"uint256","internalType":"uint256"}],"stateMutability":"view"},{"type":"function","name":"previewMint","inputs":[{"name":"shares","type":"uint256","internalType":"uint256"}],"outputs":[{"name":"","type":"uint256","internalType":"uint256"}],"stateMutability":"view"},{"type":"function","name":"previewRedeem","inputs":[{"name":"shares","type":"uint256","internalType":"uint256"}],"outputs":[{"name":"","type":"uint256","internalType":"uint256"}],"stateMutability":"view"},{"type":"function","name":"previewWithdraw","inputs":[{"name":"assets","type":"uint256","internalType":"uint256"}],"outputs":[{"name":"","type":"uint256","internalType":"uint256"}],"stateMutability":"view"},{"type":"function","name":"redeem","inputs":[{"name":"shares","type":"uint256","internalType":"uint256"},{"name":"receiver","type":"address","internalType":"address"},{"name":"owner","type":"address","internalType":"address"}],"outputs":[{"name":"assets","type":"uint256","internalType":"uint256"}],"stateMutability":"nonpayable"},{"type":"function","name":"renounceOwnership","inputs":[],"outputs":[],"stateMutability":"nonpayable"},{"type":"function","name":"repos","inputs":[{"name":"","type":"address","internalType":"address"},{"name":"","type":"uint256","internalType":"uint256"}],"outputs":[{"name":"collateralAmount","type":"uint256","internalType":"uint256"},{"name":"repurchasePrice","type":"uint256","internalType":"uint256"},{"name":"termExpires","type":"uint256","internalType":"uint256"}],"stateMutability":"view"},{"type":"function","name":"repurchase","inputs":[{"name":"receiver","type":"address","internalType":"address"},{"name":"_loanIndex","type":"uint256","internalType":"uint256"}],"outputs":[],"stateMutability":"nonpayable"},{"type":"function","name":"repurchaseAndSellPt","inputs":[{"name":"borrower","type":"address","internalType":"address"},{"name":"receiver","type":"address","internalType":"address"},{"name":"_loanIndex","type":"uint256","internalType":"uint256"}],"outputs":[],"stateMutability":"nonpayable"},{"type":"function","name":"setCollateralFactor","inputs":[{"name":"_asset","type":"address","internalType":"address"},{"name":"_collateralFactor","type":"uint256","internalType":"uint256"}],"outputs":[],"stateMutability":"nonpayable"},{"type":"function","name":"supplyCap","inputs":[],"outputs":[{"name":"","type":"uint256","internalType":"uint256"}],"stateMutability":"view"},{"type":"function","name":"symbol","inputs":[],"outputs":[{"name":"","type":"string","internalType":"string"}],"stateMutability":"view"},{"type":"function","name":"totalAssets","inputs":[],"outputs":[{"name":"","type":"uint256","internalType":"uint256"}],"stateMutability":"view"},{"type":"function","name":"totalSupply","inputs":[],"outputs":[{"name":"","type":"uint256","internalType":"uint256"}],"stateMutability":"view"},{"type":"function","name":"transfer","inputs":[{"name":"to","type":"address","internalType":"address"},{"name":"amount","type":"uint256","internalType":"uint256"}],"outputs":[{"name":"","type":"bool","internalType":"bool"}],"stateMutability":"nonpayable"},{"type":"function","name":"transferFrom","inputs":[{"name":"from","type":"address","internalType":"address"},{"name":"to","type":"address","internalType":"address"},{"name":"amount","type":"uint256","internalType":"uint256"}],"outputs":[{"name":"","type":"bool","internalType":"bool"}],"stateMutability":"nonpayable"},{"type":"function","name":"transferOwnership","inputs":[{"name":"newOwner","type":"address","internalType":"address"}],"outputs":[],"stateMutability":"nonpayable"},{"type":"function","name":"withdraw","inputs":[{"name":"assets","type":"uint256","internalType":"uint256"},{"name":"receiver","type":"address","internalType":"address"},{"name":"owner","type":"address","internalType":"address"}],"outputs":[{"name":"shares","type":"uint256","internalType":"uint256"}],"stateMutability":"nonpayable"},{"type":"event","name":"Approval","inputs":[{"name":"owner","type":"address","indexed":true,"internalType":"address"},{"name":"spender","type":"address","indexed":true,"internalType":"address"},{"name":"value","type":"uint256","indexed":false,"internalType":"uint256"}],"anonymous":false},{"type":"event","name":"Borrow","inputs":[{"name":"borrower","type":"address","indexed":true,"internalType":"address"},{"name":"receiver","type":"address","indexed":true,"internalType":"address"},{"name":"assets","type":"uint256","indexed":false,"internalType":"uint256"}],"anonymous":false},{"type":"event","name":"Deposit","inputs":[{"name":"sender","type":"address","indexed":true,"internalType":"address"},{"name":"owner","type":"address","indexed":true,"internalType":"address"},{"name":"assets","type":"uint256","indexed":false,"internalType":"uint256"},{"name":"shares","type":"uint256","indexed":false,"internalType":"uint256"}],"anonymous":false},{"type":"event","name":"OwnershipTransferred","inputs":[{"name":"previousOwner","type":"address","indexed":true,"internalType":"address"},{"name":"newOwner","type":"address","indexed":true,"internalType":"address"}],"anonymous":false},{"type":"event","name":"Repay","inputs":[{"name":"borrower","type":"address","indexed":true,"internalType":"address"},{"name":"receiver","type":"address","indexed":true,"internalType":"address"},{"name":"assets","type":"uint256","indexed":false,"internalType":"uint256"}],"anonymous":false},{"type":"event","name":"SupplyCapSet","inputs":[{"name":"newSupplyCap","type":"uint256","indexed":false,"internalType":"uint256"}],"anonymous":false},{"type":"event","name":"Transfer","inputs":[{"name":"from","type":"address","indexed":true,"internalType":"address"},{"name":"to","type":"address","indexed":true,"internalType":"address"},{"name":"value","type":"uint256","indexed":false,"internalType":"uint256"}],"anonymous":false},{"type":"event","name":"Withdraw","inputs":[{"name":"sender","type":"address","indexed":true,"internalType":"address"},{"name":"receiver","type":"address","indexed":true,"internalType":"address"},{"name":"owner","type":"address","indexed":true,"internalType":"address"},{"name":"assets","type":"uint256","indexed":false,"internalType":"uint256"},{"name":"shares","type":"uint256","indexed":false,"internalType":"uint256"}],"anonymous":false},{"type":"error","name":"AddressEmptyCode","inputs":[{"name":"target","type":"address","internalType":"address"}]},{"type":"error","name":"AddressInsufficientBalance","inputs":[{"name":"account","type":"address","internalType":"address"}]},{"type":"error","name":"ApproxFail","inputs":[]},{"type":"error","name":"ApproxParamsInvalid","inputs":[{"name":"guessMin","type":"uint256","internalType":"uint256"},{"name":"guessMax","type":"uint256","internalType":"uint256"},{"name":"eps","type":"uint256","internalType":"uint256"}]},{"type":"error","name":"ControllerDisabled","inputs":[]},{"type":"error","name":"ERC20InsufficientAllowance","inputs":[{"name":"spender","type":"address","internalType":"address"},{"name":"allowance","type":"uint256","internalType":"uint256"},{"name":"needed","type":"uint256","internalType":"uint256"}]},{"type":"error","name":"ERC20InsufficientBalance","inputs":[{"name":"sender","type":"address","internalType":"address"},{"name":"balance","type":"uint256","internalType":"uint256"},{"name":"needed","type":"uint256","internalType":"uint256"}]},{"type":"error","name":"ERC20InvalidApprover","inputs":[{"name":"approver","type":"address","internalType":"address"}]},{"type":"error","name":"ERC20InvalidReceiver","inputs":[{"name":"receiver","type":"address","internalType":"address"}]},{"type":"error","name":"ERC20InvalidSender","inputs":[{"name":"sender","type":"address","internalType":"address"}]},{"type":"error","name":"ERC20InvalidSpender","inputs":[{"name":"spender","type":"address","internalType":"address"}]},{"type":"error","name":"ERC4626ExceededMaxDeposit","inputs":[{"name":"receiver","type":"address","internalType":"address"},{"name":"assets","type":"uint256","internalType":"uint256"},{"name":"max","type":"uint256","internalType":"uint256"}]},{"type":"error","name":"ERC4626ExceededMaxMint","inputs":[{"name":"receiver","type":"address","internalType":"address"},{"name":"shares","type":"uint256","internalType":"uint256"},{"name":"max","type":"uint256","internalType":"uint256"}]},{"type":"error","name":"ERC4626ExceededMaxRedeem","inputs":[{"name":"owner","type":"address","internalType":"address"},{"name":"shares","type":"uint256","internalType":"uint256"},{"name":"max","type":"uint256","internalType":"uint256"}]},{"type":"error","name":"ERC4626ExceededMaxWithdraw","inputs":[{"name":"owner","type":"address","internalType":"address"},{"name":"assets","type":"uint256","internalType":"uint256"},{"name":"max","type":"uint256","internalType":"uint256"}]},{"type":"error","name":"FailedInnerCall","inputs":[]},{"type":"error","name":"InvalidCollateralFactor","inputs":[]},{"type":"error","name":"MarketExchangeRateBelowOne","inputs":[{"name":"exchangeRate","type":"int256","internalType":"int256"}]},{"type":"error","name":"MarketExpired","inputs":[]},{"type":"error","name":"MarketProportionMustNotEqualOne","inputs":[]},{"type":"error","name":"MarketProportionTooHigh","inputs":[{"name":"proportion","type":"int256","internalType":"int256"},{"name":"maxProportion","type":"int256","internalType":"int256"}]},{"type":"error","name":"MarketRateScalarBelowZero","inputs":[{"name":"rateScalar","type":"int256","internalType":"int256"}]},{"type":"error","name":"MarketZeroTotalPtOrTotalAsset","inputs":[{"name":"totalPt","type":"int256","internalType":"int256"},{"name":"totalAsset","type":"int256","internalType":"int256"}]},{"type":"error","name":"MathOverflowedMulDiv","inputs":[]},{"type":"error","name":"NotAuthorized","inputs":[]},{"type":"error","name":"OwnableInvalidOwner","inputs":[{"name":"owner","type":"address","internalType":"address"}]},{"type":"error","name":"OwnableUnauthorizedAccount","inputs":[{"name":"account","type":"address","internalType":"address"}]},{"type":"error","name":"REPO__CollateralExpired","inputs":[]},{"type":"error","name":"REPO__InvalidTerm","inputs":[]},{"type":"error","name":"REPO__LiquidationImpaired","inputs":[]},{"type":"error","name":"REPO__LoanTermNotExpired","inputs":[]},{"type":"error","name":"REPO__MaxLoanExceeded","inputs":[]},{"type":"error","name":"REPO__NotEnoughCollateralPledged","inputs":[]},{"type":"error","name":"REPO__SlippageToHigh","inputs":[]},{"type":"error","name":"REPO__ZeroAmount","inputs":[]},{"type":"error","name":"Reentrancy","inputs":[]},{"type":"error","name":"SafeERC20FailedOperation","inputs":[{"name":"token","type":"address","internalType":"address"}]},{"type":"error","name":"SharesSeizureFailed","inputs":[]},{"type":"error","name":"SnapshotNotTaken","inputs":[]},{"type":"error","name":"SupplyCapExceeded","inputs":[]},{"type":"error","name":"ViolatorStatusCheckDeferred","inputs":[]}],"bytecode":{"object":"0x60e0604052620f4240601155620f4240601255620f1b306013553480156200002657600080fd5b5060405162006751380380620067518339810160408190526200004991620004f4565b8484846001600160a01b03166306fdde036040518163ffffffff1660e01b8152600401600060405180830381865afa1580156200008a573d6000803e3d6000fd5b505050506040513d6000823e601f3d908101601f19168201604052620000b49190810190620005b0565b866001600160a01b03166306fdde036040518163ffffffff1660e01b8152600401600060405180830381865afa158015620000f3573d6000803e3d6000fd5b505050506040513d6000823e601f3d908101601f191682016040526200011d9190810190620005b0565b6040516020016200013092919062000668565b604051602081830303815290604052856001600160a01b03166395d89b416040518163ffffffff1660e01b8152600401600060405180830381865afa1580156200017e573d6000803e3d6000fd5b505050506040513d6000823e601f3d908101601f19168201604052620001a89190810190620005b0565b876001600160a01b03166395d89b416040518163ffffffff1660e01b8152600401600060405180830381865afa158015620001e7573d6000803e3d6000fd5b505050506040513d6000823e601f3d908101601f19168201604052620002119190810190620005b0565b60405160200162000224929190620006aa565b60408051601f198184030181529190526001600160a01b038416608052600160005533838383600562000258838262000779565b50600662000267828262000779565b5050506000806200027e83620003a460201b60201c565b91509150816200029057601262000292565b805b60ff1660c05250506001600160a01b0390811660a0528116620002cf57604051631e4fbdf760e01b81526000600482015260240160405180910390fd5b620002da8162000489565b5050601680546001600160a01b0319166001600160a01b038816908117909155604080516338d52e0f60e01b815290519194506338d52e0f935060048082019350602092918290030181865afa15801562000339573d6000803e3d6000fd5b505050506040513d601f19601f820116820180604052508101906200035f919062000845565b601580546001600160a01b03199081166001600160a01b03938416179091556014805482169483169490941790935560178054909316911617905550620008a4915050565b60408051600481526024810182526020810180516001600160e01b031663313ce56760e01b17905290516000918291829182916001600160a01b03871691620003ed916200086c565b600060405180830381855afa9150503d80600081146200042a576040519150601f19603f3d011682016040523d82523d6000602084013e6200042f565b606091505b50915091508180156200044457506020815110155b156200047c576000818060200190518101906200046291906200088a565b905060ff81116200047a576001969095509350505050565b505b5060009485945092505050565b600780546001600160a01b038381166001600160a01b0319831681179093556040519116919082907f8be0079c531659141344cd1fd0a4f28419497f9722a3daafe3b4186f6b6457e090600090a35050565b6001600160a01b0381168114620004f157600080fd5b50565b600080600080600060a086880312156200050d57600080fd5b85516200051a81620004db565b60208701519095506200052d81620004db565b60408701519094506200054081620004db565b60608701519093506200055381620004db565b60808701519092506200056681620004db565b809150509295509295909350565b634e487b7160e01b600052604160045260246000fd5b60005b83811015620005a75781810151838201526020016200058d565b50506000910152565b600060208284031215620005c357600080fd5b81516001600160401b0380821115620005db57600080fd5b818401915084601f830112620005f057600080fd5b81518181111562000605576200060562000574565b604051601f8201601f19908116603f0116810190838211818310171562000630576200063062000574565b816040528281528760208487010111156200064a57600080fd5b6200065d8360208301602088016200058a565b979650505050505050565b600083516200067c8184602088016200058a565b620103c160ed1b90830190815283516200069e8160038401602088016200058a565b01600301949350505050565b60008351620006be8184602088016200058a565b600f60fb1b9083019081528351620006de8160018401602088016200058a565b01600101949350505050565b600181811c90821680620006ff57607f821691505b6020821081036200072057634e487b7160e01b600052602260045260246000fd5b50919050565b601f8211156200077457600081815260208120601f850160051c810160208610156200074f5750805b601f850160051c820191505b8181101562000770578281556001016200075b565b5050505b505050565b81516001600160401b0381111562000795576200079562000574565b620007ad81620007a68454620006ea565b8462000726565b602080601f831160018114620007e55760008415620007cc5750858301515b600019600386901b1c1916600185901b17855562000770565b600085815260208120601f198616915b828110156200081657888601518255948401946001909101908401620007f5565b5085821015620008355787850151600019600388901b60f8161c191681555b5050505050600190811b01905550565b6000602082840312156200085857600080fd5b81516200086581620004db565b9392505050565b60008251620008808184602087016200058a565b9190910192915050565b6000602082840312156200089d57600080fd5b5051919050565b60805160a05160c051615d6c620009e56000396000610d2301526000818161042b0152818161096f015281816109c001528181610f4901528181610fce0152818161155301528181611bf501528181611f4f01528181612c0f01528181613ace0152613b8001526000818161080e01528181610b0501528181610c9d01528181610d56015281816111db01528181611205015281816113d40152818161147e0152818161171b015281816117aa015281816118370152818161186101528181611935015281816119c501528181611a4401528181611dbd015281816121300152818161216b0152818161220c015281816122eb0152818161235c015281816124ab015281816129b101528181612a2901528181612b1a0152818161304a015281816131860152818161343e015281816135a201526135de0152615d6c6000f3fe608060405234801561001057600080fd5b50600436106103275760003560e01c806380f55605116101b8578063ba08765211610104578063d6bda0c0116100a2578063dd62ed3e1161007c578063dd62ed3e14610785578063ef8b30f7146107be578063f2fde38b146107d1578063fbcc6f5e146107e457600080fd5b8063d6bda0c01461074c578063d8dfeb451461075f578063d905777e1461077257600080fd5b8063c28e8962116100de578063c28e8962146106ec578063c63d75b61461044f578063c6e6f59214610726578063ce96cb771461073957600080fd5b8063ba087652146106b3578063bcbaf487146106c6578063c04f31ff146106d957600080fd5b806394bf804d11610171578063b03afd471161014b578063b03afd471461065a578063b168c58f1461067a578063b3d7f6b91461068d578063b460af94146106a057600080fd5b806394bf804d1461062c57806395d89b411461063f578063a9059cbb1461064757600080fd5b806380f556051461056c57806381cdde9b1461057f578063869e50c7146105925780638da5cb5b1461059a5780638e9ce760146105ab5780638f770ad01461062357600080fd5b806343935d6411610277578063679aefce11610230578063715018a61161020a578063715018a61461051e578063715e0e4e1461052657806373b4086b146105395780637dc0d1d01461055957600080fd5b8063679aefce146104da5780636e553f65146104e257806370a08231146104f557600080fd5b806343935d64146104645780634b3d1223146104775780634cdad506146104985780634d378d6b146104ab5780635a7872eb146104be57806362965d8e146104d157600080fd5b80630bece79c116102e4578063313ce567116102be578063313ce567146103fc57806331433d511461041657806338d52e0f14610429578063402d267d1461044f57600080fd5b80630bece79c146103b657806318160ddd146103e157806323b872dd146103e957600080fd5b806301e1d1141461032c578063052697cc1461034357806306fdde031461035857806307a2d13a1461036d578063095ea7b3146103805780630a28a477146103a3575b600080fd5b6008545b6040519081526020015b60405180910390f35b6103566103513660046152f3565b610804565b005b610360610b98565b60405161033a9190615384565b61033061037b366004615397565b610c2a565b61039361038e3660046153b0565b610c60565b604051901515815260200161033a565b6103306103b1366004615397565b610c84565b6016546103c9906001600160a01b031681565b6040516001600160a01b03909116815260200161033a565b600454610330565b6103936103f73660046152f3565b610c91565b610404610d1b565b60405160ff909116815260200161033a565b6103566104243660046153dc565b610d4c565b7f00000000000000000000000000000000000000000000000000000000000000006103c9565b61033061045d36600461541d565b5060001990565b61033061047236600461543a565b61119b565b61047f6111ce565b6040516001600160e01b0319909116815260200161033a565b6103306104a6366004615397565b611350565b6103306104b936600461543a565b61135d565b6103306104cc36600461543a565b6113a9565b61033060135481565b61012c610330565b6103306104f036600461545c565b6113c8565b61033061050336600461541d565b6001600160a01b031660009081526002602052604090205490565b610356611460565b6103566105343660046153b0565b611474565b61033061054736600461541d565b600c6020526000908152604090205481565b6014546103c9906001600160a01b031681565b6017546103c9906001600160a01b031681565b61033061058d366004615397565b6116b3565b6103566116d0565b6007546001600160a01b03166103c9565b6106086105b93660046153b0565b6001600160a01b0382166000908152600b602090815260408083208484528252918290208251606081018452815480825260018301549382018490526002909201549301839052919250925092565b6040805193845260208401929092529082015260600161033a565b61033060095481565b61033061063a36600461545c565b61170f565b61036061178f565b6103936106553660046153b0565b61179e565b61033061066836600461541d565b600d6020526000908152604090205481565b61047f61068836600461548c565b61182a565b61033061069b366004615397565b61191c565b6103306106ae366004615514565b611929565b6103306106c1366004615514565b6119b9565b6103566106d43660046153b0565b611a3a565b6103566106e73660046153b0565b611d1a565b6106086106fa3660046153b0565b600b60209081526000928352604080842090915290825290208054600182015460029092015490919083565b610330610734366004615397565b611d61565b61033061074736600461541d565b611d8f565b61035661075a366004615556565b611db3565b6015546103c9906001600160a01b031681565b61033061078036600461541d565b6120b4565b610330610793366004615584565b6001600160a01b03918216600090815260036020908152604080832093909416825291909152205490565b6103306107cc366004615397565b6120d2565b6103566107df36600461541d565b6120df565b6103306107f236600461541d565b600e6020526000908152604090205481565b6001600160a01b037f0000000000000000000000000000000000000000000000000000000000000000163303610aeb576001600054146108575760405163558a1e0360e11b815260040160405180910390fd5b60026000908155610866612122565b905061087061229e565b610879836122c9565b6001600160a01b038086166000908152600b60209081526040808320878452825291829020825160608101845281548082526001830154938201939093526002909101549281019290925260165493965090926108db92169087903090612358565b6108e48561248c565b6016548151604051632d182be560e21b81526004810191909152306024820181905260448201526001600160a01b039091169063b460af94906064016020604051808303816000875af115801561093f573d6000803e3d6000fd5b505050506040513d601f19601f8201168201806040525081019061096391906155b2565b508051600090610993907f0000000000000000000000000000000000000000000000000000000000000000612504565b90508160200151811115610abc5760008260200151826109b391906155e1565b905080156109e6576109e67f000000000000000000000000000000000000000000000000000000000000000087836128e1565b6109f4878460200151612940565b826020015160086000828254610a0a91906155f4565b909155505082516001600160a01b0388166000908152600d602052604081208054909190610a399084906155e1565b9091555050825160108054600090610a529084906155e1565b90915550506001600160a01b0387166000908152600c60205260408120805460019290610a809084906155e1565b9091555050506001600160a01b0386166000908152600b6020908152604080832087845290915281208181556001810182905560020155610ad5565b60405163da6e545760e01b815260040160405180910390fd5b610ade836129a1565b5050600160005550505050565b604051631f8b521560e01b81526000906001600160a01b037f00000000000000000000000000000000000000000000000000000000000000001690631f8b521590610b429030903390869081903690600401615607565b6000604051808303816000875af1158015610b61573d6000803e3d6000fd5b505050506040513d6000823e601f3d908101601f19168201604052610b89919081019061569b565b9050805181602001f35b505050565b606060058054610ba79061573d565b80601f0160208091040260200160405190810160405280929190818152602001828054610bd39061573d565b8015610c205780601f10610bf557610100808354040283529160200191610c20565b820191906000526020600020905b815481529060010190602001808311610c0357829003601f168201915b5050505050905090565b6000600160005414610c4f5760405163558a1e0360e11b815260040160405180910390fd5b610c5882611350565b90505b919050565b600080610c6b612a58565b9050610c78818585612a62565b60019150505b92915050565b6000610c58826001612a6f565b60006001600160a01b037f0000000000000000000000000000000000000000000000000000000000000000163303610aeb57600160005414610ce65760405163558a1e0360e11b815260040160405180910390fd5b6002600055610cf361229e565b6000610d00858585612ac2565b9050610d0b856129a1565b90505b60016000555b9392505050565b6000610d47817f0000000000000000000000000000000000000000000000000000000000000000615771565b905090565b6001600160a01b037f0000000000000000000000000000000000000000000000000000000000000000163303610aeb57600160005414610d9f5760405163558a1e0360e11b815260040160405180910390fd5b60026000908155610dae612122565b9050610dba8230612af0565b610dd7576040516359cf0f3760e11b815260040160405180910390fd5b610ddf61229e565b62015180841015610e035760405163352885c360e21b815260040160405180910390fd5b601560009054906101000a90046001600160a01b03166001600160a01b0316632f13b60c6040518163ffffffff1660e01b8152600401602060405180830381865afa158015610e56573d6000803e3d6000fd5b505050506040513d601f19601f82011682018060405250810190610e7a919061579a565b15610e985760405163144c7e8b60e01b815260040160405180910390fd5b610ea1826122c9565b91506000601460009054906101000a90046001600160a01b03166001600160a01b031663bc3ff1dc6040518163ffffffff1660e01b8152600401602060405180830381865afa158015610ef8573d6000803e3d6000fd5b505050506040513d601f19601f82011682018060405250810190610f1c91906155b2565b90506000670de0b6b3a7640000610f3388846157b5565b610f3d91906157e2565b90506000610f6d8289887f0000000000000000000000000000000000000000000000000000000000000000612b87565b90506000610f91670de0b6b3a7640000610f8786856157b5565b61058d91906157e2565b90506000610fbb670de0b6b3a7640000610fab87866157b5565b610fb591906157e2565b8a61135d565b9050610fc98684848c612e01565b610ffe7f00000000000000000000000000000000000000000000000000000000000000008730610ff985896155e1565b612eeb565b6015546040516370a0823160e01b8152306004820152611071916001600160a01b0316906370a0823190602401602060405180830381865afa158015611048573d6000803e3d6000fd5b505050506040513d601f19601f8201168201806040525081019061106c91906155b2565b612f24565b60155460165460405163095ea7b360e01b81526001600160a01b0391821660048201526024810186905291169063095ea7b3906044016020604051808303816000875af11580156110c6573d6000803e3d6000fd5b505050506040513d601f19601f820116820180604052508101906110ea919061579a565b50601654604051636e553f6560e01b8152600481018590526001600160a01b03898116602483015290911690636e553f65906044016020604051808303816000875af115801561113e573d6000803e3d6000fd5b505050506040513d601f19601f8201168201806040525081019061116291906155b2565b50806008600082825461117591906155e1565b909155506111849050866129a1565b505060016000555061119592505050565b50505050565b6000601254620151806111ae91906157b5565b6111ba8361012c6157b5565b6111c490856157b5565b610d1491906157e2565b6000336001600160a01b037f00000000000000000000000000000000000000000000000000000000000000001614158061128757507f00000000000000000000000000000000000000000000000000000000000000006001600160a01b031663e21e537c6040518163ffffffff1660e01b8152600401602060405180830381865afa158015611261573d6000803e3d6000fd5b505050506040513d601f19601f82011682018060405250810190611285919061579a565b155b156112a55760405163ea8e4eb560e01b815260040160405180910390fd5b611338600180546112b59061573d565b80601f01602080910402602001604051908101604052809291908181526020018280546112e19061573d565b801561132e5780601f106113035761010080835404028352916020019161132e565b820191906000526020600020905b81548152906001019060200180831161131157829003601f168201915b5050505050612f69565b61134460016000615294565b50634b3d122360e01b90565b6000610c58826000612fe1565b60006012546201518061137091906157b5565b61137c8361012c6157b5565b60125461138c90620151806157b5565b61139691906155e1565b61139f856116b3565b6111c491906157b5565b60006113b5838361135d565b6113be846116b3565b610d1491906155e1565b60006001600160a01b037f0000000000000000000000000000000000000000000000000000000000000000163303610aeb5760016000541461141d5760405163558a1e0360e11b815260040160405180910390fd5b600260005561142a61229e565b6114348383613023565b9050826008600082825461144891906155f4565b909155506114569050613048565b6001600055610c7e565b6114686130b7565b6114726000613115565b565b6001600160a01b037f0000000000000000000000000000000000000000000000000000000000000000163303610aeb576001600054146114c75760405163558a1e0360e11b815260040160405180910390fd5b600260009081556114d6612122565b90506114e28330612af0565b6114ff576040516359cf0f3760e11b815260040160405180910390fd5b6001600160a01b0383166000908152600b60209081526040808320858452825291829020825160608101845281548152600182015492810192909252600201549181019190915261154e61229e565b61157f7f00000000000000000000000000000000000000000000000000000000000000005b83308460200151612eeb565b80602001516008600082825461159591906155f4565b90915550508051601080546000906115ae9084906155e1565b909155505080516001600160a01b0385166000908152600d6020526040812080549091906115dd9084906155e1565b925050819055506115f2848260200151612940565b6001600160a01b0384166000818152600b60209081526040808320878452825280832083815560018082018590556002909101849055938352600c909152812080549091906116429084906155e1565b92505081905550836001600160a01b0316826001600160a01b03167f05f2eeda0e08e4b437f487c8d7d29b14537d15e3488170dc3de5dbdf8dac4684836020015160405161169291815260200190565b60405180910390a36116a460006129a1565b505060016000555050565b5050565b6000601254601354836116c691906157b5565b610c5891906157e2565b6001600054146116f35760405163558a1e0360e11b815260040160405180910390fd5b6002600055611708611703612a58565b613167565b6001600055565b60006001600160a01b037f0000000000000000000000000000000000000000000000000000000000000000163303610aeb576001600054146117645760405163558a1e0360e11b815260040160405180910390fd5b600260005561177161229e565b61177b83836131b5565b9050806008600082825461144891906155f4565b606060068054610ba79061573d565b60006001600160a01b037f0000000000000000000000000000000000000000000000000000000000000000163303610aeb576001600054146117f35760405163558a1e0360e11b815260040160405180910390fd5b600260005561180061229e565b600061180c84846131da565b905061181e611819612a58565b6129a1565b90506001600055610c7e565b6000336001600160a01b037f0000000000000000000000000000000000000000000000000000000000000000161415806118e357507f00000000000000000000000000000000000000000000000000000000000000006001600160a01b031663e21e537c6040518163ffffffff1660e01b8152600401602060405180830381865afa1580156118bd573d6000803e3d6000fd5b505050506040513d601f19601f820116820180604052508101906118e1919061579a565b155b156119015760405163ea8e4eb560e01b815260040160405180910390fd5b61190c8484846131f2565b5063b168c58f60e01b9392505050565b6000610c58826001612fe1565b60006001600160a01b037f0000000000000000000000000000000000000000000000000000000000000000163303610aeb5760016000541461197e5760405163558a1e0360e11b815260040160405180910390fd5b600260005561198b61229e565b611996848484613367565b905083600860008282546119aa91906155e1565b90915550610d0e9050826129a1565b60006001600160a01b037f0000000000000000000000000000000000000000000000000000000000000000163303610aeb57600160005414611a0e5760405163558a1e0360e11b815260040160405180910390fd5b6002600055611a1b61229e565b611a268484846133c6565b905080600860008282546119aa91906155e1565b6001600160a01b037f0000000000000000000000000000000000000000000000000000000000000000163303610aeb57600160005414611a8d5760405163558a1e0360e11b815260040160405180910390fd5b60026000908155611a9c612122565b9050601560009054906101000a90046001600160a01b03166001600160a01b0316632f13b60c6040518163ffffffff1660e01b8152600401602060405180830381865afa158015611af1573d6000803e3d6000fd5b505050506040513d601f19601f82011682018060405250810190611b15919061579a565b15611b335760405163144c7e8b60e01b815260040160405180910390fd5b6001600160a01b0383166000908152600b602090815260408083208584528252918290208251606081018452815481526001820154928101929092526002015491810182905290421015611b9a576040516318a2405160e01b815260040160405180910390fd5b611ba38461341c565b15611bc15760405163c9286d5760e01b815260040160405180910390fd5b611bcb8430612af0565b611be8576040516359cf0f3760e11b815260040160405180910390fd5b611bf061229e565b611c197f0000000000000000000000000000000000000000000000000000000000000000611573565b6016548151611c35916001600160a01b03169086908590612358565b611c3e8461248c565b805160108054600090611c529084906155e1565b9091555050602081015160088054600090611c6e9084906155f4565b909155505080516001600160a01b0385166000908152600d602052604081208054909190611c9d9084906155e1565b92505081905550611cb2848260200151612940565b6001600160a01b0384166000908152600c60205260408120805460019290611cdb9084906155e1565b90915550506001600160a01b0384166000908152600b60209081526040808320868452909152812081815560018101829055600201556116a4826129a1565b611d226130b7565b601154811115611d45576040516302f22cad60e61b815260040160405180910390fd5b6001600160a01b039091166000908152600e6020526040902055565b6000600160005414611d865760405163558a1e0360e11b815260040160405180910390fd5b610c58826120d2565b6001600160a01b038116600090815260026020526040812054610c58906000612fe1565b6001600160a01b037f0000000000000000000000000000000000000000000000000000000000000000163303610aeb57600160005414611e065760405163558a1e0360e11b815260040160405180910390fd5b60026000908155611e15612122565b9050611e1f61229e565b601560009054906101000a90046001600160a01b03166001600160a01b0316632f13b60c6040518163ffffffff1660e01b8152600401602060405180830381865afa158015611e72573d6000803e3d6000fd5b505050506040513d601f19601f82011682018060405250810190611e96919061579a565b15611eb45760405163144c7e8b60e01b815260040160405180910390fd5b83600003611ed557604051631d92ba9f60e11b815260040160405180910390fd5b62015180831015611ef95760405163352885c360e21b815260040160405180910390fd5b611f02826122c9565b91506000611f10858561119b565b611f1a90866155f4565b9050611f4a6040518060400160405280600c81526020016b03637b0b720b6b7bab73a1d160a51b815250826134ab565b611f757f000000000000000000000000000000000000000000000000000000000000000084876128e1565b600060135460125483611f8891906157b5565b611f9291906157e2565b90506000601460009054906101000a90046001600160a01b03166001600160a01b031663bc3ff1dc6040518163ffffffff1660e01b8152600401602060405180830381865afa158015611fe9573d6000803e3d6000fd5b505050506040513d601f19601f8201168201806040525081019061200d91906155b2565b61201f83670de0b6b3a76400006157b5565b61202991906157e2565b905061203784828589612e01565b846001600160a01b0316846001600160a01b03167f312a5e5e1079f5dda4e95dbbd0b908b291fd5b992ef22073643ab691572c5b528560405161207c91815260200190565b60405180910390a3866008600082825461209691906155e1565b909155506120a59050846129a1565b5050600160005550610b939050565b6001600160a01b038116600090815260026020526040812054610c58565b6000610c58826000612a6f565b6120e76130b7565b6001600160a01b03811661211657604051631e4fbdf760e01b8152600060048201526024015b60405180910390fd5b61211f81613115565b50565b600033816001600160a01b037f00000000000000000000000000000000000000000000000000000000000000001682036121e757604051630c281d0f60e11b81523060048201527f00000000000000000000000000000000000000000000000000000000000000006001600160a01b0316906318503a1e906024016040805180830381865afa1580156121b9573d6000803e3d6000fd5b505050506040513d601f19601f820116820180604052508101906121dd9190615801565b909250905061227a565b6040516311f3f6b160e21b81526001600160a01b0383811660048301523060248301527f000000000000000000000000000000000000000000000000000000000000000016906347cfdac490604401602060405180830381865afa158015612253573d6000803e3d6000fd5b505050506040513d601f19601f82011682018060405250810190612277919061579a565b90505b80612298576040516359cf0f3760e11b815260040160405180910390fd5b50919050565b600180546122ab9061573d565b9050600003611472576122bc6134f0565b60019061211f9082615884565b60405163110ac5cb60e21b81526001600160a01b0382811660048301526000917f00000000000000000000000000000000000000000000000000000000000000009091169063442b172c90602401602060405180830381865afa925050508015612350575060408051601f3d908101601f1916820190925261234d91810190615944565b60015b610c58575090565b60007f00000000000000000000000000000000000000000000000000000000000000006001600160a01b031663b9b70ff58686600087876040516024016123b49291906001600160a01b03929092168252602082015260400190565b60408051601f198184030181529181526020820180516001600160e01b031663a9059cbb60e01b1790525160e086901b6001600160e01b03191681526124009493929190600401615961565b6000604051808303816000875af115801561241f573d6000803e3d6000fd5b505050506040513d6000823e601f3d908101601f19168201604052612447919081019061569b565b9050805160001480612468575080806020019051810190612468919061579a565b61248557604051631aa7c25160e21b815260040160405180910390fd5b5050505050565b604051630214ea3360e31b81526001600160a01b0382811660048301527f000000000000000000000000000000000000000000000000000000000000000016906310a75198906024015b600060405180830381600087803b1580156124f057600080fd5b505af1158015612485573d6000803e3d6000fd5b600080600080601760009054906101000a90046001600160a01b03166001600160a01b0316632c8ce6bc6040518163ffffffff1660e01b8152600401606060405180830381865afa15801561255d573d6000803e3d6000fd5b505050506040513d601f19601f820116820180604052508101906125819190615994565b92509250925060008061259388612f24565b836001600160a01b0316632f13b60c6040518163ffffffff1660e01b8152600401602060405180830381865afa1580156125d1573d6000803e3d6000fd5b505050506040513d601f19601f820116820180604052508101906125f5919061579a565b156126e15760405163a9059cbb60e01b81526001600160a01b038481166004830152602482018a905285169063a9059cbb906044016020604051808303816000875af1158015612649573d6000803e3d6000fd5b505050506040513d601f19601f8201168201806040525081019061266d919061579a565b5060405163bcb7ea5d60e01b81526001600160a01b03868116600483015284169063bcb7ea5d906024016020604051808303816000875af11580156126b6573d6000803e3d6000fd5b505050506040513d601f19601f820116820180604052508101906126da91906155b2565b915061284e565b60175460405163a9059cbb60e01b81526001600160a01b039182166004820152602481018a90529085169063a9059cbb906044016020604051808303816000875af1158015612734573d6000803e3d6000fd5b505050506040513d601f19601f82011682018060405250810190612758919061579a565b50601754604080516000815260208101918290526329910b1160e01b9091526001600160a01b03909116906329910b119061279a9088908c90602481016159d6565b60408051808303816000875af11580156127b8573d6000803e3d6000fd5b505050506040513d601f19601f820116820180604052508101906127dc91906159fd565b60408051808201909152601b81527f6e657453794f757420636c6f736520706f736974696f6e3a20257300000000006020820152919350915061281f90836134ab565b61284e6040518060400160405280600d81526020016c636c6f7365206665653a20257360981b815250826134ab565b60405163769f8e5d60e01b8152306004820152602481018390526001600160a01b038881166044830152600160648301819052608483015286169063769f8e5d9060a4016020604051808303816000875af11580156128b1573d6000803e3d6000fd5b505050506040513d601f19601f820116820180604052508101906128d591906155b2565b98975050505050505050565b6040516001600160a01b03838116602483015260448201839052610b9391859182169063a9059cbb906064015b604051602081830303815290604052915060e01b6020820180516001600160e01b038381831617835250505050613532565b80612960836001600160a01b03166000908152600a602052604090205490565b61296a91906155e1565b6001600160a01b0383166000908152600a6020526040812091909155600f80548392906129989084906155e1565b90915550505050565b6001600160a01b038116612a0a577f00000000000000000000000000000000000000000000000000000000000000006001600160a01b031663a37d54af6040518163ffffffff1660e01b8152600401600060405180830381600087803b1580156124f057600080fd5b6040516330f3166760e01b81526001600160a01b0382811660048301527f000000000000000000000000000000000000000000000000000000000000000016906330f31667906024016124d6565b6000610d47613595565b610b938383836001613657565b600080600f54612a7e60085490565b612a8891906155f4565b9050612aba612a996000600a615b05565b600454612aa691906155f4565b612ab18360016155f4565b8691908661372c565b949350505050565b600080612acd612a58565b9050612ada85828561377b565b612ae58585856137e0565b506001949350505050565b6040516311f3f6b160e21b81526001600160a01b03838116600483015282811660248301526000917f0000000000000000000000000000000000000000000000000000000000000000909116906347cfdac490604401602060405180830381865afa158015612b63573d6000803e3d6000fd5b505050506040513d601f19601f82011682018060405250810190610d14919061579a565b600080600080601760009054906101000a90046001600160a01b03166001600160a01b0316632c8ce6bc6040518163ffffffff1660e01b8152600401606060405180830381865afa158015612be0573d6000803e3d6000fd5b505050506040513d601f19601f82011682018060405250810190612c049190615994565b925092509250612c317f000000000000000000000000000000000000000000000000000000000000000090565b60405163095ea7b360e01b81526001600160a01b038581166004830152602482018b9052919091169063095ea7b3906044016020604051808303816000875af1158015612c82573d6000803e3d6000fd5b505050506040513d601f19601f82011682018060405250810190612ca6919061579a565b506040516320e8c56560e01b81523060048201526001600160a01b038681166024830152604482018a905260016064830152600091908516906320e8c565906084016020604051808303816000875af1158015612d07573d6000803e3d6000fd5b505050506040513d601f19601f82011682018060405250810190612d2b91906155b2565b60175460405163095ea7b360e01b81526001600160a01b0391821660048201526024810183905291925085169063095ea7b3906044016020604051808303816000875af1158015612d80573d6000803e3d6000fd5b505050506040513d601f19601f82011682018060405250810190612da4919061579a565b50612db130828a8a61383f565b5080955050612df56040518060400160405280601781526020017f737761704578616374546f6b656e466f7250743a202573000000000000000000815250866134ab565b50505050949350505050565b612e0b8483613a50565b6001600160a01b0384166000908152600d602052604081208054859290612e339084906155f4565b90915550506001600160a01b0384166000908152600c60205260408120805460019290612e619084906155f4565b90915550506040805160608101825284815260208101849052908101612e8783426155f4565b90526001600160a01b0385166000908152600b60209081526040808320600c8352818420548452825280832084518155918401516001830155929092015160029092019190915560108054859290612ee09084906155f4565b909155505050505050565b6040516001600160a01b0384811660248301528381166044830152606482018390526111959186918216906323b872dd9060840161290e565b61211f81604051602401612f3a91815260200190565b60408051601f198184030181529190526020810180516001600160e01b031663f5b1bba960e01b179052613aa8565b8051600003612f8b576040516332e17beb60e21b815260040160405180910390fd5b600080600083806020019051810190612fa49190615b14565b600854600f546010549497509295509093509180821115612fd85760405163e400f71160e01b815260040160405180910390fd5b50505050505050565b600080600f54612ff060085490565b612ffa91906155f4565b9050612aba61300a8260016155f4565b6130166000600a615b05565b600454612ab191906155f4565b60006000196000613033856120d2565b9050612aba613040612a58565b858784613ac9565b7f00000000000000000000000000000000000000000000000000000000000000006001600160a01b031663a37d54af6040518163ffffffff1660e01b8152600401600060405180830381600087803b1580156130a357600080fd5b505af1158015611195573d6000803e3d6000fd5b6130bf612a58565b6001600160a01b03166130da6007546001600160a01b031690565b6001600160a01b031614611472576130f0612a58565b60405163118cdaa760e01b81526001600160a01b03909116600482015260240161210d565b600780546001600160a01b038381166001600160a01b0319831681179093556040519116919082907f8be0079c531659141344cd1fd0a4f28419497f9722a3daafe3b4186f6b6457e090600090a35050565b604051630f4fc35760e41b81526001600160a01b0382811660048301527f0000000000000000000000000000000000000000000000000000000000000000169063f4fc3570906024016124d6565b600060001960006131c58561191c565b9050612aba6131d2612a58565b858388613ac9565b6000806131e5612a58565b9050610c788185856137e0565b6016546040516370a0823160e01b81526001600160a01b03858116600483015260009216906370a0823190602401602060405180830381865afa15801561323d573d6000803e3d6000fd5b505050506040513d601f19601f8201168201806040525081019061326191906155b2565b905060006132f2670de0b6b3a7640000601460009054906101000a90046001600160a01b03166001600160a01b031663bc3ff1dc6040518163ffffffff1660e01b8152600401602060405180830381865afa1580156132c4573d6000803e3d6000fd5b505050506040513d601f19601f820116820180604052508101906132e891906155b2565b610f8790856157b5565b6001600160a01b0386166000908152600a602052604090205490915081101561332e5760405163dc5990cf60e01b815260040160405180910390fd5b6001600160a01b0385166000908152600d60205260409020548210156124855760405163da6e545760e01b815260040160405180910390fd5b60008061337383611d8f565b90508085111561339c57828582604051633fa733bb60e21b815260040161210d93929190615b42565b60006133a786610c84565b90506133bd6133b4612a58565b86868985613b4d565b95945050505050565b6000806133d2836120b4565b9050808511156133fb57828582604051632e52afbb60e21b815260040161210d93929190615b42565b600061340686611350565b90506133bd613413612a58565b8686848a613b4d565b6040516342e5349960e01b81526001600160a01b0382811660048301526000917f0000000000000000000000000000000000000000000000000000000000000000909116906342e5349990602401602060405180830381865afa158015613487573d6000803e3d6000fd5b505050506040513d601f19601f82011682018060405250810190610c58919061579a565b6116af82826040516024016134c1929190615b63565b60408051601f198184030181529190526020810180516001600160e01b03166309710a9d60e41b179052613aa8565b6060600854600f5460105460405160200161351e939291909283526020830191909152604082015260600190565b604051602081830303815290604052905090565b60006135476001600160a01b03841683613c0d565b9050805160001415801561356c57508080602001905181019061356a919061579a565b155b15610b9357604051635274afe760e01b81526001600160a01b038416600482015260240161210d565b6000336001600160a01b037f0000000000000000000000000000000000000000000000000000000000000000168103610c5b57604051630c281d0f60e11b8152600060048201527f00000000000000000000000000000000000000000000000000000000000000006001600160a01b0316906318503a1e906024016040805180830381865afa15801561362c573d6000803e3d6000fd5b505050506040513d601f19601f820116820180604052508101906136509190615801565b5092915050565b6001600160a01b0384166136815760405163e602df0560e01b81526000600482015260240161210d565b6001600160a01b0383166136ab57604051634a1406b160e11b81526000600482015260240161210d565b6001600160a01b038085166000908152600360209081526040808320938716835292905220829055801561119557826001600160a01b0316846001600160a01b03167f8c5be1e5ebec7d5bd14f71427d1e84f3dd0314c0f7b2291e5b200ac8c7c3b9258460405161371e91815260200190565b60405180910390a350505050565b60008061373a868686613c1b565b905061374583613cdf565b801561376157506000848061375c5761375c6157cc565b868809115b156133bd576137716001826155f4565b9695505050505050565b6001600160a01b03838116600090815260036020908152604080832093861683529290522054600019811461119557818110156137d157828183604051637dc7a0d960e11b815260040161210d93929190615b42565b61119584848484036000613657565b6001600160a01b03831661380a57604051634b637e8f60e11b81526000600482015260240161210d565b6001600160a01b0382166138345760405163ec442f0560e01b81526000600482015260240161210d565b610b93838383613d0c565b6000806000806000601760009054906101000a90046001600160a01b03166001600160a01b0316632c8ce6bc6040518163ffffffff1660e01b8152600401606060405180830381865afa15801561389a573d6000803e3d6000fd5b505050506040513d601f19601f820116820180604052508101906138be9190615994565b9250925092506139816138d9826001600160a01b0316613e23565b6040805160a081018252898152602081018b9052600081830152600a606082015266038d7ea4c680006080820152601754915163794052f360e01b81523060048201528c924292916001600160a01b039091169063794052f39060240161012060405180830381865afa158015613954573d6000803e3d6000fd5b505050506040513d601f19601f820116820180604052508101906139789190615b85565b93929190613e89565b9095509350858510156139a757604051636919632360e11b815260040160405180910390fd5b6017546139bf9084906001600160a01b03168a6128e1565b60175460408051600081526020810191829052635b709f1760e01b9091526001600160a01b0390911690635b709f1790613a009030908990602481016159d6565b60408051808303816000875af1158015613a1e573d6000803e3d6000fd5b505050506040513d601f19601f82011682018060405250810190613a4291906159fd565b505050505094509492505050565b80613a70836001600160a01b03166000908152600a602052604090205490565b613a7a91906155f4565b6001600160a01b0383166000908152600a6020526040812091909155600f80548392906129989084906155f4565b80516a636f6e736f6c652e6c6f67602083016000808483855afa5050505050565b613af57f0000000000000000000000000000000000000000000000000000000000000000853085612eeb565b613aff8382613f7b565b826001600160a01b0316846001600160a01b03167fdcbc1c05240f31ff3ad067ef1ee35ce4997762752e3a095284754544f4c709d7848460405161371e929190918252602082015260400190565b826001600160a01b0316856001600160a01b031614613b7157613b7183868361377b565b613b7b8382613fb1565b613ba67f000000000000000000000000000000000000000000000000000000000000000085846128e1565b826001600160a01b0316846001600160a01b0316866001600160a01b03167ffbde797d201c681b91056529119e0b02407c7bb96a4a2c75c01fc9667232c8db8585604051613bfe929190918252602082015260400190565b60405180910390a45050505050565b6060610d1483836000613fe7565b6000838302816000198587098281108382030391505080600003613c5257838281613c4857613c486157cc565b0492505050610d14565b808411613c725760405163227bc15360e01b815260040160405180910390fd5b6000848688096000868103871696879004966002600389028118808a02820302808a02820302808a02820302808a02820302808a02820302808a02909103029181900381900460010186841190950394909402919094039290920491909117919091029150509392505050565b60006002826003811115613cf557613cf5615c07565b613cff9190615c1d565b60ff166001149050919050565b6001600160a01b038316613d37578060046000828254613d2c91906155f4565b90915550613d969050565b6001600160a01b03831660009081526002602052604090205481811015613d775783818360405163391434e360e21b815260040161210d93929190615b42565b6001600160a01b03841660009081526002602052604090209082900390555b6001600160a01b038216613db257600480548290039055613dd1565b6001600160a01b03821660009081526002602052604090208054820190555b816001600160a01b0316836001600160a01b03167fddf252ad1be2c89b69c2b068fc378daa952ba7f163c4a11628f55a4df523b3ef83604051613e1691815260200190565b60405180910390a3505050565b6000816001600160a01b0316631d52edc46040518163ffffffff1660e01b81526004016020604051808303816000875af1158015613e65573d6000803e3d6000fd5b505050506040513d601f19601f82011682018060405250810190610c5891906155b2565b60008080613e9888888761407a565b90508360400151600003613ecf57613ec18460200151613ebc838b6000015161417b565b61421a565b6020850152613ecf84614230565b60005b8460600151811015613f57576000613eea8683614289565b9050600080613efb8c868d866142f5565b5091509150898211613f3257613f16828b8a60800151614327565b15613f2a57919550909350613f7192505050565b828852613f43565b613f3d6001846155e1565b60208901525b50505080613f5090615c3f565b9050613ed2565b50604051637d388ed960e11b815260040160405180910390fd5b9550959350505050565b6001600160a01b038216613fa55760405163ec442f0560e01b81526000600482015260240161210d565b6116af60008383613d0c565b6001600160a01b038216613fdb57604051634b637e8f60e11b81526000600482015260240161210d565b6116af82600083613d0c565b60608147101561400c5760405163cd78605960e01b815230600482015260240161210d565b600080856001600160a01b031684866040516140289190615c58565b60006040518083038185875af1925050503d8060008114614065576040519150601f19603f3d011682016040523d82523d6000602084013e61406a565b606091505b509150915061377186838361435a565b6140a56040518060800160405280600081526020016000815260200160008152602001600081525090565b60a084015182106140c95760405163b2094b5960e01b815260040160405180910390fd5b6000828560a001516140db91906155e1565b90506140e785826143b6565b825260208501516140f9908590614417565b60208301528451158061410e57506020820151155b1561413c578451602083015160405163b1c4aefb60e01b81526004810192909252602482015260440161210d565b61415a8560000151866101000151846020015185600001518561444e565b604083015260c085015161416e90826144cf565b6060830152509392505050565b6000806141a86141a385600001518660400151876060015161419d9190615c74565b90614503565b614526565b905060006141c86141c1670de0b6b3a764000084615c94565b839061493d565b905060006141e68660200151866141df9190615c94565b8390614503565b905060006141f48287615c74565b90506103e8614205826103e76157b5565b61420f91906157e2565b979650505050505050565b60008183106142295781610d14565b5090919050565b60208101518151118061424e5750670de0b6b3a76400008160800151115b1561211f57805160208201516080830151604051632cc06bc160e21b815260048101939093526024830191909152604482015260640161210d565b60008115801561429c5750604083015115155b156142ac57506040820151610c7e565b60208301518351116142dc57602083015183516002916142cb916155f4565b6142d591906157e2565b9050610c7e565b604051637d388ed960e11b815260040160405180910390fd5b600080808080806143088a8a8a8a614963565b9250925092508261431890615cbc565b9a919950975095505050505050565b6000828411158015612aba575061434f8361434a84670de0b6b3a76400006155e1565b614ab7565b841015949350505050565b60608261436f5761436a82614ad7565b610d14565b815115801561438657506001600160a01b0384163b155b156143af57604051639996b31560e01b81526001600160a01b038516600482015260240161210d565b5080610d14565b60006143c182614b00565b6143d86143d36201518061016d6157b5565b614b00565b84608001516143e79190615cd8565b6143f19190615d08565b905060008113610c7e57604051630e520c3b60e11b81526004810182905260240161210d565b6000806000831261442957600161442d565b6000195b90506144446143d38561443f86614b1a565b614b31565b612aba9082615cd8565b60008061445b86846144cf565b9050670de0b6b3a76400008112156144895760405163329e322960e21b81526004810182905260240161210d565b600061449f614498878a615c94565b899061493d565b905060006144ac82614b46565b90506144b8818761493d565b6144c29084615c74565b9998505050505050505050565b6000806144e16201518061016d6157b5565b6144eb84866157b5565b6144f591906157e2565b9050612aba6141a382614b00565b6000806145108385615cd8565b9050670de0b6b3a7640000815b05949350505050565b6000680238fd42c5cf03ffff19821215801561454b575068070c1cc73b00c800008213155b61458a5760405162461bcd60e51b815260206004820152601060248201526f125b9d985b1a5908195e1c1bdb995b9d60821b604482015260640161210d565b60008212156145c25761459f82600003614526565b6a0c097ce7bc90715b34b9f160241b816145bb576145bb6157cc565b0592915050565b60006806f05b59d3b2000000831261460257506806f05b59d3b1ffffff1990910190770195e54c5dd42177f53a27172fa9ec630262827000000000614638565b6803782dace9d9000000831261463457506803782dace9d8ffffff19909101906b1425982cf597cd205cef7380614638565b5060015b6064929092029168056bc75e2d6310000068ad78ebc5ac6200000084126146885768ad78ebc5ac61ffffff199093019268056bc75e2d631000006e01855144814a7ff805980ff008400082020590505b6856bc75e2d63100000084126146c4576856bc75e2d630ffffff199093019268056bc75e2d631000006b02df0ab5a80a22c61ab5a70082020590505b682b5e3af16b1880000084126146fe57682b5e3af16b187fffff199093019268056bc75e2d63100000693f1fce3da636ea5cf85082020590505b6815af1d78b58c4000008412614738576815af1d78b58c3fffff199093019268056bc75e2d63100000690127fa27722cc06cc5e282020590505b680ad78ebc5ac6200000841261477157680ad78ebc5ac61fffff199093019268056bc75e2d6310000068280e60114edb805d0382020590505b68056bc75e2d6310000084126147aa5768056bc75e2d630fffff199093019268056bc75e2d63100000680ebc5fb4174612111082020590505b6802b5e3af16b188000084126147e3576802b5e3af16b187ffff199093019268056bc75e2d631000006808f00f760a4b2db55d82020590505b68015af1d78b58c40000841261481c5768015af1d78b58c3ffff199093019268056bc75e2d631000006806f5f177578893793782020590505b68056bc75e2d631000008481019085906002908280020505918201919050600368056bc75e2d631000008783020505918201919050600468056bc75e2d631000008783020505918201919050600568056bc75e2d631000008783020505918201919050600668056bc75e2d631000008783020505918201919050600768056bc75e2d631000008783020505918201919050600868056bc75e2d631000008783020505918201919050600968056bc75e2d631000008783020505918201919050600a68056bc75e2d631000008783020505918201919050600b68056bc75e2d631000008783020505918201919050600c68056bc75e2d631000008783020505918201919050606468056bc75e2d63100000848402058502059695505050505050565b600080614952670de0b6b3a764000085615cd8565b905082818161451d5761451d6157cc565b6000806000806149868860000151886020015189600001518a6040015189614b99565b9050600061499c614997878461493d565b614c4f565b60608901519091506000871315614a0b5760006149b9848361493d565b9050670de0b6b3a76400008112156149e75760405163329e322960e21b81526004810182905260240161210d565b614a036149fc83670de0b6b3a7640000615c74565b8490614503565b915050614a38565b614a3581614a2181670de0b6b3a7640000615c74565b614a2b9085615cd8565b6149979190615d08565b90505b60006064614a498c60e00151614b00565b614a539084615cd8565b614a5d9190615d08565b90506000614a6b8385615c74565b905060008112614a8457614a7f8a82614c5d565b614a8e565b614a8e8a82614c8a565b9750614a9a8a84614c5d565b9650614aa68a83614c5d565b955050505050509450945094915050565b600080614ac483856157b5565b670de0b6b3a76400009004949350505050565b805115614ae75780518082602001fd5b604051630a12f52160e11b815260040160405180910390fd5b60006001600160ff1b03821115614b1657600080fd5b5090565b6000808213614b1657614b2c82615cbc565b610c58565b6000670de0b6b3a76400006111c484846157b5565b6000670de0b6b3a76400008203614b705760405163a9c8b14d60e01b815260040160405180910390fd5b6000614b8e614b8784670de0b6b3a7640000615c74565b849061493d565b9050610d1481614cb7565b600080614ba68784614d43565b90506000614bb76141c1888a615c94565b9050670d529ae9e8600000811315614bf357604051637e34684f60e11b815260048101829052670d529ae9e8600000602482015260440161210d565b6000614bfe82614b46565b905085614c0b828961493d565b614c159190615c94565b9350670de0b6b3a7640000841215614c435760405163329e322960e21b81526004810185905260240161210d565b50505095945050505050565b6000610c5882600019615cd8565b60008060008312614c6f576001614c73565b6000195b90506144446143d385614c8586614b1a565b614d8a565b60008060008312614c9c576001614ca0565b6000195b90506144446143d385614cb286614b1a565b614d9f565b6000808213614cf85760405162461bcd60e51b815260206004820152600d60248201526c6f7574206f6620626f756e647360981b604482015260640161210d565b670c7d713b49da000082138015614d165750670f43fc2c04ee000082125b15614d3a57670de0b6b3a7640000614d2d83614dcb565b816145bb576145bb6157cc565b610c5882614eea565b600081831215614d805760405162461bcd60e51b81526020600482015260086024820152676e6567617469766560c01b604482015260640161210d565b610d148284615c74565b6000826111c4670de0b6b3a7640000846157b5565b600082600181614db7670de0b6b3a7640000866157b5565b614dc191906155f4565b6111c491906155e1565b670de0b6b3a7640000026000806a0c097ce7bc90715b34b9f160241b808401906ec097ce7bc90715b34b9f0fffffffff1985010281614e0c57614e0c6157cc565b05905060006a0c097ce7bc90715b34b9f160241b82800205905081806a0c097ce7bc90715b34b9f160241b81840205915060038205016a0c097ce7bc90715b34b9f160241b82840205915060058205016a0c097ce7bc90715b34b9f160241b82840205915060078205016a0c097ce7bc90715b34b9f160241b82840205915060098205016a0c097ce7bc90715b34b9f160241b828402059150600b8205016a0c097ce7bc90715b34b9f160241b828402059150600d8205016a0c097ce7bc90715b34b9f160241b828402059150600f82050160020295945050505050565b6000670de0b6b3a7640000821215614f2b57614f22826a0c097ce7bc90715b34b9f160241b81614f1c57614f1c6157cc565b05614eea565b60000392915050565b60007e1600ef3172e58d2e933ec884fde10064c63b5372d805e203c00000000000008312614f7c57770195e54c5dd42177f53a27172fa9ec630262827000000000830592506806f05b59d3b2000000015b73011798004d755d3c8bc8e03204cf44619e0000008312614fb4576b1425982cf597cd205cef7380830592506803782dace9d9000000015b606492830292026e01855144814a7ff805980ff00840008312614ffc576e01855144814a7ff805980ff008400068056bc75e2d63100000840205925068ad78ebc5ac62000000015b6b02df0ab5a80a22c61ab5a7008312615037576b02df0ab5a80a22c61ab5a70068056bc75e2d6310000084020592506856bc75e2d631000000015b693f1fce3da636ea5cf850831261506e57693f1fce3da636ea5cf85068056bc75e2d631000008402059250682b5e3af16b18800000015b690127fa27722cc06cc5e283126150a557690127fa27722cc06cc5e268056bc75e2d6310000084020592506815af1d78b58c400000015b68280e60114edb805d0383126150da5768280e60114edb805d0368056bc75e2d631000008402059250680ad78ebc5ac6200000015b680ebc5fb41746121110831261510557680ebc5fb4174612111068056bc75e2d631000009384020592015b6808f00f760a4b2db55d831261513a576808f00f760a4b2db55d68056bc75e2d6310000084020592506802b5e3af16b1880000015b6806f5f1775788937937831261516f576806f5f177578893793768056bc75e2d63100000840205925068015af1d78b58c40000015b6806248f33704b28660383126151a3576806248f33704b28660368056bc75e2d63100000840205925067ad78ebc5ac620000015b6805c548670b9510e7ac83126151d7576805c548670b9510e7ac68056bc75e2d6310000084020592506756bc75e2d6310000015b600068056bc75e2d63100000840168056bc75e2d631000008086030281615200576152006157cc565b059050600068056bc75e2d63100000828002059050818068056bc75e2d63100000818402059150600382050168056bc75e2d63100000828402059150600582050168056bc75e2d63100000828402059150600782050168056bc75e2d63100000828402059150600982050168056bc75e2d63100000828402059150600b820501600202606485820105979650505050505050565b5080546152a09061573d565b6000825580601f106152b0575050565b601f01602090049060005260206000209081019061211f91905b80821115614b1657600081556001016152ca565b6001600160a01b038116811461211f57600080fd5b60008060006060848603121561530857600080fd5b8335615313816152de565b92506020840135615323816152de565b929592945050506040919091013590565b60005b8381101561534f578181015183820152602001615337565b50506000910152565b60008151808452615370816020860160208601615334565b601f01601f19169290920160200192915050565b602081526000610d146020830184615358565b6000602082840312156153a957600080fd5b5035919050565b600080604083850312156153c357600080fd5b82356153ce816152de565b946020939093013593505050565b600080600080608085870312156153f257600080fd5b8435935060208501359250604085013591506060850135615412816152de565b939692955090935050565b60006020828403121561542f57600080fd5b8135610d14816152de565b6000806040838503121561544d57600080fd5b50508035926020909101359150565b6000806040838503121561546f57600080fd5b823591506020830135615481816152de565b809150509250929050565b6000806000604084860312156154a157600080fd5b83356154ac816152de565b9250602084013567ffffffffffffffff808211156154c957600080fd5b818601915086601f8301126154dd57600080fd5b8135818111156154ec57600080fd5b8760208260051b850101111561550157600080fd5b6020830194508093505050509250925092565b60008060006060848603121561552957600080fd5b83359250602084013561553b816152de565b9150604084013561554b816152de565b809150509250925092565b60008060006060848603121561556b57600080fd5b8335925060208401359150604084013561554b816152de565b6000806040838503121561559757600080fd5b82356155a2816152de565b91506020830135615481816152de565b6000602082840312156155c457600080fd5b5051919050565b634e487b7160e01b600052601160045260246000fd5b81810381811115610c7e57610c7e6155cb565b80820180821115610c7e57610c7e6155cb565b6001600160a01b038681168252851660208201526040810184905260806060820181905281018290526000828460a0840137600060a0848401015260a0601f19601f85011683010190509695505050505050565b634e487b7160e01b600052604160045260246000fd5b604051610120810167ffffffffffffffff811182821017156156955761569561565b565b60405290565b6000602082840312156156ad57600080fd5b815167ffffffffffffffff808211156156c557600080fd5b818401915084601f8301126156d957600080fd5b8151818111156156eb576156eb61565b565b604051601f8201601f19908116603f011681019083821181831017156157135761571361565b565b8160405282815287602084870101111561572c57600080fd5b61420f836020830160208801615334565b600181811c9082168061575157607f821691505b60208210810361229857634e487b7160e01b600052602260045260246000fd5b60ff8181168382160190811115610c7e57610c7e6155cb565b80518015158114610c5b57600080fd5b6000602082840312156157ac57600080fd5b610d148261578a565b8082028115828204841417610c7e57610c7e6155cb565b634e487b7160e01b600052601260045260246000fd5b6000826157f1576157f16157cc565b500490565b8051610c5b816152de565b6000806040838503121561581457600080fd5b825161581f816152de565b915061582d6020840161578a565b90509250929050565b601f821115610b9357600081815260208120601f850160051c8101602086101561585d5750805b601f850160051c820191505b8181101561587c57828155600101615869565b505050505050565b815167ffffffffffffffff81111561589e5761589e61565b565b6158b2816158ac845461573d565b84615836565b602080601f8311600181146158e757600084156158cf5750858301515b600019600386901b1c1916600185901b17855561587c565b600085815260208120601f198616915b82811015615916578886015182559484019460019091019084016158f7565b50858210156159345787850151600019600388901b60f8161c191681555b5050505050600190811b01905550565b60006020828403121561595657600080fd5b8151610d14816152de565b6001600160a01b038581168252841660208201526040810183905260806060820181905260009061377190830184615358565b6000806000606084860312156159a957600080fd5b83516159b4816152de565b60208501519093506159c5816152de565b604085015190925061554b816152de565b60018060a01b03841681528260208201526060604082015260006133bd6060830184615358565b60008060408385031215615a1057600080fd5b505080516020909101519092909150565b600181815b80851115615a5c578160001904821115615a4257615a426155cb565b80851615615a4f57918102915b93841c9390800290615a26565b509250929050565b600082615a7357506001610c7e565b81615a8057506000610c7e565b8160018114615a965760028114615aa057615abc565b6001915050610c7e565b60ff841115615ab157615ab16155cb565b50506001821b610c7e565b5060208310610133831016604e8410600b8410161715615adf575081810a610c7e565b615ae98383615a21565b8060001904821115615afd57615afd6155cb565b029392505050565b6000610d1460ff841683615a64565b600080600060608486031215615b2957600080fd5b8351925060208401519150604084015190509250925092565b6001600160a01b039390931683526020830191909152604082015260600190565b604081526000615b766040830185615358565b90508260208301529392505050565b60006101208284031215615b9857600080fd5b615ba0615671565b825181526020830151602082015260408301516040820152615bc4606084016157f6565b60608201526080830151608082015260a083015160a082015260c083015160c082015260e083015160e08201526101008084015181830152508091505092915050565b634e487b7160e01b600052602160045260246000fd5b600060ff831680615c3057615c306157cc565b8060ff84160691505092915050565b600060018201615c5157615c516155cb565b5060010190565b60008251615c6a818460208701615334565b9190910192915050565b8181036000831280158383131683831282161715613650576136506155cb565b8082018281126000831280158216821582161715615cb457615cb46155cb565b505092915050565b6000600160ff1b8201615cd157615cd16155cb565b5060000390565b80820260008212600160ff1b84141615615cf457615cf46155cb565b8181058314821517610c7e57610c7e6155cb565b600082615d1757615d176157cc565b600160ff1b821460001984141615615d3157615d316155cb565b50059056fea2646970667358221220e341d305ceafd7bfef17885109d197ba0acfcd0c8e4f36f543124cc1d592901d64736f6c63430008140033","linkReferences":{}},"methodIdentifiers":{"LTV()":"62965d8e","allowance(address,address)":"dd62ed3e","approve(address,uint256)":"095ea7b3","asset()":"38d52e0f","balanceOf(address)":"70a08231","borrow(uint256,uint256,address)":"d6bda0c0","checkAccountStatus(address,address[])":"b168c58f","checkVaultStatus()":"4b3d1223","collateral()":"d8dfeb45","collateralFactor(address)":"fbcc6f5e","collateralVault()":"0bece79c","convertToAssets(uint256)":"07a2d13a","convertToShares(uint256)":"c6e6f592","decimals()":"313ce567","deposit(uint256,address)":"6e553f65","disableController()":"869e50c7","getMaxBorrow(uint256,uint256)":"4d378d6b","getRate()":"679aefce","getRepoLoan(address,uint256)":"8e9ce760","getTermFee(uint256,uint256)":"5a7872eb","getTermFeeForAmount(uint256,uint256)":"43935d64","liquidate(address,uint256)":"bcbaf487","loans(address)":"73b4086b","market()":"80f55605","maxDeposit(address)":"402d267d","maxLoanValue(uint256)":"81cdde9b","maxMint(address)":"c63d75b6","maxRedeem(address)":"d905777e","maxWithdraw(address)":"ce96cb77","mint(uint256,address)":"94bf804d","name()":"06fdde03","openTradeBaseForPT(uint256,uint256,uint256,address)":"31433d51","oracle()":"7dc0d1d0","owner()":"8da5cb5b","pledgedCollateral(address)":"b03afd47","previewDeposit(uint256)":"ef8b30f7","previewMint(uint256)":"b3d7f6b9","previewRedeem(uint256)":"4cdad506","previewWithdraw(uint256)":"0a28a477","redeem(uint256,address,address)":"ba087652","renounceOwnership()":"715018a6","repos(address,uint256)":"c28e8962","repurchase(address,uint256)":"715e0e4e","repurchaseAndSellPt(address,address,uint256)":"052697cc","setCollateralFactor(address,uint256)":"c04f31ff","supplyCap()":"8f770ad0","symbol()":"95d89b41","totalAssets()":"01e1d114","totalSupply()":"18160ddd","transfer(address,uint256)":"a9059cbb","transferFrom(address,address,uint256)":"23b872dd","transferOwnership(address)":"f2fde38b","withdraw(uint256,address,address)":"b460af94"},"id":78}