{"abi":[{"type":"constructor","inputs":[{"name":"_depositToken","type":"address","internalType":"address"},{"name":"_pt","type":"address","internalType":"address"},{"name":"_SY","type":"address","internalType":"address"},{"name":"_market","type":"address","internalType":"address"},{"name":"_oracle","type":"address","internalType":"address"}],"stateMutability":"nonpayable"},{"type":"function","name":"LTV","inputs":[],"outputs":[{"name":"","type":"uint256","internalType":"uint256"}],"stateMutability":"view"},{"type":"function","name":"SY","inputs":[],"outputs":[{"name":"","type":"address","internalType":"contract IStandardizedYield"}],"stateMutability":"view"},{"type":"function","name":"YT","inputs":[],"outputs":[{"name":"","type":"address","internalType":"contract IPYieldToken"}],"stateMutability":"view"},{"type":"function","name":"allowance","inputs":[{"name":"owner","type":"address","internalType":"address"},{"name":"spender","type":"address","internalType":"address"}],"outputs":[{"name":"","type":"uint256","internalType":"uint256"}],"stateMutability":"view"},{"type":"function","name":"approve","inputs":[{"name":"spender","type":"address","internalType":"address"},{"name":"value","type":"uint256","internalType":"uint256"}],"outputs":[{"name":"","type":"bool","internalType":"bool"}],"stateMutability":"nonpayable"},{"type":"function","name":"asset","inputs":[],"outputs":[{"name":"","type":"address","internalType":"address"}],"stateMutability":"view"},{"type":"function","name":"balanceOf","inputs":[{"name":"account","type":"address","internalType":"address"}],"outputs":[{"name":"","type":"uint256","internalType":"uint256"}],"stateMutability":"view"},{"type":"function","name":"borrow","inputs":[{"name":"_collateralAmount","type":"uint256","internalType":"uint256"},{"name":"_term","type":"uint256","internalType":"uint256"},{"name":"receiver","type":"address","internalType":"address"}],"outputs":[],"stateMutability":"nonpayable"},{"type":"function","name":"closeLong","inputs":[{"name":"_loanIndex","type":"uint256","internalType":"uint256"}],"outputs":[],"stateMutability":"nonpayable"},{"type":"function","name":"collateral","inputs":[],"outputs":[{"name":"","type":"address","internalType":"contract IPPrincipalToken"}],"stateMutability":"view"},{"type":"function","name":"convertToAssets","inputs":[{"name":"shares","type":"uint256","internalType":"uint256"}],"outputs":[{"name":"","type":"uint256","internalType":"uint256"}],"stateMutability":"view"},{"type":"function","name":"convertToShares","inputs":[{"name":"assets","type":"uint256","internalType":"uint256"}],"outputs":[{"name":"","type":"uint256","internalType":"uint256"}],"stateMutability":"view"},{"type":"function","name":"decimals","inputs":[],"outputs":[{"name":"","type":"uint8","internalType":"uint8"}],"stateMutability":"view"},{"type":"function","name":"deposit","inputs":[{"name":"assets","type":"uint256","internalType":"uint256"},{"name":"receiver","type":"address","internalType":"address"}],"outputs":[{"name":"","type":"uint256","internalType":"uint256"}],"stateMutability":"nonpayable"},{"type":"function","name":"flashFee","inputs":[{"name":"token","type":"address","internalType":"address"},{"name":"amount","type":"uint256","internalType":"uint256"}],"outputs":[{"name":"","type":"uint256","internalType":"uint256"}],"stateMutability":"view"},{"type":"function","name":"flashLoan","inputs":[{"name":"receiver","type":"address","internalType":"contract IERC3156FlashBorrower"},{"name":"token","type":"address","internalType":"address"},{"name":"amount","type":"uint256","internalType":"uint256"},{"name":"data","type":"bytes","internalType":"bytes"}],"outputs":[{"name":"","type":"bool","internalType":"bool"}],"stateMutability":"nonpayable"},{"type":"function","name":"getCollateralRequired","inputs":[{"name":"_borrowAmount","type":"uint256","internalType":"uint256"},{"name":"_term","type":"uint256","internalType":"uint256"}],"outputs":[{"name":"","type":"uint256","internalType":"uint256"}],"stateMutability":"view"},{"type":"function","name":"getMaxBorrow","inputs":[{"name":"_collateralValue","type":"uint256","internalType":"uint256"},{"name":"_term","type":"uint256","internalType":"uint256"}],"outputs":[{"name":"","type":"uint256","internalType":"uint256"}],"stateMutability":"view"},{"type":"function","name":"getRate","inputs":[],"outputs":[{"name":"","type":"uint256","internalType":"uint256"}],"stateMutability":"view"},{"type":"function","name":"getTermFee","inputs":[{"name":"_collateralValue","type":"uint256","internalType":"uint256"},{"name":"_term","type":"uint256","internalType":"uint256"}],"outputs":[{"name":"","type":"uint256","internalType":"uint256"}],"stateMutability":"view"},{"type":"function","name":"getTermFeeForAmount","inputs":[{"name":"_amount","type":"uint256","internalType":"uint256"},{"name":"_term","type":"uint256","internalType":"uint256"}],"outputs":[{"name":"","type":"uint256","internalType":"uint256"}],"stateMutability":"view"},{"type":"function","name":"goLong","inputs":[{"name":"_PTamount","type":"uint256","internalType":"uint256"},{"name":"_term","type":"uint256","internalType":"uint256"},{"name":"_minPtOut","type":"uint256","internalType":"uint256"}],"outputs":[],"stateMutability":"nonpayable"},{"type":"function","name":"liquidate","inputs":[{"name":"_borrower","type":"address","internalType":"address"},{"name":"_loanIndex","type":"uint256","internalType":"uint256"}],"outputs":[],"stateMutability":"nonpayable"},{"type":"function","name":"loans","inputs":[{"name":"","type":"address","internalType":"address"}],"outputs":[{"name":"","type":"uint256","internalType":"uint256"}],"stateMutability":"view"},{"type":"function","name":"market","inputs":[],"outputs":[{"name":"","type":"address","internalType":"contract IPMarketV3"}],"stateMutability":"view"},{"type":"function","name":"maxDeposit","inputs":[{"name":"","type":"address","internalType":"address"}],"outputs":[{"name":"","type":"uint256","internalType":"uint256"}],"stateMutability":"view"},{"type":"function","name":"maxFlashLoan","inputs":[{"name":"token","type":"address","internalType":"address"}],"outputs":[{"name":"","type":"uint256","internalType":"uint256"}],"stateMutability":"view"},{"type":"function","name":"maxLoanValue","inputs":[{"name":"_collateralValue","type":"uint256","internalType":"uint256"}],"outputs":[{"name":"","type":"uint256","internalType":"uint256"}],"stateMutability":"view"},{"type":"function","name":"maxMint","inputs":[{"name":"","type":"address","internalType":"address"}],"outputs":[{"name":"","type":"uint256","internalType":"uint256"}],"stateMutability":"view"},{"type":"function","name":"maxRedeem","inputs":[{"name":"owner","type":"address","internalType":"address"}],"outputs":[{"name":"","type":"uint256","internalType":"uint256"}],"stateMutability":"view"},{"type":"function","name":"maxWithdraw","inputs":[{"name":"owner","type":"address","internalType":"address"}],"outputs":[{"name":"","type":"uint256","internalType":"uint256"}],"stateMutability":"view"},{"type":"function","name":"mint","inputs":[{"name":"shares","type":"uint256","internalType":"uint256"},{"name":"receiver","type":"address","internalType":"address"}],"outputs":[{"name":"","type":"uint256","internalType":"uint256"}],"stateMutability":"nonpayable"},{"type":"function","name":"name","inputs":[],"outputs":[{"name":"","type":"string","internalType":"string"}],"stateMutability":"view"},{"type":"function","name":"oracle","inputs":[],"outputs":[{"name":"","type":"address","internalType":"contract PtUsdOracle"}],"stateMutability":"view"},{"type":"function","name":"outstandingValue","inputs":[],"outputs":[{"name":"","type":"uint256","internalType":"uint256"}],"stateMutability":"view"},{"type":"function","name":"previewDeposit","inputs":[{"name":"assets","type":"uint256","internalType":"uint256"}],"outputs":[{"name":"","type":"uint256","internalType":"uint256"}],"stateMutability":"view"},{"type":"function","name":"previewMint","inputs":[{"name":"shares","type":"uint256","internalType":"uint256"}],"outputs":[{"name":"","type":"uint256","internalType":"uint256"}],"stateMutability":"view"},{"type":"function","name":"previewRedeem","inputs":[{"name":"shares","type":"uint256","internalType":"uint256"}],"outputs":[{"name":"","type":"uint256","internalType":"uint256"}],"stateMutability":"view"},{"type":"function","name":"previewWithdraw","inputs":[{"name":"assets","type":"uint256","internalType":"uint256"}],"outputs":[{"name":"","type":"uint256","internalType":"uint256"}],"stateMutability":"view"},{"type":"function","name":"redeem","inputs":[{"name":"shares","type":"uint256","internalType":"uint256"},{"name":"receiver","type":"address","internalType":"address"},{"name":"owner","type":"address","internalType":"address"}],"outputs":[{"name":"","type":"uint256","internalType":"uint256"}],"stateMutability":"nonpayable"},{"type":"function","name":"repos","inputs":[{"name":"","type":"address","internalType":"address"},{"name":"","type":"uint256","internalType":"uint256"}],"outputs":[{"name":"collateralAmount","type":"uint256","internalType":"uint256"},{"name":"repurchasePrice","type":"uint256","internalType":"uint256"},{"name":"termExpires","type":"uint256","internalType":"uint256"}],"stateMutability":"view"},{"type":"function","name":"repurchase","inputs":[{"name":"_loanIndex","type":"uint256","internalType":"uint256"}],"outputs":[],"stateMutability":"nonpayable"},{"type":"function","name":"rolloverLoan","inputs":[{"name":"_loanIndex","type":"uint256","internalType":"uint256"},{"name":"_partialPayoff","type":"uint256","internalType":"uint256"},{"name":"_newTerm","type":"uint256","internalType":"uint256"}],"outputs":[],"stateMutability":"nonpayable"},{"type":"function","name":"symbol","inputs":[],"outputs":[{"name":"","type":"string","internalType":"string"}],"stateMutability":"view"},{"type":"function","name":"totalAssets","inputs":[],"outputs":[{"name":"","type":"uint256","internalType":"uint256"}],"stateMutability":"view"},{"type":"function","name":"totalSupply","inputs":[],"outputs":[{"name":"","type":"uint256","internalType":"uint256"}],"stateMutability":"view"},{"type":"function","name":"transfer","inputs":[{"name":"to","type":"address","internalType":"address"},{"name":"value","type":"uint256","internalType":"uint256"}],"outputs":[{"name":"","type":"bool","internalType":"bool"}],"stateMutability":"nonpayable"},{"type":"function","name":"transferFrom","inputs":[{"name":"from","type":"address","internalType":"address"},{"name":"to","type":"address","internalType":"address"},{"name":"value","type":"uint256","internalType":"uint256"}],"outputs":[{"name":"","type":"bool","internalType":"bool"}],"stateMutability":"nonpayable"},{"type":"function","name":"withdraw","inputs":[{"name":"assets","type":"uint256","internalType":"uint256"},{"name":"receiver","type":"address","internalType":"address"},{"name":"owner","type":"address","internalType":"address"}],"outputs":[{"name":"","type":"uint256","internalType":"uint256"}],"stateMutability":"nonpayable"},{"type":"event","name":"Approval","inputs":[{"name":"owner","type":"address","indexed":true,"internalType":"address"},{"name":"spender","type":"address","indexed":true,"internalType":"address"},{"name":"value","type":"uint256","indexed":false,"internalType":"uint256"}],"anonymous":false},{"type":"event","name":"Deposit","inputs":[{"name":"sender","type":"address","indexed":true,"internalType":"address"},{"name":"owner","type":"address","indexed":true,"internalType":"address"},{"name":"assets","type":"uint256","indexed":false,"internalType":"uint256"},{"name":"shares","type":"uint256","indexed":false,"internalType":"uint256"}],"anonymous":false},{"type":"event","name":"Transfer","inputs":[{"name":"from","type":"address","indexed":true,"internalType":"address"},{"name":"to","type":"address","indexed":true,"internalType":"address"},{"name":"value","type":"uint256","indexed":false,"internalType":"uint256"}],"anonymous":false},{"type":"event","name":"Withdraw","inputs":[{"name":"sender","type":"address","indexed":true,"internalType":"address"},{"name":"receiver","type":"address","indexed":true,"internalType":"address"},{"name":"owner","type":"address","indexed":true,"internalType":"address"},{"name":"assets","type":"uint256","indexed":false,"internalType":"uint256"},{"name":"shares","type":"uint256","indexed":false,"internalType":"uint256"}],"anonymous":false},{"type":"error","name":"AddressEmptyCode","inputs":[{"name":"target","type":"address","internalType":"address"}]},{"type":"error","name":"AddressInsufficientBalance","inputs":[{"name":"account","type":"address","internalType":"address"}]},{"type":"error","name":"ApproxFail","inputs":[]},{"type":"error","name":"ApproxParamsInvalid","inputs":[{"name":"guessMin","type":"uint256","internalType":"uint256"},{"name":"guessMax","type":"uint256","internalType":"uint256"},{"name":"eps","type":"uint256","internalType":"uint256"}]},{"type":"error","name":"ERC20InsufficientAllowance","inputs":[{"name":"spender","type":"address","internalType":"address"},{"name":"allowance","type":"uint256","internalType":"uint256"},{"name":"needed","type":"uint256","internalType":"uint256"}]},{"type":"error","name":"ERC20InsufficientBalance","inputs":[{"name":"sender","type":"address","internalType":"address"},{"name":"balance","type":"uint256","internalType":"uint256"},{"name":"needed","type":"uint256","internalType":"uint256"}]},{"type":"error","name":"ERC20InvalidApprover","inputs":[{"name":"approver","type":"address","internalType":"address"}]},{"type":"error","name":"ERC20InvalidReceiver","inputs":[{"name":"receiver","type":"address","internalType":"address"}]},{"type":"error","name":"ERC20InvalidSender","inputs":[{"name":"sender","type":"address","internalType":"address"}]},{"type":"error","name":"ERC20InvalidSpender","inputs":[{"name":"spender","type":"address","internalType":"address"}]},{"type":"error","name":"ERC4626ExceededMaxDeposit","inputs":[{"name":"receiver","type":"address","internalType":"address"},{"name":"assets","type":"uint256","internalType":"uint256"},{"name":"max","type":"uint256","internalType":"uint256"}]},{"type":"error","name":"ERC4626ExceededMaxMint","inputs":[{"name":"receiver","type":"address","internalType":"address"},{"name":"shares","type":"uint256","internalType":"uint256"},{"name":"max","type":"uint256","internalType":"uint256"}]},{"type":"error","name":"ERC4626ExceededMaxRedeem","inputs":[{"name":"owner","type":"address","internalType":"address"},{"name":"shares","type":"uint256","internalType":"uint256"},{"name":"max","type":"uint256","internalType":"uint256"}]},{"type":"error","name":"ERC4626ExceededMaxWithdraw","inputs":[{"name":"owner","type":"address","internalType":"address"},{"name":"assets","type":"uint256","internalType":"uint256"},{"name":"max","type":"uint256","internalType":"uint256"}]},{"type":"error","name":"FailedInnerCall","inputs":[]},{"type":"error","name":"MarketExchangeRateBelowOne","inputs":[{"name":"exchangeRate","type":"int256","internalType":"int256"}]},{"type":"error","name":"MarketExpired","inputs":[]},{"type":"error","name":"MarketProportionMustNotEqualOne","inputs":[]},{"type":"error","name":"MarketProportionTooHigh","inputs":[{"name":"proportion","type":"int256","internalType":"int256"},{"name":"maxProportion","type":"int256","internalType":"int256"}]},{"type":"error","name":"MarketRateScalarBelowZero","inputs":[{"name":"rateScalar","type":"int256","internalType":"int256"}]},{"type":"error","name":"MarketZeroTotalPtOrTotalAsset","inputs":[{"name":"totalPt","type":"int256","internalType":"int256"},{"name":"totalAsset","type":"int256","internalType":"int256"}]},{"type":"error","name":"MathOverflowedMulDiv","inputs":[]},{"type":"error","name":"REPO__CollateralExpired","inputs":[]},{"type":"error","name":"REPO__InvalidTerm","inputs":[]},{"type":"error","name":"REPO__LiquidationImpaired","inputs":[]},{"type":"error","name":"REPO__LoanTermNotExpired","inputs":[]},{"type":"error","name":"REPO__MaxLoanExceeded","inputs":[]},{"type":"error","name":"REPO__RepayFailed","inputs":[]},{"type":"error","name":"REPO__SlippageToHigh","inputs":[]},{"type":"error","name":"REPO__WrongToken","inputs":[]},{"type":"error","name":"REPO__ZeroAmount","inputs":[]},{"type":"error","name":"SafeERC20FailedOperation","inputs":[{"name":"token","type":"address","internalType":"address"}]}],"bytecode":{"object":"0x60c0604052620f4240600a55620f1b30600b553480156200001f57600080fd5b506040516200526d3803806200526d8339810160408190526200004291620002b4565b846040518060400160405280600981526020016814995c1bd5985d5b1d60ba1b81525060405180604001604052806002815260200161292b60f11b8152508160039081620000919190620003c9565b506004620000a08282620003c9565b505050600080620000b783620001b260201b60201c565b9150915081620000c9576012620000cb565b805b60ff1660a05250506001600160a01b03908116608052600580548683166001600160a01b031991821681179092556007805493871693909116929092179091556040805163781c18db60e01b8152905163781c18db916004808201926020929091908290030181865afa15801562000147573d6000803e3d6000fd5b505050506040513d601f19601f820116820180604052508101906200016d919062000495565b600880546001600160a01b03199081166001600160a01b0393841617909155600980548216948316949094179093556006805490931691161790555062000505915050565b60408051600481526024810182526020810180516001600160e01b031663313ce56760e01b17905290516000918291829182916001600160a01b03871691620001fb91620004ba565b600060405180830381855afa9150503d806000811462000238576040519150601f19603f3d011682016040523d82523d6000602084013e6200023d565b606091505b50915091508180156200025257506020815110155b156200028a57600081806020019051810190620002709190620004eb565b905060ff811162000288576001969095509350505050565b505b5060009485945092505050565b80516001600160a01b0381168114620002af57600080fd5b919050565b600080600080600060a08688031215620002cd57600080fd5b620002d88662000297565b9450620002e86020870162000297565b9350620002f86040870162000297565b9250620003086060870162000297565b9150620003186080870162000297565b90509295509295909350565b634e487b7160e01b600052604160045260246000fd5b600181811c908216806200034f57607f821691505b6020821081036200037057634e487b7160e01b600052602260045260246000fd5b50919050565b601f821115620003c457600081815260208120601f850160051c810160208610156200039f5750805b601f850160051c820191505b81811015620003c057828155600101620003ab565b5050505b505050565b81516001600160401b03811115620003e557620003e562000324565b620003fd81620003f684546200033a565b8462000376565b602080601f8311600181146200043557600084156200041c5750858301515b600019600386901b1c1916600185901b178555620003c0565b600085815260208120601f198616915b82811015620004665788860151825594840194600190910190840162000445565b5085821015620004855787850151600019600388901b60f8161c191681555b5050505050600190811b01905550565b600060208284031215620004a857600080fd5b620004b38262000297565b9392505050565b6000825160005b81811015620004dd5760208186018101518583015201620004c1565b506000920191825250919050565b600060208284031215620004fe57600080fd5b5051919050565b60805160a051614cc4620005a96000396000610b570152600081816103a1015281816106e40152818161086e015281816108bf015281816109b401528181610d4201528181610eee01528181611031015281816110c1015281816110f3015281816111b1015281816111e90152818161157f015281816115cf0152818161189f01528181611a09015281816120870152818161218101526123260152614cc46000f3fe608060405234801561001057600080fd5b50600436106102bb5760003560e01c806373b4086b11610182578063b460af94116100e9578063ce96cb77116100a2578063d905777e1161007c578063d905777e1461066d578063d9d98ce414610680578063dd62ed3e14610693578063ef8b30f71461062157600080fd5b8063ce96cb7714610634578063d6bda0c014610647578063d8dfeb451461065a57600080fd5b8063b460af9414610593578063ba087652146105a6578063bcbaf487146105b9578063c28e8962146105cc578063c63d75b6146103d9578063c6e6f5921461062157600080fd5b80638d1bc4ec1161013b5780638d1bc4ec1461052c57806394bf804d1461053f57806395d89b4114610552578063a9059cbb1461055a578063afd27bf51461056d578063b3d7f6b91461058057600080fd5b806373b4086b146104ad578063764f4cd2146104cd578063781c18db146104e05780637dc0d1d0146104f357806380f556051461050657806381cdde9b1461051957600080fd5b8063402d267d11610226578063613255ab116101df578063613255ab1461043a57806362965d8e1461044d57806364c96f8514610456578063679aefce146104695780636e553f651461047157806370a082311461048457600080fd5b8063402d267d146103d957806343935d64146103ee5780634cdad506146102f05780634d378d6b146104015780635a7872eb146104145780635cffe9de1461042757600080fd5b806314189a7e1161027857806314189a7e1461034e57806318160ddd1461035757806319a452261461035f57806323b872dd14610372578063313ce5671461038557806338d52e0f1461039f57600080fd5b806301e1d114146102c057806306fdde03146102db57806307a2d13a146102f0578063095ea7b3146103035780630a28a47714610326578063128b191714610339575b600080fd5b6102c86106cc565b6040519081526020015b60405180910390f35b6102e361075c565b6040516102d29190614337565b6102c86102fe36600461434a565b6107ee565b610316610311366004614378565b610801565b60405190151581526020016102d2565b6102c861033436600461434a565b610819565b61034c61034736600461434a565b610826565b005b6102c8600c5481565b6002546102c8565b61034c61036d3660046143a4565b610971565b6103166103803660046143d0565b610b29565b61038d610b4f565b60405160ff90911681526020016102d2565b7f00000000000000000000000000000000000000000000000000000000000000005b6040516001600160a01b0390911681526020016102d2565b6102c86103e7366004614411565b5060001990565b6102c86103fc36600461442e565b610b7b565b6102c861040f36600461442e565b610bae565b6102c861042236600461442e565b610bfa565b610316610435366004614450565b610c19565b6102c8610448366004614411565b610d3e565b6102c8600b5481565b61034c61046436600461434a565b610e16565b61012c6102c8565b6102c861047f3660046144ef565b610fa2565b6102c8610492366004614411565b6001600160a01b031660009081526020819052604090205490565b6102c86104bb366004614411565b600e6020526000908152604090205481565b61034c6104db3660046143a4565b610fd6565b6008546103c1906001600160a01b031681565b6006546103c1906001600160a01b031681565b6009546103c1906001600160a01b031681565b6102c861052736600461434a565b611344565b6102c861053a36600461442e565b611361565b6102c861054d3660046144ef565b611389565b6102e36113a7565b610316610568366004614378565b6113b6565b6007546103c1906001600160a01b031681565b6102c861058e36600461434a565b6113c4565b6102c86105a136600461451f565b6113d1565b6102c86105b436600461451f565b611429565b61034c6105c7366004614378565b611478565b6106066105da366004614378565b600d60209081526000928352604080842090915290825290208054600182015460029092015490919083565b604080519384526020840192909252908201526060016102d2565b6102c861062f36600461434a565b611690565b6102c8610642366004614411565b61169d565b61034c610655366004614561565b611705565b6005546103c1906001600160a01b031681565b6102c861067b366004614411565b611a36565b6102c861068e366004614378565b611a98565b6102c86106a136600461458f565b6001600160a01b03918216600090815260016020908152604080832093909416825291909152205490565b6040516370a0823160e01b81523060048201526000907f00000000000000000000000000000000000000000000000000000000000000006001600160a01b0316906370a0823190602401602060405180830381865afa158015610733573d6000803e3d6000fd5b505050506040513d601f19601f8201168201806040525081019061075791906145bd565b905090565b60606003805461076b906145d6565b80601f0160208091040260200160405190810160405280929190818152602001828054610797906145d6565b80156107e45780601f106107b9576101008083540402835291602001916107e4565b820191906000526020600020905b8154815290600101906020018083116107c757829003601f168201915b5050505050905090565b60006107fb826000611aa9565b92915050565b60003361080f818585611af3565b5060019392505050565b60006107fb826001611b00565b336000908152600d60209081526040808320848452825280832081516060810183528154808252600183015494820194909452600290910154918101919091529190610892907f0000000000000000000000000000000000000000000000000000000000000000611b41565b905081602001518111156109535760008260200151826108b29190614626565b905080156108e5576108e57f00000000000000000000000000000000000000000000000000000000000000003383611f1e565b8260200151600c60008282546108fb9190614626565b9091555050336000908152600e60205260408120805460019290610920908490614626565b9091555050336000908152600d602090815260408083208784529091528120818155600181018290556002015550505050565b60405163da6e545760e01b815260040160405180910390fd5b505050565b336000908152600d6020908152604080832086845282529182902082516060810184528154815260018201549281019290925260020154918101919091526109db7f0000000000000000000000000000000000000000000000000000000000000000333086611f64565b60006109f68483602001516109f09190614626565b84610b7b565b9050600081858460200151610a0b9190614626565b610a159190614639565b9050610ab0670de0b6b3a7640000600660009054906101000a90046001600160a01b03166001600160a01b031663bc3ff1dc6040518163ffffffff1660e01b8152600401602060405180830381865afa158015610a76573d6000803e3d6000fd5b505050506040513d601f19601f82011682018060405250810190610a9a91906145bd565b8551610aa6919061464c565b6105279190614679565b811115610ad05760405163dc5990cf60e01b815260040160405180910390fd5b60208301819052604083018051859190610aeb908390614639565b905250600c8054839190600090610b03908490614639565b9250508190555084600c6000828254610b1c9190614626565b9091555050505050505050565b600033610b37858285611fb8565b610b42858585612023565b60019150505b9392505050565b6000610757817f000000000000000000000000000000000000000000000000000000000000000061468d565b6000600a5462015180610b8e919061464c565b610b9a8361012c61464c565b610ba4908561464c565b610b489190614679565b6000600a5462015180610bc1919061464c565b610bcd8361012c61464c565b600a54610bdd906201518061464c565b610be79190614626565b610bf085611344565b610ba4919061464c565b6000610c068383610bae565b610c0f84611344565b610b489190614626565b6000610c2485610d3e565b841115610c445760405163dc5990cf60e01b815260040160405180910390fd5b6000610c508686611a98565b90506000610c5e8287614639565b9050610c6b878988611f1e565b6040516323e30c8b60e01b81527f0947cd39683897964c4681f2a9ace479400f0bd467117d0ae02e99e303012ade906001600160a01b038a16906323e30c8b90610cc39033908c908c9089908d908d906004016146a6565b6020604051808303816000875af1158015610ce2573d6000803e3d6000fd5b505050506040513d601f19601f82011682018060405250810190610d0691906145bd565b14610d2457604051632ac2ab4360e11b815260040160405180910390fd5b610d3087893084611f64565b506001979650505050505050565b60007f00000000000000000000000000000000000000000000000000000000000000006001600160a01b0316826001600160a01b031614158015610d9057506005546001600160a01b03838116911614155b15610dae57604051639723554960e01b815260040160405180910390fd5b6040516370a0823160e01b81523060048201526001600160a01b038316906370a0823190602401602060405180830381865afa158015610df2573d6000803e3d6000fd5b505050506040513d601f19601f820116820180604052508101906107fb91906145bd565b600560009054906101000a90046001600160a01b03166001600160a01b0316632f13b60c6040518163ffffffff1660e01b8152600401602060405180830381865afa158015610e69573d6000803e3d6000fd5b505050506040513d601f19601f82011682018060405250810190610e8d9190614702565b15610eab5760405163144c7e8b60e01b815260040160405180910390fd5b336000908152600d602090815260408083208484528252918290208251606081018452815481526001820154928101929092526002015491810191909152610f197f000000000000000000000000000000000000000000000000000000000000000033308460200151611f64565b6005548151610f33916001600160a01b0316903390611f1e565b8060200151600c6000828254610f499190614626565b9091555050336000908152600e60205260408120805460019290610f6e908490614626565b9091555050336000908152600d60209081526040808320948352939052918220828155600181018390556002019190915550565b6000600019610fb5565b60405180910390fd5b6000610fc085611690565b9050610fce33858784612082565b949350505050565b600954600090670de0b6b3a7640000908590610ffc906001600160a01b0316603c612114565b611006919061464c565b6110109190614679565b9050600061101d82611344565b9050600061102b8386610bae565b905060007f00000000000000000000000000000000000000000000000000000000000000006040516370a0823160e01b81523060048201526001600160a01b0391909116906370a0823190602401602060405180830381865afa158015611096573d6000803e3d6000fd5b505050506040513d601f19601f820116820180604052508101906110ba91906145bd565b90506110f17f000000000000000000000000000000000000000000000000000000000000000033306110ec8689614626565b611f64565b7f000000000000000000000000000000000000000000000000000000000000000060075460405163095ea7b360e01b81526001600160a01b0391821660048201526024810187905291169063095ea7b3906044016020604051808303816000875af1158015611164573d6000803e3d6000fd5b505050506040513d601f19601f820116820180604052508101906111889190614702565b506000611196858988612168565b9050878111156111e55760006111d56111af8a84614626565b7f0000000000000000000000000000000000000000000000000000000000000000611b41565b90506111e18186614626565b9450505b60007f00000000000000000000000000000000000000000000000000000000000000006040516370a0823160e01b81523060048201526001600160a01b0391909116906370a0823190602401602060405180830381865afa15801561124e573d6000803e3d6000fd5b505050506040513d601f19601f8201168201806040525081019061127291906145bd565b90508361127f8285614626565b111561129e5760405163dc5990cf60e01b815260040160405180910390fd5b336000908152600e602052604081208054600192906112be908490614639565b909155505060408051606081018252838152602081018790529081016112e48a42614639565b9052336000908152600d60209081526040808320600e83528184205484528252808320845181559184015160018301559290920151600290920191909155600c8054879290611334908490614639565b9091555050505050505050505050565b6000600a54600b5483611357919061464c565b6107fb9190614679565b600061136f8261012c61464c565b600a5461137c908561464c565b610ba4906201518061464c565b60006000196000611399856113c4565b9050610fce33858388612082565b60606004805461076b906145d6565b60003361080f818585612023565b60006107fb826001611aa9565b6000806113dd8361169d565b90508085111561140657828582604051633fa733bb60e21b8152600401610fac93929190614724565b600061141186610819565b905061142033868689856122f3565b95945050505050565b60008061143583611a36565b90508085111561145e57828582604051632e52afbb60e21b8152600401610fac93929190614724565b6000611469866107ee565b9050611420338686848a6122f3565b600560009054906101000a90046001600160a01b03166001600160a01b0316632f13b60c6040518163ffffffff1660e01b8152600401602060405180830381865afa1580156114cb573d6000803e3d6000fd5b505050506040513d601f19601f820116820180604052508101906114ef9190614702565b1561150d5760405163144c7e8b60e01b815260040160405180910390fd5b6001600160a01b0382166000908152600d602090815260408083208484528252918290208251606081018452815481526001820154928101929092526002015491810182905290421015611574576040516318a2405160e01b815260040160405180910390fd5b80516000906115a3907f0000000000000000000000000000000000000000000000000000000000000000611b41565b905081602001518110156115ca5760405163da6e545760e01b815260040160405180910390fd5b6116107f00000000000000000000000000000000000000000000000000000000000000003360028560200151856116019190614626565b61160b9190614679565b611f1e565b8160200151600c60008282546116269190614626565b90915550506001600160a01b0384166000908152600e60205260408120805460019290611654908490614626565b9091555050506001600160a01b039092166000908152600d60209081526040808320938352929052908120818155600181018290556002015550565b60006107fb826000611b00565b60006116a76106cc565b6116d06116c9846001600160a01b031660009081526020819052604090205490565b6000611aa9565b11156116de576107fb6106cc565b6107fb6116c9836001600160a01b031660009081526020819052604090205490565b919050565b600560009054906101000a90046001600160a01b03166001600160a01b0316632f13b60c6040518163ffffffff1660e01b8152600401602060405180830381865afa158015611758573d6000803e3d6000fd5b505050506040513d601f19601f8201168201806040525081019061177c9190614702565b1561179a5760405163144c7e8b60e01b815260040160405180910390fd5b826000036117bb57604051631d92ba9f60e11b815260040160405180910390fd5b620151808210156117df5760405163352885c360e21b815260040160405180910390fd5b6005546117f7906001600160a01b0316333086611f64565b6000670de0b6b3a7640000600660009054906101000a90046001600160a01b03166001600160a01b031663bc3ff1dc6040518163ffffffff1660e01b8152600401602060405180830381865afa158015611855573d6000803e3d6000fd5b505050506040513d601f19601f8201168201806040525081019061187991906145bd565b611883908661464c565b61188d9190614679565b9050600061189b8285610bae565b90507f00000000000000000000000000000000000000000000000000000000000000006040516370a0823160e01b81523060048201526001600160a01b0391909116906370a0823190602401602060405180830381865afa158015611904573d6000803e3d6000fd5b505050506040513d601f19601f8201168201806040525081019061192891906145bd565b8111156119485760405163dc5990cf60e01b815260040160405180910390fd5b6001600160a01b0383166000908152600e60205260408120805460019290611971908490614639565b92505081905550604051806060016040528086815260200161199284611344565b81526020016119a18642614639565b90526001600160a01b0384166000908152600d60209081526040808320600e8352818420548452825291829020835181559083015160018201559101516002909101556119ed82611344565b600c60008282546119fe9190614639565b90915550611a2f90507f00000000000000000000000000000000000000000000000000000000000000008483611f1e565b5050505050565b6000611a406106cc565b611a626116c9846001600160a01b031660009081526020819052604090205490565b1115611a7a576107fb611a736106cc565b6000611b00565b6001600160a01b0382166000908152602081905260409020546107fb565b6000620f4240610ba483600a61464c565b600080600c54611ab76106cc565b611ac19190614639565b9050610fce611ad1826001614639565b611add6000600a614829565b600254611aea9190614639565b869190866123b3565b61096c8383836001612402565b600080600c54611b0e6106cc565b611b189190614639565b9050610fce611b296000600a614829565b600254611b369190614639565b611aea836001614639565b600080600080600960009054906101000a90046001600160a01b03166001600160a01b0316632c8ce6bc6040518163ffffffff1660e01b8152600401606060405180830381865afa158015611b9a573d6000803e3d6000fd5b505050506040513d601f19601f82011682018060405250810190611bbe9190614838565b925092509250600080611bd0886124c9565b836001600160a01b0316632f13b60c6040518163ffffffff1660e01b8152600401602060405180830381865afa158015611c0e573d6000803e3d6000fd5b505050506040513d601f19601f82011682018060405250810190611c329190614702565b15611d1e5760405163a9059cbb60e01b81526001600160a01b038481166004830152602482018a905285169063a9059cbb906044016020604051808303816000875af1158015611c86573d6000803e3d6000fd5b505050506040513d601f19601f82011682018060405250810190611caa9190614702565b5060405163bcb7ea5d60e01b81526001600160a01b03868116600483015284169063bcb7ea5d906024016020604051808303816000875af1158015611cf3573d6000803e3d6000fd5b505050506040513d601f19601f82011682018060405250810190611d1791906145bd565b9150611e8b565b60095460405163a9059cbb60e01b81526001600160a01b039182166004820152602481018a90529085169063a9059cbb906044016020604051808303816000875af1158015611d71573d6000803e3d6000fd5b505050506040513d601f19601f82011682018060405250810190611d959190614702565b50600954604080516000815260208101918290526329910b1160e01b9091526001600160a01b03909116906329910b1190611dd79088908c906024810161487a565b60408051808303816000875af1158015611df5573d6000803e3d6000fd5b505050506040513d601f19601f82011682018060405250810190611e1991906148a1565b60408051808201909152601b81527f6e657453794f757420636c6f736520706f736974696f6e3a202573000000000060208201529193509150611e5c9083612511565b611e8b6040518060400160405280600d81526020016c636c6f7365206665653a20257360981b81525082612511565b60405163769f8e5d60e01b8152306004820152602481018390526001600160a01b038881166044830152600160648301819052608483015286169063769f8e5d9060a4016020604051808303816000875af1158015611eee573d6000803e3d6000fd5b505050506040513d601f19601f82011682018060405250810190611f1291906145bd565b98975050505050505050565b816014528060345263a9059cbb60601b60005260206000604460106000875af13d156001600051141716611f5a576390b8ec186000526004601cfd5b6000603452505050565b60405181606052826040528360601b602c526323b872dd60601b600c52602060006064601c6000895af13d156001600051141716611faa57637939f4246000526004601cfd5b600060605260405250505050565b6001600160a01b03838116600090815260016020908152604080832093861683529290522054600019811461201d578181101561200e57828183604051637dc7a0d960e11b8152600401610fac93929190614724565b61201d84848484036000612402565b50505050565b6001600160a01b03831661204d57604051634b637e8f60e11b815260006004820152602401610fac565b6001600160a01b0382166120775760405163ec442f0560e01b815260006004820152602401610fac565b61096c83838361255a565b6120ae7f0000000000000000000000000000000000000000000000000000000000000000853085612671565b6120b883826126d8565b826001600160a01b0316846001600160a01b03167fdcbc1c05240f31ff3ad067ef1ee35ce4997762752e3a095284754544f4c709d78484604051612106929190918252602082015260400190565b60405180910390a350505050565b60008060006121228561270e565b9150915080821061214057612137858561293e565b925050506107fb565b808261214c878761293e565b612156919061464c565b6121379190614679565b505092915050565b60075460009081906001600160a01b03166320e8c565307f00000000000000000000000000000000000000000000000000000000000000006040516001600160e01b031960e085901b1681526001600160a01b0392831660048201529116602482015260448101889052600160648201526084016020604051808303816000875af11580156121fb573d6000803e3d6000fd5b505050506040513d601f19601f8201168201806040525081019061221f91906145bd565b60075460095460405163095ea7b360e01b81526001600160a01b03918216600482015260248101849052929350169063095ea7b3906044016020604051808303816000875af1158015612276573d6000803e3d6000fd5b505050506040513d601f19601f8201168201806040525081019061229a9190614702565b506122a730828686612a13565b50809250506122eb6040518060400160405280601781526020017f737761704578616374546f6b656e466f7250743a20257300000000000000000081525083612511565b509392505050565b826001600160a01b0316856001600160a01b03161461231757612317838683611fb8565b6123218382612baa565b61234c7f00000000000000000000000000000000000000000000000000000000000000008584612be0565b826001600160a01b0316846001600160a01b0316866001600160a01b03167ffbde797d201c681b91056529119e0b02407c7bb96a4a2c75c01fc9667232c8db85856040516123a4929190918252602082015260400190565b60405180910390a45050505050565b6000806123c1868686612c11565b90506123cc83612cd5565b80156123e85750600084806123e3576123e3614663565b868809115b15611420576123f8600182614639565b9695505050505050565b6001600160a01b03841661242c5760405163e602df0560e01b815260006004820152602401610fac565b6001600160a01b03831661245657604051634a1406b160e11b815260006004820152602401610fac565b6001600160a01b038085166000908152600160209081526040808320938716835292905220829055801561201d57826001600160a01b0316846001600160a01b03167f8c5be1e5ebec7d5bd14f71427d1e84f3dd0314c0f7b2291e5b200ac8c7c3b9258460405161210691815260200190565b61250e816040516024016124df91815260200190565b60408051601f198184030181529190526020810180516001600160e01b031663f5b1bba960e01b179052612d02565b50565b61255682826040516024016125279291906148c5565b60408051601f198184030181529190526020810180516001600160e01b03166309710a9d60e41b179052612d02565b5050565b6001600160a01b03831661258557806002600082825461257a9190614639565b909155506125e49050565b6001600160a01b038316600090815260208190526040902054818110156125c55783818360405163391434e360e21b8152600401610fac93929190614724565b6001600160a01b03841660009081526020819052604090209082900390555b6001600160a01b0382166126005760028054829003905561261f565b6001600160a01b03821660009081526020819052604090208054820190555b816001600160a01b0316836001600160a01b03167fddf252ad1be2c89b69c2b068fc378daa952ba7f163c4a11628f55a4df523b3ef8360405161266491815260200190565b60405180910390a3505050565b6040516001600160a01b03848116602483015283811660448301526064820183905261201d9186918216906323b872dd906084015b604051602081830303815290604052915060e01b6020820180516001600160e01b038381831617835250505050612d23565b6001600160a01b0382166127025760405163ec442f0560e01b815260006004820152602401610fac565b6125566000838361255a565b600080600080846001600160a01b0316632c8ce6bc6040518163ffffffff1660e01b8152600401606060405180830381865afa158015612752573d6000803e3d6000fd5b505050506040513d601f19601f820116820180604052508101906127769190614838565b9250509150816001600160a01b0316633ba0b9a96040518163ffffffff1660e01b8152600401602060405180830381865afa1580156127b9573d6000803e3d6000fd5b505050506040513d601f19601f820116820180604052508101906127dd91906145bd565b93506000816001600160a01b031663d2a3584e6040518163ffffffff1660e01b8152600401602060405180830381865afa15801561281f573d6000803e3d6000fd5b505050506040513d601f19601f8201168201806040525081019061284391906145bd565b9050816001600160a01b031663516399df6040518163ffffffff1660e01b8152600401602060405180830381865afa158015612883573d6000803e3d6000fd5b505050506040513d601f19601f820116820180604052508101906128a79190614702565b801561291c575043826001600160a01b03166360e0a9e16040518163ffffffff1660e01b8152600401602060405180830381865afa1580156128ed573d6000803e3d6000fd5b505050506040513d601f19601f8201168201806040525081019061291191906148e7565b6001600160801b0316145b1561292957809350612936565b6129338582612d86565b93505b505050915091565b600080836001600160a01b031663e184c9be6040518163ffffffff1660e01b8152600401602060405180830381865afa15801561297f573d6000803e3d6000fd5b505050506040513d601f19601f820116820180604052508101906129a391906145bd565b90504281116129bd57670de0b6b3a76400009150506107fb565b60006129c98585612d9c565b905060006129d74284614626565b905060006129ed6129e88484612ec3565b612efc565b9050612a01670de0b6b3a764000082612f0f565b9450505050506107fb565b5092915050565b6008546000908190612ad990612a31906001600160a01b0316612f3e565b6040805160a08101825286815260208101889052600081830152600a606082015266038d7ea4c680006080820152600954915163794052f360e01b815230600482015289924292916001600160a01b039091169063794052f39060240161012060405180830381865afa158015612aac573d6000803e3d6000fd5b505050506040513d601f19601f82011682018060405250810190612ad0919061498c565b93929190612f80565b909250905082821015612aff57604051636919632360e11b815260040160405180910390fd5b600754600954612b1c916001600160a01b03908116911687611f1e565b60095460408051600081526020810191829052635b709f1760e01b9091526001600160a01b0390911690635b709f1790612b5d90899086906024810161487a565b60408051808303816000875af1158015612b7b573d6000803e3d6000fd5b505050506040513d601f19601f82011682018060405250810190612b9f91906148a1565b505094509492505050565b6001600160a01b038216612bd457604051634b637e8f60e11b815260006004820152602401610fac565b6125568260008361255a565b6040516001600160a01b0383811660248301526044820183905261096c91859182169063a9059cbb906064016126a6565b6000838302816000198587098281108382030391505080600003612c4857838281612c3e57612c3e614663565b0492505050610b48565b808411612c685760405163227bc15360e01b815260040160405180910390fd5b6000848688096000868103871696879004966002600389028118808a02820302808a02820302808a02820302808a02820302808a02820302808a02909103029181900381900460010186841190950394909402919094039290920491909117919091029150509392505050565b60006002826003811115612ceb57612ceb614a0e565b612cf59190614a24565b60ff166001149050919050565b80516a636f6e736f6c652e6c6f67602083016000808483855afa5050505050565b6000612d386001600160a01b03841683613072565b90508051600014158015612d5d575080806020019051810190612d5b9190614702565b155b1561096c57604051635274afe760e01b81526001600160a01b0384166004820152602401610fac565b6000818311612d955781610b48565b5090919050565b604080516002808252606082018352600092839291906020830190803683370190505090508281600081518110612dd557612dd5614a46565b63ffffffff9092166020928302919091019091015260405163883bdbfd60e01b81526000906001600160a01b0386169063883bdbfd90612e19908590600401614a5c565b600060405180830381865afa158015612e36573d6000803e3d6000fd5b505050506040513d6000823e601f3d908101601f19168201604052612e5e9190810190614aa6565b90508363ffffffff1681600081518110612e7a57612e7a614a46565b602002602001015182600181518110612e9557612e95614a46565b6020026020010151612ea79190614b59565b612eb19190614b79565b6001600160d81b031695945050505050565b600080612ed56201518061016d61464c565b612edf848661464c565b612ee99190614679565b9050610fce612ef782613080565b613096565b600080821215612f0b57600080fd5b5090565b600080612f24670de0b6b3a76400008561464c565b9050828181612f3557612f35614663565b04949350505050565b6000816001600160a01b0316631d52edc46040518163ffffffff1660e01b81526004016020604051808303816000875af1158015610df2573d6000803e3d6000fd5b60008080612f8f8888876134ad565b90508360400151600003612fc657612fb88460200151612fb3838b600001516135ae565b613648565b6020850152612fc684613657565b60005b846060015181101561304e576000612fe186836136b0565b9050600080612ff28c868d8661371c565b50915091508982116130295761300d828b8a6080015161374e565b156130215791955090935061306892505050565b82885261303a565b613034600184614626565b60208901525b5050508061304790614b9f565b9050612fc9565b50604051637d388ed960e11b815260040160405180910390fd5b9550959350505050565b6060610b4883836000613781565b60006001600160ff1b03821115612f0b57600080fd5b6000680238fd42c5cf03ffff1982121580156130bb575068070c1cc73b00c800008213155b6130fa5760405162461bcd60e51b815260206004820152601060248201526f125b9d985b1a5908195e1c1bdb995b9d60821b6044820152606401610fac565b60008212156131325761310f82600003613096565b6a0c097ce7bc90715b34b9f160241b8161312b5761312b614663565b0592915050565b60006806f05b59d3b2000000831261317257506806f05b59d3b1ffffff1990910190770195e54c5dd42177f53a27172fa9ec6302628270000000006131a8565b6803782dace9d900000083126131a457506803782dace9d8ffffff19909101906b1425982cf597cd205cef73806131a8565b5060015b6064929092029168056bc75e2d6310000068ad78ebc5ac6200000084126131f85768ad78ebc5ac61ffffff199093019268056bc75e2d631000006e01855144814a7ff805980ff008400082020590505b6856bc75e2d6310000008412613234576856bc75e2d630ffffff199093019268056bc75e2d631000006b02df0ab5a80a22c61ab5a70082020590505b682b5e3af16b18800000841261326e57682b5e3af16b187fffff199093019268056bc75e2d63100000693f1fce3da636ea5cf85082020590505b6815af1d78b58c40000084126132a8576815af1d78b58c3fffff199093019268056bc75e2d63100000690127fa27722cc06cc5e282020590505b680ad78ebc5ac620000084126132e157680ad78ebc5ac61fffff199093019268056bc75e2d6310000068280e60114edb805d0382020590505b68056bc75e2d63100000841261331a5768056bc75e2d630fffff199093019268056bc75e2d63100000680ebc5fb4174612111082020590505b6802b5e3af16b18800008412613353576802b5e3af16b187ffff199093019268056bc75e2d631000006808f00f760a4b2db55d82020590505b68015af1d78b58c40000841261338c5768015af1d78b58c3ffff199093019268056bc75e2d631000006806f5f177578893793782020590505b68056bc75e2d631000008481019085906002908280020505918201919050600368056bc75e2d631000008783020505918201919050600468056bc75e2d631000008783020505918201919050600568056bc75e2d631000008783020505918201919050600668056bc75e2d631000008783020505918201919050600768056bc75e2d631000008783020505918201919050600868056bc75e2d631000008783020505918201919050600968056bc75e2d631000008783020505918201919050600a68056bc75e2d631000008783020505918201919050600b68056bc75e2d631000008783020505918201919050600c68056bc75e2d631000008783020505918201919050606468056bc75e2d63100000848402058502059695505050505050565b6134d86040518060800160405280600081526020016000815260200160008152602001600081525090565b60a084015182106134fc5760405163b2094b5960e01b815260040160405180910390fd5b6000828560a0015161350e9190614626565b905061351a8582613814565b8252602085015161352c908590613875565b60208301528451158061354157506020820151155b1561356f578451602083015160405163b1c4aefb60e01b815260048101929092526024820152604401610fac565b61358d856000015186610100015184602001518560000151856138ac565b604083015260c08501516135a19082612ec3565b6060830152509392505050565b6000806135d6612ef78560000151866040015187606001516135d09190614bb8565b9061392d565b905060006135f66135ef670de0b6b3a764000084614bd8565b8390613950565b9050600061361486602001518661360d9190614bd8565b839061392d565b905060006136228287614bb8565b90506103e8613633826103e761464c565b61363d9190614679565b979650505050505050565b6000818310612d955781610b48565b6020810151815111806136755750670de0b6b3a76400008160800151115b1561250e57805160208201516080830151604051632cc06bc160e21b8152600481019390935260248301919091526044820152606401610fac565b6000811580156136c35750604083015115155b156136d3575060408201516107fb565b602083015183511161370357602083015183516002916136f291614639565b6136fc9190614679565b90506107fb565b604051637d388ed960e11b815260040160405180910390fd5b6000808080808061372f8a8a8a8a613976565b9250925092508261373f90614bf8565b9a919950975095505050505050565b6000828411158015610fce57506137768361377184670de0b6b3a7640000614626565b613aca565b841015949350505050565b6060814710156137a65760405163cd78605960e01b8152306004820152602401610fac565b600080856001600160a01b031684866040516137c29190614c14565b60006040518083038185875af1925050503d80600081146137ff576040519150601f19603f3d011682016040523d82523d6000602084013e613804565b606091505b50915091506123f8868383613ae8565b600061381f82613080565b6138366138316201518061016d61464c565b613080565b84608001516138459190614c30565b61384f9190614c60565b9050600081136107fb57604051630e520c3b60e11b815260048101829052602401610fac565b6000806000831261388757600161388b565b6000195b90506138a26138318561389d86613b44565b613b5b565b610fce9082614c30565b6000806138b98684612ec3565b9050670de0b6b3a76400008112156138e75760405163329e322960e21b815260048101829052602401610fac565b60006138fd6138f6878a614bd8565b8990613950565b9050600061390a82613b70565b90506139168187613950565b6139209084614bb8565b9998505050505050505050565b60008061393a8385614c30565b9050670de0b6b3a7640000815b05949350505050565b600080613965670de0b6b3a764000085614c30565b905082818161394757613947614663565b6000806000806139998860000151886020015189600001518a6040015189613bc3565b905060006139af6139aa8784613950565b613c79565b60608901519091506000871315613a1e5760006139cc8483613950565b9050670de0b6b3a76400008112156139fa5760405163329e322960e21b815260048101829052602401610fac565b613a16613a0f83670de0b6b3a7640000614bb8565b849061392d565b915050613a4b565b613a4881613a3481670de0b6b3a7640000614bb8565b613a3e9085614c30565b6139aa9190614c60565b90505b60006064613a5c8c60e00151613080565b613a669084614c30565b613a709190614c60565b90506000613a7e8385614bb8565b905060008112613a9757613a928a82613c87565b613aa1565b613aa18a82613cb4565b9750613aad8a84613c87565b9650613ab98a83613c87565b955050505050509450945094915050565b600080613ad7838561464c565b9050670de0b6b3a764000081612f35565b606082613afd57613af882613ce1565b610b48565b8151158015613b1457506001600160a01b0384163b155b15613b3d57604051639996b31560e01b81526001600160a01b0385166004820152602401610fac565b5080610b48565b6000808213612f0b57613b5682614bf8565b6107fb565b6000670de0b6b3a7640000610ba4848461464c565b6000670de0b6b3a76400008203613b9a5760405163a9c8b14d60e01b815260040160405180910390fd5b6000613bb8613bb184670de0b6b3a7640000614bb8565b8490613950565b9050610b4881613d0a565b600080613bd08784613d96565b90506000613be16135ef888a614bd8565b9050670d529ae9e8600000811315613c1d57604051637e34684f60e11b815260048101829052670d529ae9e86000006024820152604401610fac565b6000613c2882613b70565b905085613c358289613950565b613c3f9190614bd8565b9350670de0b6b3a7640000841215613c6d5760405163329e322960e21b815260048101859052602401610fac565b50505095945050505050565b60006107fb82600019614c30565b60008060008312613c99576001613c9d565b6000195b90506138a261383185613caf86613b44565b613ddd565b60008060008312613cc6576001613cca565b6000195b90506138a261383185613cdc86613b44565b613df2565b805115613cf15780518082602001fd5b604051630a12f52160e11b815260040160405180910390fd5b6000808213613d4b5760405162461bcd60e51b815260206004820152600d60248201526c6f7574206f6620626f756e647360981b6044820152606401610fac565b670c7d713b49da000082138015613d695750670f43fc2c04ee000082125b15613d8d57670de0b6b3a7640000613d8083613e1e565b8161312b5761312b614663565b6107fb82613f3d565b600081831215613dd35760405162461bcd60e51b81526020600482015260086024820152676e6567617469766560c01b6044820152606401610fac565b610b488284614bb8565b600082610ba4670de0b6b3a76400008461464c565b600082600181613e0a670de0b6b3a76400008661464c565b613e149190614639565b610ba49190614626565b670de0b6b3a7640000026000806a0c097ce7bc90715b34b9f160241b808401906ec097ce7bc90715b34b9f0fffffffff1985010281613e5f57613e5f614663565b05905060006a0c097ce7bc90715b34b9f160241b82800205905081806a0c097ce7bc90715b34b9f160241b81840205915060038205016a0c097ce7bc90715b34b9f160241b82840205915060058205016a0c097ce7bc90715b34b9f160241b82840205915060078205016a0c097ce7bc90715b34b9f160241b82840205915060098205016a0c097ce7bc90715b34b9f160241b828402059150600b8205016a0c097ce7bc90715b34b9f160241b828402059150600d8205016a0c097ce7bc90715b34b9f160241b828402059150600f82050160020295945050505050565b6000670de0b6b3a7640000821215613f7e57613f75826a0c097ce7bc90715b34b9f160241b81613f6f57613f6f614663565b05613f3d565b60000392915050565b60007e1600ef3172e58d2e933ec884fde10064c63b5372d805e203c00000000000008312613fcf57770195e54c5dd42177f53a27172fa9ec630262827000000000830592506806f05b59d3b2000000015b73011798004d755d3c8bc8e03204cf44619e0000008312614007576b1425982cf597cd205cef7380830592506803782dace9d9000000015b606492830292026e01855144814a7ff805980ff0084000831261404f576e01855144814a7ff805980ff008400068056bc75e2d63100000840205925068ad78ebc5ac62000000015b6b02df0ab5a80a22c61ab5a700831261408a576b02df0ab5a80a22c61ab5a70068056bc75e2d6310000084020592506856bc75e2d631000000015b693f1fce3da636ea5cf85083126140c157693f1fce3da636ea5cf85068056bc75e2d631000008402059250682b5e3af16b18800000015b690127fa27722cc06cc5e283126140f857690127fa27722cc06cc5e268056bc75e2d6310000084020592506815af1d78b58c400000015b68280e60114edb805d03831261412d5768280e60114edb805d0368056bc75e2d631000008402059250680ad78ebc5ac6200000015b680ebc5fb41746121110831261415857680ebc5fb4174612111068056bc75e2d631000009384020592015b6808f00f760a4b2db55d831261418d576808f00f760a4b2db55d68056bc75e2d6310000084020592506802b5e3af16b1880000015b6806f5f177578893793783126141c2576806f5f177578893793768056bc75e2d63100000840205925068015af1d78b58c40000015b6806248f33704b28660383126141f6576806248f33704b28660368056bc75e2d63100000840205925067ad78ebc5ac620000015b6805c548670b9510e7ac831261422a576805c548670b9510e7ac68056bc75e2d6310000084020592506756bc75e2d6310000015b600068056bc75e2d63100000840168056bc75e2d63100000808603028161425357614253614663565b059050600068056bc75e2d63100000828002059050818068056bc75e2d63100000818402059150600382050168056bc75e2d63100000828402059150600582050168056bc75e2d63100000828402059150600782050168056bc75e2d63100000828402059150600982050168056bc75e2d63100000828402059150600b820501600202606485820105979650505050505050565b60005b838110156143025781810151838201526020016142ea565b50506000910152565b600081518084526143238160208601602086016142e7565b601f01601f19169290920160200192915050565b602081526000610b48602083018461430b565b60006020828403121561435c57600080fd5b5035919050565b6001600160a01b038116811461250e57600080fd5b6000806040838503121561438b57600080fd5b823561439681614363565b946020939093013593505050565b6000806000606084860312156143b957600080fd5b505081359360208301359350604090920135919050565b6000806000606084860312156143e557600080fd5b83356143f081614363565b9250602084013561440081614363565b929592945050506040919091013590565b60006020828403121561442357600080fd5b8135610b4881614363565b6000806040838503121561444157600080fd5b50508035926020909101359150565b60008060008060006080868803121561446857600080fd5b853561447381614363565b9450602086013561448381614363565b935060408601359250606086013567ffffffffffffffff808211156144a757600080fd5b818801915088601f8301126144bb57600080fd5b8135818111156144ca57600080fd5b8960208285010111156144dc57600080fd5b9699959850939650602001949392505050565b6000806040838503121561450257600080fd5b82359150602083013561451481614363565b809150509250929050565b60008060006060848603121561453457600080fd5b83359250602084013561454681614363565b9150604084013561455681614363565b809150509250925092565b60008060006060848603121561457657600080fd5b8335925060208401359150604084013561455681614363565b600080604083850312156145a257600080fd5b82356145ad81614363565b9150602083013561451481614363565b6000602082840312156145cf57600080fd5b5051919050565b600181811c908216806145ea57607f821691505b60208210810361460a57634e487b7160e01b600052602260045260246000fd5b50919050565b634e487b7160e01b600052601160045260246000fd5b818103818111156107fb576107fb614610565b808201808211156107fb576107fb614610565b80820281158282048414176107fb576107fb614610565b634e487b7160e01b600052601260045260246000fd5b60008261468857614688614663565b500490565b60ff81811683821601908111156107fb576107fb614610565b6001600160a01b03878116825286166020820152604081018590526060810184905260a06080820181905281018290526000828460c0840137600060c0848401015260c0601f19601f8501168301019050979650505050505050565b60006020828403121561471457600080fd5b81518015158114610b4857600080fd5b6001600160a01b039390931683526020830191909152604082015260600190565b600181815b8085111561478057816000190482111561476657614766614610565b8085161561477357918102915b93841c939080029061474a565b509250929050565b600082614797575060016107fb565b816147a4575060006107fb565b81600181146147ba57600281146147c4576147e0565b60019150506107fb565b60ff8411156147d5576147d5614610565b50506001821b6107fb565b5060208310610133831016604e8410600b8410161715614803575081810a6107fb565b61480d8383614745565b806000190482111561482157614821614610565b029392505050565b6000610b4860ff841683614788565b60008060006060848603121561484d57600080fd5b835161485881614363565b602085015190935061486981614363565b604085015190925061455681614363565b60018060a01b0384168152826020820152606060408201526000611420606083018461430b565b600080604083850312156148b457600080fd5b505080516020909101519092909150565b6040815260006148d8604083018561430b565b90508260208301529392505050565b6000602082840312156148f957600080fd5b81516001600160801b0381168114610b4857600080fd5b634e487b7160e01b600052604160045260246000fd5b604051610120810167ffffffffffffffff8111828210171561494a5761494a614910565b60405290565b604051601f8201601f1916810167ffffffffffffffff8111828210171561497957614979614910565b604052919050565b805161170081614363565b6000610120828403121561499f57600080fd5b6149a7614926565b8251815260208301516020820152604083015160408201526149cb60608401614981565b60608201526080830151608082015260a083015160a082015260c083015160c082015260e083015160e08201526101008084015181830152508091505092915050565b634e487b7160e01b600052602160045260246000fd5b600060ff831680614a3757614a37614663565b8060ff84160691505092915050565b634e487b7160e01b600052603260045260246000fd5b6020808252825182820181905260009190848201906040850190845b81811015614a9a57835163ffffffff1683529284019291840191600101614a78565b50909695505050505050565b60006020808385031215614ab957600080fd5b825167ffffffffffffffff80821115614ad157600080fd5b818501915085601f830112614ae557600080fd5b815181811115614af757614af7614910565b8060051b9150614b08848301614950565b8181529183018401918481019088841115614b2257600080fd5b938501935b83851015611f1257845192506001600160d81b0383168314614b495760008081fd5b8282529385019390850190614b27565b6001600160d81b03828116828216039080821115612a0c57612a0c614610565b60006001600160d81b0383811680614b9357614b93614663565b92169190910492915050565b600060018201614bb157614bb1614610565b5060010190565b8181036000831280158383131683831282161715612a0c57612a0c614610565b808201828112600083128015821682158216171561216057612160614610565b6000600160ff1b8201614c0d57614c0d614610565b5060000390565b60008251614c268184602087016142e7565b9190910192915050565b80820260008212600160ff1b84141615614c4c57614c4c614610565b81810583148215176107fb576107fb614610565b600082614c6f57614c6f614663565b600160ff1b821460001984141615614c8957614c89614610565b50059056fea26469706673582212202e2b7e2fd5d0c64966c002d636d151c161246b2925246344d344f4d98a3a231c64736f6c63430008140033","linkReferences":{}},"methodIdentifiers":{"LTV()":"62965d8e","SY()":"afd27bf5","YT()":"781c18db","allowance(address,address)":"dd62ed3e","approve(address,uint256)":"095ea7b3","asset()":"38d52e0f","balanceOf(address)":"70a08231","borrow(uint256,uint256,address)":"d6bda0c0","closeLong(uint256)":"128b1917","collateral()":"d8dfeb45","convertToAssets(uint256)":"07a2d13a","convertToShares(uint256)":"c6e6f592","decimals()":"313ce567","deposit(uint256,address)":"6e553f65","flashFee(address,uint256)":"d9d98ce4","flashLoan(address,address,uint256,bytes)":"5cffe9de","getCollateralRequired(uint256,uint256)":"8d1bc4ec","getMaxBorrow(uint256,uint256)":"4d378d6b","getRate()":"679aefce","getTermFee(uint256,uint256)":"5a7872eb","getTermFeeForAmount(uint256,uint256)":"43935d64","goLong(uint256,uint256,uint256)":"764f4cd2","liquidate(address,uint256)":"bcbaf487","loans(address)":"73b4086b","market()":"80f55605","maxDeposit(address)":"402d267d","maxFlashLoan(address)":"613255ab","maxLoanValue(uint256)":"81cdde9b","maxMint(address)":"c63d75b6","maxRedeem(address)":"d905777e","maxWithdraw(address)":"ce96cb77","mint(uint256,address)":"94bf804d","name()":"06fdde03","oracle()":"7dc0d1d0","outstandingValue()":"14189a7e","previewDeposit(uint256)":"ef8b30f7","previewMint(uint256)":"b3d7f6b9","previewRedeem(uint256)":"4cdad506","previewWithdraw(uint256)":"0a28a477","redeem(uint256,address,address)":"ba087652","repos(address,uint256)":"c28e8962","repurchase(uint256)":"64c96f85","rolloverLoan(uint256,uint256,uint256)":"19a45226","symbol()":"95d89b41","totalAssets()":"01e1d114","totalSupply()":"18160ddd","transfer(address,uint256)":"a9059cbb","transferFrom(address,address,uint256)":"23b872dd","withdraw(uint256,address,address)":"b460af94"},"id":57}