{"abi":[{"type":"constructor","inputs":[{"name":"_evc","type":"address","internalType":"contract IEVC"},{"name":"_asset","type":"address","internalType":"contract IERC20"},{"name":"_collateralVault","type":"address","internalType":"address"},{"name":"_oracle","type":"address","internalType":"address"}],"stateMutability":"nonpayable"},{"type":"function","name":"LTV","inputs":[],"outputs":[{"name":"","type":"uint256","internalType":"uint256"}],"stateMutability":"view"},{"type":"function","name":"allowance","inputs":[{"name":"owner","type":"address","internalType":"address"},{"name":"spender","type":"address","internalType":"address"}],"outputs":[{"name":"","type":"uint256","internalType":"uint256"}],"stateMutability":"view"},{"type":"function","name":"approve","inputs":[{"name":"spender","type":"address","internalType":"address"},{"name":"value","type":"uint256","internalType":"uint256"}],"outputs":[{"name":"","type":"bool","internalType":"bool"}],"stateMutability":"nonpayable"},{"type":"function","name":"asset","inputs":[],"outputs":[{"name":"","type":"address","internalType":"address"}],"stateMutability":"view"},{"type":"function","name":"balanceOf","inputs":[{"name":"account","type":"address","internalType":"address"}],"outputs":[{"name":"","type":"uint256","internalType":"uint256"}],"stateMutability":"view"},{"type":"function","name":"borrow","inputs":[{"name":"assets","type":"uint256","internalType":"uint256"},{"name":"term","type":"uint256","internalType":"uint256"},{"name":"receiver","type":"address","internalType":"address"}],"outputs":[],"stateMutability":"nonpayable"},{"type":"function","name":"checkAccountStatus","inputs":[{"name":"account","type":"address","internalType":"address"},{"name":"collaterals","type":"address[]","internalType":"address[]"}],"outputs":[{"name":"magicValue","type":"bytes4","internalType":"bytes4"}],"stateMutability":"view"},{"type":"function","name":"checkVaultStatus","inputs":[],"outputs":[{"name":"magicValue","type":"bytes4","internalType":"bytes4"}],"stateMutability":"nonpayable"},{"type":"function","name":"collateral","inputs":[],"outputs":[{"name":"","type":"address","internalType":"contract IPPrincipalToken"}],"stateMutability":"view"},{"type":"function","name":"collateralFactor","inputs":[{"name":"","type":"address","internalType":"address"}],"outputs":[{"name":"","type":"uint256","internalType":"uint256"}],"stateMutability":"view"},{"type":"function","name":"collateralVault","inputs":[],"outputs":[{"name":"","type":"address","internalType":"contract IFixedYieldCollateralVault"}],"stateMutability":"view"},{"type":"function","name":"convertToAssets","inputs":[{"name":"shares","type":"uint256","internalType":"uint256"}],"outputs":[{"name":"","type":"uint256","internalType":"uint256"}],"stateMutability":"view"},{"type":"function","name":"convertToShares","inputs":[{"name":"assets","type":"uint256","internalType":"uint256"}],"outputs":[{"name":"","type":"uint256","internalType":"uint256"}],"stateMutability":"view"},{"type":"function","name":"decimals","inputs":[],"outputs":[{"name":"","type":"uint8","internalType":"uint8"}],"stateMutability":"view"},{"type":"function","name":"deposit","inputs":[{"name":"assets","type":"uint256","internalType":"uint256"},{"name":"receiver","type":"address","internalType":"address"}],"outputs":[{"name":"shares","type":"uint256","internalType":"uint256"}],"stateMutability":"nonpayable"},{"type":"function","name":"disableController","inputs":[],"outputs":[],"stateMutability":"nonpayable"},{"type":"function","name":"getMaxBorrow","inputs":[{"name":"_collateralValue","type":"uint256","internalType":"uint256"},{"name":"_term","type":"uint256","internalType":"uint256"}],"outputs":[{"name":"","type":"uint256","internalType":"uint256"}],"stateMutability":"view"},{"type":"function","name":"getRate","inputs":[],"outputs":[{"name":"","type":"uint256","internalType":"uint256"}],"stateMutability":"view"},{"type":"function","name":"getRepoLoan","inputs":[{"name":"account","type":"address","internalType":"address"},{"name":"loandIndex","type":"uint256","internalType":"uint256"}],"outputs":[{"name":"collateral","type":"uint256","internalType":"uint256"},{"name":"repurchasePrice","type":"uint256","internalType":"uint256"},{"name":"term","type":"uint256","internalType":"uint256"}],"stateMutability":"view"},{"type":"function","name":"getTermFee","inputs":[{"name":"_collateralValue","type":"uint256","internalType":"uint256"},{"name":"_term","type":"uint256","internalType":"uint256"}],"outputs":[{"name":"","type":"uint256","internalType":"uint256"}],"stateMutability":"view"},{"type":"function","name":"getTermFeeForAmount","inputs":[{"name":"_amount","type":"uint256","internalType":"uint256"},{"name":"_term","type":"uint256","internalType":"uint256"}],"outputs":[{"name":"","type":"uint256","internalType":"uint256"}],"stateMutability":"view"},{"type":"function","name":"liquidate","inputs":[{"name":"_borrower","type":"address","internalType":"address"},{"name":"_loanIndex","type":"uint256","internalType":"uint256"}],"outputs":[],"stateMutability":"nonpayable"},{"type":"function","name":"loans","inputs":[{"name":"","type":"address","internalType":"address"}],"outputs":[{"name":"","type":"uint256","internalType":"uint256"}],"stateMutability":"view"},{"type":"function","name":"maxDeposit","inputs":[{"name":"","type":"address","internalType":"address"}],"outputs":[{"name":"","type":"uint256","internalType":"uint256"}],"stateMutability":"view"},{"type":"function","name":"maxLoanValue","inputs":[{"name":"_collateralValue","type":"uint256","internalType":"uint256"}],"outputs":[{"name":"","type":"uint256","internalType":"uint256"}],"stateMutability":"view"},{"type":"function","name":"maxMint","inputs":[{"name":"","type":"address","internalType":"address"}],"outputs":[{"name":"","type":"uint256","internalType":"uint256"}],"stateMutability":"view"},{"type":"function","name":"maxRedeem","inputs":[{"name":"owner","type":"address","internalType":"address"}],"outputs":[{"name":"","type":"uint256","internalType":"uint256"}],"stateMutability":"view"},{"type":"function","name":"maxWithdraw","inputs":[{"name":"owner","type":"address","internalType":"address"}],"outputs":[{"name":"","type":"uint256","internalType":"uint256"}],"stateMutability":"view"},{"type":"function","name":"mint","inputs":[{"name":"shares","type":"uint256","internalType":"uint256"},{"name":"receiver","type":"address","internalType":"address"}],"outputs":[{"name":"assets","type":"uint256","internalType":"uint256"}],"stateMutability":"nonpayable"},{"type":"function","name":"name","inputs":[],"outputs":[{"name":"","type":"string","internalType":"string"}],"stateMutability":"view"},{"type":"function","name":"oracle","inputs":[],"outputs":[{"name":"","type":"address","internalType":"contract PtUsdOracle"}],"stateMutability":"view"},{"type":"function","name":"owner","inputs":[],"outputs":[{"name":"","type":"address","internalType":"address"}],"stateMutability":"view"},{"type":"function","name":"pledgedCollateral","inputs":[{"name":"","type":"address","internalType":"address"}],"outputs":[{"name":"","type":"uint256","internalType":"uint256"}],"stateMutability":"view"},{"type":"function","name":"previewDeposit","inputs":[{"name":"assets","type":"uint256","internalType":"uint256"}],"outputs":[{"name":"","type":"uint256","internalType":"uint256"}],"stateMutability":"view"},{"type":"function","name":"previewMint","inputs":[{"name":"shares","type":"uint256","internalType":"uint256"}],"outputs":[{"name":"","type":"uint256","internalType":"uint256"}],"stateMutability":"view"},{"type":"function","name":"previewRedeem","inputs":[{"name":"shares","type":"uint256","internalType":"uint256"}],"outputs":[{"name":"","type":"uint256","internalType":"uint256"}],"stateMutability":"view"},{"type":"function","name":"previewWithdraw","inputs":[{"name":"assets","type":"uint256","internalType":"uint256"}],"outputs":[{"name":"","type":"uint256","internalType":"uint256"}],"stateMutability":"view"},{"type":"function","name":"redeem","inputs":[{"name":"shares","type":"uint256","internalType":"uint256"},{"name":"receiver","type":"address","internalType":"address"},{"name":"owner","type":"address","internalType":"address"}],"outputs":[{"name":"assets","type":"uint256","internalType":"uint256"}],"stateMutability":"nonpayable"},{"type":"function","name":"renounceOwnership","inputs":[],"outputs":[],"stateMutability":"nonpayable"},{"type":"function","name":"repos","inputs":[{"name":"","type":"address","internalType":"address"},{"name":"","type":"uint256","internalType":"uint256"}],"outputs":[{"name":"collateralAmount","type":"uint256","internalType":"uint256"},{"name":"repurchasePrice","type":"uint256","internalType":"uint256"},{"name":"termExpires","type":"uint256","internalType":"uint256"}],"stateMutability":"view"},{"type":"function","name":"repurchase","inputs":[{"name":"receiver","type":"address","internalType":"address"},{"name":"_loanIndex","type":"uint256","internalType":"uint256"}],"outputs":[],"stateMutability":"nonpayable"},{"type":"function","name":"setCollateralFactor","inputs":[{"name":"_asset","type":"address","internalType":"address"},{"name":"_collateralFactor","type":"uint256","internalType":"uint256"}],"outputs":[],"stateMutability":"nonpayable"},{"type":"function","name":"supplyCap","inputs":[],"outputs":[{"name":"","type":"uint256","internalType":"uint256"}],"stateMutability":"view"},{"type":"function","name":"symbol","inputs":[],"outputs":[{"name":"","type":"string","internalType":"string"}],"stateMutability":"view"},{"type":"function","name":"totalAssets","inputs":[],"outputs":[{"name":"","type":"uint256","internalType":"uint256"}],"stateMutability":"view"},{"type":"function","name":"totalSupply","inputs":[],"outputs":[{"name":"","type":"uint256","internalType":"uint256"}],"stateMutability":"view"},{"type":"function","name":"transfer","inputs":[{"name":"to","type":"address","internalType":"address"},{"name":"amount","type":"uint256","internalType":"uint256"}],"outputs":[{"name":"","type":"bool","internalType":"bool"}],"stateMutability":"nonpayable"},{"type":"function","name":"transferFrom","inputs":[{"name":"from","type":"address","internalType":"address"},{"name":"to","type":"address","internalType":"address"},{"name":"amount","type":"uint256","internalType":"uint256"}],"outputs":[{"name":"","type":"bool","internalType":"bool"}],"stateMutability":"nonpayable"},{"type":"function","name":"transferOwnership","inputs":[{"name":"newOwner","type":"address","internalType":"address"}],"outputs":[],"stateMutability":"nonpayable"},{"type":"function","name":"withdraw","inputs":[{"name":"assets","type":"uint256","internalType":"uint256"},{"name":"receiver","type":"address","internalType":"address"},{"name":"owner","type":"address","internalType":"address"}],"outputs":[{"name":"shares","type":"uint256","internalType":"uint256"}],"stateMutability":"nonpayable"},{"type":"event","name":"Approval","inputs":[{"name":"owner","type":"address","indexed":true,"internalType":"address"},{"name":"spender","type":"address","indexed":true,"internalType":"address"},{"name":"value","type":"uint256","indexed":false,"internalType":"uint256"}],"anonymous":false},{"type":"event","name":"Borrow","inputs":[{"name":"borrower","type":"address","indexed":true,"internalType":"address"},{"name":"receiver","type":"address","indexed":true,"internalType":"address"},{"name":"assets","type":"uint256","indexed":false,"internalType":"uint256"}],"anonymous":false},{"type":"event","name":"Deposit","inputs":[{"name":"sender","type":"address","indexed":true,"internalType":"address"},{"name":"owner","type":"address","indexed":true,"internalType":"address"},{"name":"assets","type":"uint256","indexed":false,"internalType":"uint256"},{"name":"shares","type":"uint256","indexed":false,"internalType":"uint256"}],"anonymous":false},{"type":"event","name":"OwnershipTransferred","inputs":[{"name":"previousOwner","type":"address","indexed":true,"internalType":"address"},{"name":"newOwner","type":"address","indexed":true,"internalType":"address"}],"anonymous":false},{"type":"event","name":"Repay","inputs":[{"name":"borrower","type":"address","indexed":true,"internalType":"address"},{"name":"receiver","type":"address","indexed":true,"internalType":"address"},{"name":"assets","type":"uint256","indexed":false,"internalType":"uint256"}],"anonymous":false},{"type":"event","name":"SupplyCapSet","inputs":[{"name":"newSupplyCap","type":"uint256","indexed":false,"internalType":"uint256"}],"anonymous":false},{"type":"event","name":"Transfer","inputs":[{"name":"from","type":"address","indexed":true,"internalType":"address"},{"name":"to","type":"address","indexed":true,"internalType":"address"},{"name":"value","type":"uint256","indexed":false,"internalType":"uint256"}],"anonymous":false},{"type":"event","name":"Withdraw","inputs":[{"name":"sender","type":"address","indexed":true,"internalType":"address"},{"name":"receiver","type":"address","indexed":true,"internalType":"address"},{"name":"owner","type":"address","indexed":true,"internalType":"address"},{"name":"assets","type":"uint256","indexed":false,"internalType":"uint256"},{"name":"shares","type":"uint256","indexed":false,"internalType":"uint256"}],"anonymous":false},{"type":"error","name":"AddressEmptyCode","inputs":[{"name":"target","type":"address","internalType":"address"}]},{"type":"error","name":"AddressInsufficientBalance","inputs":[{"name":"account","type":"address","internalType":"address"}]},{"type":"error","name":"ControllerDisabled","inputs":[]},{"type":"error","name":"ERC20InsufficientAllowance","inputs":[{"name":"spender","type":"address","internalType":"address"},{"name":"allowance","type":"uint256","internalType":"uint256"},{"name":"needed","type":"uint256","internalType":"uint256"}]},{"type":"error","name":"ERC20InsufficientBalance","inputs":[{"name":"sender","type":"address","internalType":"address"},{"name":"balance","type":"uint256","internalType":"uint256"},{"name":"needed","type":"uint256","internalType":"uint256"}]},{"type":"error","name":"ERC20InvalidApprover","inputs":[{"name":"approver","type":"address","internalType":"address"}]},{"type":"error","name":"ERC20InvalidReceiver","inputs":[{"name":"receiver","type":"address","internalType":"address"}]},{"type":"error","name":"ERC20InvalidSender","inputs":[{"name":"sender","type":"address","internalType":"address"}]},{"type":"error","name":"ERC20InvalidSpender","inputs":[{"name":"spender","type":"address","internalType":"address"}]},{"type":"error","name":"ERC4626ExceededMaxDeposit","inputs":[{"name":"receiver","type":"address","internalType":"address"},{"name":"assets","type":"uint256","internalType":"uint256"},{"name":"max","type":"uint256","internalType":"uint256"}]},{"type":"error","name":"ERC4626ExceededMaxMint","inputs":[{"name":"receiver","type":"address","internalType":"address"},{"name":"shares","type":"uint256","internalType":"uint256"},{"name":"max","type":"uint256","internalType":"uint256"}]},{"type":"error","name":"ERC4626ExceededMaxRedeem","inputs":[{"name":"owner","type":"address","internalType":"address"},{"name":"shares","type":"uint256","internalType":"uint256"},{"name":"max","type":"uint256","internalType":"uint256"}]},{"type":"error","name":"ERC4626ExceededMaxWithdraw","inputs":[{"name":"owner","type":"address","internalType":"address"},{"name":"assets","type":"uint256","internalType":"uint256"},{"name":"max","type":"uint256","internalType":"uint256"}]},{"type":"error","name":"FailedInnerCall","inputs":[]},{"type":"error","name":"InvalidCollateralFactor","inputs":[]},{"type":"error","name":"MathOverflowedMulDiv","inputs":[]},{"type":"error","name":"NotAuthorized","inputs":[]},{"type":"error","name":"OwnableInvalidOwner","inputs":[{"name":"owner","type":"address","internalType":"address"}]},{"type":"error","name":"OwnableUnauthorizedAccount","inputs":[{"name":"account","type":"address","internalType":"address"}]},{"type":"error","name":"REPO__CollateralExpired","inputs":[]},{"type":"error","name":"REPO__InvalidTerm","inputs":[]},{"type":"error","name":"REPO__LiquidationImpaired","inputs":[]},{"type":"error","name":"REPO__LoanTermNotExpired","inputs":[]},{"type":"error","name":"REPO__MaxLoanExceeded","inputs":[]},{"type":"error","name":"REPO__NotEnoughCollateralPledged","inputs":[]},{"type":"error","name":"REPO__ZeroAmount","inputs":[]},{"type":"error","name":"Reentrancy","inputs":[]},{"type":"error","name":"SafeERC20FailedOperation","inputs":[{"name":"token","type":"address","internalType":"address"}]},{"type":"error","name":"SharesSeizureFailed","inputs":[]},{"type":"error","name":"SnapshotNotTaken","inputs":[]},{"type":"error","name":"SupplyCapExceeded","inputs":[]},{"type":"error","name":"ViolatorStatusCheckDeferred","inputs":[]}],"bytecode":{"object":"0x60e0604052620f4240601155620f4240601255620f1b306013553480156200002657600080fd5b506040516200406e3803806200406e8339810160408190526200004991620004e8565b8383836001600160a01b03166306fdde036040518163ffffffff1660e01b8152600401600060405180830381865afa1580156200008a573d6000803e3d6000fd5b505050506040513d6000823e601f3d908101601f19168201604052620000b491908101906200058c565b856001600160a01b03166306fdde036040518163ffffffff1660e01b8152600401600060405180830381865afa158015620000f3573d6000803e3d6000fd5b505050506040513d6000823e601f3d908101601f191682016040526200011d91908101906200058c565b6040516020016200013092919062000644565b604051602081830303815290604052846001600160a01b03166395d89b416040518163ffffffff1660e01b8152600401600060405180830381865afa1580156200017e573d6000803e3d6000fd5b505050506040513d6000823e601f3d908101601f19168201604052620001a891908101906200058c565b866001600160a01b03166395d89b416040518163ffffffff1660e01b8152600401600060405180830381865afa158015620001e7573d6000803e3d6000fd5b505050506040513d6000823e601f3d908101601f191682016040526200021191908101906200058c565b6040516020016200022492919062000686565b60408051601f198184030181529190526001600160a01b038416608052600160005533838383600562000258838262000755565b50600662000267828262000755565b5050506000806200027e836200039860201b60201c565b91509150816200029057601262000292565b805b60ff1660c05250506001600160a01b0390811660a0528116620002cf57604051631e4fbdf760e01b81526000600482015260240160405180910390fd5b620002da816200047d565b5050601680546001600160a01b0319166001600160a01b038716908117909155604080516338d52e0f60e01b815290519194506338d52e0f935060048082019350602092918290030181865afa15801562000339573d6000803e3d6000fd5b505050506040513d601f19601f820116820180604052508101906200035f919062000821565b601580546001600160a01b039283166001600160a01b031991821617909155601480549390921692169190911790555062000880915050565b60408051600481526024810182526020810180516001600160e01b031663313ce56760e01b17905290516000918291829182916001600160a01b03871691620003e19162000848565b600060405180830381855afa9150503d80600081146200041e576040519150601f19603f3d011682016040523d82523d6000602084013e62000423565b606091505b50915091508180156200043857506020815110155b15620004705760008180602001905181019062000456919062000866565b905060ff81116200046e576001969095509350505050565b505b5060009485945092505050565b600780546001600160a01b038381166001600160a01b0319831681179093556040519116919082907f8be0079c531659141344cd1fd0a4f28419497f9722a3daafe3b4186f6b6457e090600090a35050565b6001600160a01b0381168114620004e557600080fd5b50565b60008060008060808587031215620004ff57600080fd5b84516200050c81620004cf565b60208601519094506200051f81620004cf565b60408601519093506200053281620004cf565b60608601519092506200054581620004cf565b939692955090935050565b634e487b7160e01b600052604160045260246000fd5b60005b838110156200058357818101518382015260200162000569565b50506000910152565b6000602082840312156200059f57600080fd5b81516001600160401b0380821115620005b757600080fd5b818401915084601f830112620005cc57600080fd5b815181811115620005e157620005e162000550565b604051601f8201601f19908116603f011681019083821181831017156200060c576200060c62000550565b816040528281528760208487010111156200062657600080fd5b6200063983602083016020880162000566565b979650505050505050565b600083516200065881846020880162000566565b620103c160ed1b90830190815283516200067a81600384016020880162000566565b01600301949350505050565b600083516200069a81846020880162000566565b600f60fb1b9083019081528351620006ba81600184016020880162000566565b01600101949350505050565b600181811c90821680620006db57607f821691505b602082108103620006fc57634e487b7160e01b600052602260045260246000fd5b50919050565b601f8211156200075057600081815260208120601f850160051c810160208610156200072b5750805b601f850160051c820191505b818110156200074c5782815560010162000737565b5050505b505050565b81516001600160401b0381111562000771576200077162000550565b6200078981620007828454620006c6565b8462000702565b602080601f831160018114620007c15760008415620007a85750858301515b600019600386901b1c1916600185901b1785556200074c565b600085815260208120601f198616915b82811015620007f257888601518255948401946001909101908401620007d1565b5085821015620008115787850151600019600388901b60f8161c191681555b5050505050600190811b01905550565b6000602082840312156200083457600080fd5b81516200084181620004cf565b9392505050565b600082516200085c81846020870162000566565b9190910192915050565b6000602082840312156200087957600080fd5b5051919050565b60805160a05160c0516136de6200099060003960006109b10152600081816103b201528181610d920152818161143401528181611788015281816129420152612a5701526000818161087f0152818161091401528181610a1a01528181610a4401528181610c1301528181610cbd01528181610f5a01528181610fe901528181611076015281816110a0015281816111740152818161120401528181611283015281816115cd01528181611ab901528181611b4c01528181611c7201528181611da301528181611dde01528181611e7f01528181611f3b0152818161208f01528181612351015281816123c20152818161250a0152818161255b0152818161265e015261269a01526136de6000f3fe608060405234801561001057600080fd5b50600436106102d65760003560e01c8063869e50c711610182578063bcbaf487116100e9578063d6bda0c0116100a2578063dd62ed3e1161007c578063dd62ed3e146106fb578063ef8b30f714610734578063f2fde38b14610747578063fbcc6f5e1461075a57600080fd5b8063d6bda0c0146106c2578063d8dfeb45146106d5578063d905777e146106e857600080fd5b8063bcbaf4871461063c578063c04f31ff1461064f578063c28e896214610662578063c63d75b6146103d6578063c6e6f5921461069c578063ce96cb77146106af57600080fd5b8063a9059cbb1161013b578063a9059cbb146105bd578063b03afd47146105d0578063b168c58f146105f0578063b3d7f6b914610603578063b460af9414610616578063ba0876521461062957600080fd5b8063869e50c7146105085780638da5cb5b146105105780638e9ce760146105215780638f770ad01461059957806394bf804d146105a257806395d89b41146105b557600080fd5b80634b3d1223116102415780636e553f65116101fa578063715e0e4e116101d4578063715e0e4e146104af57806373b4086b146104c25780637dc0d1d0146104e257806381cdde9b146104f557600080fd5b80636e553f651461046957806370a082311461047c578063715018a6146104a557600080fd5b80634b3d1223146103fe5780634cdad5061461041f5780634d378d6b146104325780635a7872eb1461044557806362965d8e14610458578063679aefce1461046157600080fd5b806318160ddd1161029357806318160ddd1461037b57806323b872dd14610383578063313ce5671461039657806338d52e0f146103b0578063402d267d146103d657806343935d64146103eb57600080fd5b806301e1d114146102db57806306fdde03146102f257806307a2d13a14610307578063095ea7b31461031a5780630a28a4771461033d5780630bece79c14610350575b600080fd5b6008545b6040519081526020015b60405180910390f35b6102fa61077a565b6040516102e99190612f17565b6102df610315366004612f2a565b61080c565b61032d610328366004612f58565b610842565b60405190151581526020016102e9565b6102df61034b366004612f2a565b610866565b601654610363906001600160a01b031681565b6040516001600160a01b0390911681526020016102e9565b6004546102df565b61032d610391366004612f84565b610873565b61039e6109a9565b60405160ff90911681526020016102e9565b7f0000000000000000000000000000000000000000000000000000000000000000610363565b6102df6103e4366004612fc5565b5060001990565b6102df6103f9366004612fe2565b6109da565b610406610a0d565b6040516001600160e01b031990911681526020016102e9565b6102df61042d366004612f2a565b610b8f565b6102df610440366004612fe2565b610b9c565b6102df610453366004612fe2565b610be8565b6102df60135481565b61012c6102df565b6102df610477366004613004565b610c07565b6102df61048a366004612fc5565b6001600160a01b031660009081526002602052604090205490565b6104ad610c9f565b005b6104ad6104bd366004612f58565b610cb3565b6102df6104d0366004612fc5565b600c6020526000908152604090205481565b601454610363906001600160a01b031681565b6102df610503366004612f2a565b610ef2565b6104ad610f0f565b6007546001600160a01b0316610363565b61057e61052f366004612f58565b6001600160a01b0382166000908152600b602090815260408083208484528252918290208251606081018452815480825260018301549382018490526002909201549301839052919250925092565b604080519384526020840192909252908201526060016102e9565b6102df60095481565b6102df6105b0366004613004565b610f4e565b6102fa610fce565b61032d6105cb366004612f58565b610fdd565b6102df6105de366004612fc5565b600d6020526000908152604090205481565b6104066105fe366004613034565b611069565b6102df610611366004612f2a565b61115b565b6102df6106243660046130bc565b611168565b6102df6106373660046130bc565b6111f8565b6104ad61064a366004612f58565b611279565b6104ad61065d366004612f58565b61152a565b61057e610670366004612f58565b600b60209081526000928352604080842090915290825290208054600182015460029092015490919083565b6102df6106aa366004612f2a565b611571565b6102df6106bd366004612fc5565b61159f565b6104ad6106d03660046130fe565b6115c3565b601554610363906001600160a01b031681565b6102df6106f6366004612fc5565b611978565b6102df61070936600461312c565b6001600160a01b03918216600090815260036020908152604080832093909416825291909152205490565b6102df610742366004612f2a565b611996565b6104ad610755366004612fc5565b6119a3565b6102df610768366004612fc5565b600e6020526000908152604090205481565b6060600580546107899061315a565b80601f01602080910402602001604051908101604052809291908181526020018280546107b59061315a565b80156108025780601f106107d757610100808354040283529160200191610802565b820191906000526020600020905b8154815290600101906020018083116107e557829003601f168201915b5050505050905090565b60006001600054146108315760405163558a1e0360e11b815260040160405180910390fd5b61083a82610b8f565b90505b919050565b60008061084d6119e6565b905061085a8185856119f0565b60019150505b92915050565b600061083a8260016119fd565b60006001600160a01b037f00000000000000000000000000000000000000000000000000000000000000001633036108fa576001600054146108c85760405163558a1e0360e11b815260040160405180910390fd5b60026000556108d5611a50565b60006108e2858585611a7b565b90506108ed85611aa9565b90505b60016000556109a2565b604051631f8b521560e01b81526000906001600160a01b037f00000000000000000000000000000000000000000000000000000000000000001690631f8b521590610951903090339086908190369060040161318e565b6000604051808303816000875af1158015610970573d6000803e3d6000fd5b505050506040513d6000823e601f3d908101601f1916820160405261099891908101906131f8565b9050805181602001f35b9392505050565b60006109d5817f00000000000000000000000000000000000000000000000000000000000000006132bb565b905090565b6000601254620151806109ed91906132d4565b6109f98361012c6132d4565b610a0390856132d4565b6109a29190613301565b6000336001600160a01b037f000000000000000000000000000000000000000000000000000000000000000016141580610ac657507f00000000000000000000000000000000000000000000000000000000000000006001600160a01b031663e21e537c6040518163ffffffff1660e01b8152600401602060405180830381865afa158015610aa0573d6000803e3d6000fd5b505050506040513d601f19601f82011682018060405250810190610ac49190613325565b155b15610ae45760405163ea8e4eb560e01b815260040160405180910390fd5b610b7760018054610af49061315a565b80601f0160208091040260200160405190810160405280929190818152602001828054610b209061315a565b8015610b6d5780601f10610b4257610100808354040283529160200191610b6d565b820191906000526020600020905b815481529060010190602001808311610b5057829003601f168201915b5050505050611b91565b610b8360016000612e79565b50634b3d122360e01b90565b600061083a826000611c09565b600060125462015180610baf91906132d4565b610bbb8361012c6132d4565b601254610bcb90620151806132d4565b610bd59190613340565b610bde85610ef2565b610a0391906132d4565b6000610bf48383610b9c565b610bfd84610ef2565b6109a29190613340565b60006001600160a01b037f00000000000000000000000000000000000000000000000000000000000000001633036108fa57600160005414610c5c5760405163558a1e0360e11b815260040160405180910390fd5b6002600055610c69611a50565b610c738383611c4b565b90508260086000828254610c879190613353565b90915550610c959050611c70565b6001600055610860565b610ca7611ce5565b610cb16000611d43565b565b6001600160a01b037f00000000000000000000000000000000000000000000000000000000000000001633036108fa57600160005414610d065760405163558a1e0360e11b815260040160405180910390fd5b60026000908155610d15611d95565b9050610d218330611f11565b610d3e576040516359cf0f3760e11b815260040160405180910390fd5b6001600160a01b0383166000908152600b602090815260408083208584528252918290208251606081018452815481526001820154928101929092526002015491810191909152610d8d611a50565b610dbe7f00000000000000000000000000000000000000000000000000000000000000005b83308460200151611fa8565b806020015160086000828254610dd49190613353565b9091555050805160108054600090610ded908490613340565b909155505080516001600160a01b0385166000908152600d602052604081208054909190610e1c908490613340565b92505081905550610e3184826020015161200f565b6001600160a01b0384166000818152600b60209081526040808320878452825280832083815560018082018590556002909101849055938352600c90915281208054909190610e81908490613340565b92505081905550836001600160a01b0316826001600160a01b03167f05f2eeda0e08e4b437f487c8d7d29b14537d15e3488170dc3de5dbdf8dac46848360200151604051610ed191815260200190565b60405180910390a3610ee36000611aa9565b505060016000555050565b5050565b600060125460135483610f0591906132d4565b61083a9190613301565b600160005414610f325760405163558a1e0360e11b815260040160405180910390fd5b6002600055610f47610f426119e6565b612070565b6001600055565b60006001600160a01b037f00000000000000000000000000000000000000000000000000000000000000001633036108fa57600160005414610fa35760405163558a1e0360e11b815260040160405180910390fd5b6002600055610fb0611a50565b610fba83836120be565b90508060086000828254610c879190613353565b6060600680546107899061315a565b60006001600160a01b037f00000000000000000000000000000000000000000000000000000000000000001633036108fa576001600054146110325760405163558a1e0360e11b815260040160405180910390fd5b600260005561103f611a50565b600061104b84846120e3565b905061105d6110586119e6565b611aa9565b90506001600055610860565b6000336001600160a01b037f00000000000000000000000000000000000000000000000000000000000000001614158061112257507f00000000000000000000000000000000000000000000000000000000000000006001600160a01b031663e21e537c6040518163ffffffff1660e01b8152600401602060405180830381865afa1580156110fc573d6000803e3d6000fd5b505050506040513d601f19601f820116820180604052508101906111209190613325565b155b156111405760405163ea8e4eb560e01b815260040160405180910390fd5b61114b8484846120fb565b5063b168c58f60e01b9392505050565b600061083a826001611c09565b60006001600160a01b037f00000000000000000000000000000000000000000000000000000000000000001633036108fa576001600054146111bd5760405163558a1e0360e11b815260040160405180910390fd5b60026000556111ca611a50565b6111d584848461227a565b905083600860008282546111e99190613340565b909155506108f0905082611aa9565b60006001600160a01b037f00000000000000000000000000000000000000000000000000000000000000001633036108fa5760016000541461124d5760405163558a1e0360e11b815260040160405180910390fd5b600260005561125a611a50565b6112658484846122d9565b905080600860008282546111e99190613340565b6001600160a01b037f00000000000000000000000000000000000000000000000000000000000000001633036108fa576001600054146112cc5760405163558a1e0360e11b815260040160405180910390fd5b600260009081556112db611d95565b9050601560009054906101000a90046001600160a01b03166001600160a01b0316632f13b60c6040518163ffffffff1660e01b8152600401602060405180830381865afa158015611330573d6000803e3d6000fd5b505050506040513d601f19601f820116820180604052508101906113549190613325565b156113725760405163144c7e8b60e01b815260040160405180910390fd5b6001600160a01b0383166000908152600b6020908152604080832085845282529182902082516060810184528154815260018201549281019290925260020154918101829052904210156113d9576040516318a2405160e01b815260040160405180910390fd5b6113e28461232f565b156114005760405163c9286d5760e01b815260040160405180910390fd5b61140a8430611f11565b611427576040516359cf0f3760e11b815260040160405180910390fd5b61142f611a50565b6114587f0000000000000000000000000000000000000000000000000000000000000000610db2565b6016548151611474916001600160a01b031690869085906123be565b61147d846124eb565b805160108054600090611491908490613340565b90915550506020810151600880546000906114ad908490613353565b925050819055506114c284826020015161200f565b6001600160a01b0384166000908152600c602052604081208054600192906114eb908490613340565b90915550506001600160a01b0384166000908152600b6020908152604080832086845290915281208181556001810182905560020155610ee382611aa9565b611532611ce5565b601154811115611555576040516302f22cad60e61b815260040160405180910390fd5b6001600160a01b039091166000908152600e6020526040902055565b60006001600054146115965760405163558a1e0360e11b815260040160405180910390fd5b61083a82611996565b6001600160a01b03811660009081526002602052604081205461083a906000611c09565b6001600160a01b037f00000000000000000000000000000000000000000000000000000000000000001633036108fa576001600054146116165760405163558a1e0360e11b815260040160405180910390fd5b60026000908155611625611d95565b905061162f611a50565b601560009054906101000a90046001600160a01b03166001600160a01b0316632f13b60c6040518163ffffffff1660e01b8152600401602060405180830381865afa158015611682573d6000803e3d6000fd5b505050506040513d601f19601f820116820180604052508101906116a69190613325565b156116c45760405163144c7e8b60e01b815260040160405180910390fd5b836000036116e557604051631d92ba9f60e11b815260040160405180910390fd5b620151808310156117095760405163352885c360e21b815260040160405180910390fd5b61171282612539565b9150600061172085856109da565b61172a9086613353565b905061173682826125c8565b826001600160a01b0316826001600160a01b03167f312a5e5e1079f5dda4e95dbbd0b908b291fd5b992ef22073643ab691572c5b528360405161177b91815260200190565b60405180910390a36117ae7f00000000000000000000000000000000000000000000000000000000000000008487612620565b6000601354601254836117c191906132d4565b6117cb9190613301565b90506000601460009054906101000a90046001600160a01b03166001600160a01b031663bc3ff1dc6040518163ffffffff1660e01b8152600401602060405180830381865afa158015611822573d6000803e3d6000fd5b505050506040513d601f19601f820116820180604052508101906118469190613366565b61185883670de0b6b3a76400006132d4565b6118629190613301565b6001600160a01b0385166000908152600d602052604081208054929350839290919061188f908490613353565b90915550506001600160a01b0384166000908152600c602052604081208054600192906118bd908490613353565b909155505060408051606081018252828152602081018590529081016118e38842613353565b90526001600160a01b0385166000908152600b60209081526040808320600c835281842054845282528083208451815591840151600183015592909201516002909201919091556008805489929061193c908490613340565b9250508190555080601060008282546119559190613353565b90915550611964905084611aa9565b50506001600055506119739050565b505050565b6001600160a01b03811660009081526002602052604081205461083a565b600061083a8260006119fd565b6119ab611ce5565b6001600160a01b0381166119da57604051631e4fbdf760e01b8152600060048201526024015b60405180910390fd5b6119e381611d43565b50565b60006109d5612651565b6119738383836001612713565b600080600f54611a0c60085490565b611a169190613353565b9050611a48611a276000600a613463565b600454611a349190613353565b611a3f836001613353565b869190866127e8565b949350505050565b60018054611a5d9061315a565b9050600003610cb157611a6e612837565b6001906119e390826134c0565b600080611a866119e6565b9050611a93858285612879565b611a9e8585856128de565b506001949350505050565b6001600160a01b038116611b2d577f00000000000000000000000000000000000000000000000000000000000000006001600160a01b031663a37d54af6040518163ffffffff1660e01b8152600401600060405180830381600087803b158015611b1257600080fd5b505af1158015611b26573d6000803e3d6000fd5b5050505050565b6040516330f3166760e01b81526001600160a01b0382811660048301527f000000000000000000000000000000000000000000000000000000000000000016906330f31667906024015b600060405180830381600087803b158015611b1257600080fd5b8051600003611bb3576040516332e17beb60e21b815260040160405180910390fd5b600080600083806020019051810190611bcc9190613580565b600854600f546010549497509295509093509180821115611c005760405163e400f71160e01b815260040160405180910390fd5b50505050505050565b600080600f54611c1860085490565b611c229190613353565b9050611a48611c32826001613353565b611c3e6000600a613463565b600454611a3f9190613353565b60006000196000611c5b85611996565b9050611a48611c686119e6565b85878461293d565b7f00000000000000000000000000000000000000000000000000000000000000006001600160a01b031663a37d54af6040518163ffffffff1660e01b8152600401600060405180830381600087803b158015611ccb57600080fd5b505af1158015611cdf573d6000803e3d6000fd5b50505050565b611ced6119e6565b6001600160a01b0316611d086007546001600160a01b031690565b6001600160a01b031614610cb157611d1e6119e6565b60405163118cdaa760e01b81526001600160a01b0390911660048201526024016119d1565b600780546001600160a01b038381166001600160a01b0319831681179093556040519116919082907f8be0079c531659141344cd1fd0a4f28419497f9722a3daafe3b4186f6b6457e090600090a35050565b600033816001600160a01b037f0000000000000000000000000000000000000000000000000000000000000000168203611e5a57604051630c281d0f60e11b81523060048201527f00000000000000000000000000000000000000000000000000000000000000006001600160a01b0316906318503a1e906024016040805180830381865afa158015611e2c573d6000803e3d6000fd5b505050506040513d601f19601f82011682018060405250810190611e5091906135cf565b9092509050611eed565b6040516311f3f6b160e21b81526001600160a01b0383811660048301523060248301527f000000000000000000000000000000000000000000000000000000000000000016906347cfdac490604401602060405180830381865afa158015611ec6573d6000803e3d6000fd5b505050506040513d601f19601f82011682018060405250810190611eea9190613325565b90505b80611f0b576040516359cf0f3760e11b815260040160405180910390fd5b50919050565b6040516311f3f6b160e21b81526001600160a01b03838116600483015282811660248301526000917f0000000000000000000000000000000000000000000000000000000000000000909116906347cfdac490604401602060405180830381865afa158015611f84573d6000803e3d6000fd5b505050506040513d601f19601f820116820180604052508101906109a29190613325565b6040516001600160a01b038481166024830152838116604483015260648201839052611cdf9186918216906323b872dd906084015b604051602081830303815290604052915060e01b6020820180516001600160e01b0383818316178352505050506129c1565b8061202f836001600160a01b03166000908152600a602052604090205490565b6120399190613340565b6001600160a01b0383166000908152600a6020526040812091909155600f8054839290612067908490613340565b90915550505050565b604051630f4fc35760e41b81526001600160a01b0382811660048301527f0000000000000000000000000000000000000000000000000000000000000000169063f4fc357090602401611b77565b600060001960006120ce8561115b565b9050611a486120db6119e6565b85838861293d565b6000806120ee6119e6565b905061085a8185856128de565b6016546040516370a0823160e01b81526001600160a01b03858116600483015260009216906370a0823190602401602060405180830381865afa158015612146573d6000803e3d6000fd5b505050506040513d601f19601f8201168201806040525081019061216a9190613366565b90506000612205670de0b6b3a7640000601460009054906101000a90046001600160a01b03166001600160a01b031663bc3ff1dc6040518163ffffffff1660e01b8152600401602060405180830381865afa1580156121cd573d6000803e3d6000fd5b505050506040513d601f19601f820116820180604052508101906121f19190613366565b6121fb90856132d4565b6105039190613301565b6001600160a01b0386166000908152600a60205260409020549091508110156122415760405163dc5990cf60e01b815260040160405180910390fd5b6001600160a01b0385166000908152600d6020526040902054821015611b265760405163da6e545760e01b815260040160405180910390fd5b6000806122868361159f565b9050808511156122af57828582604051633fa733bb60e21b81526004016119d1939291906135ae565b60006122ba86610866565b90506122d06122c76119e6565b86868985612a24565b95945050505050565b6000806122e583611978565b90508085111561230e57828582604051632e52afbb60e21b81526004016119d1939291906135ae565b600061231986610b8f565b90506122d06123266119e6565b8686848a612a24565b6040516342e5349960e01b81526001600160a01b0382811660048301526000917f0000000000000000000000000000000000000000000000000000000000000000909116906342e5349990602401602060405180830381865afa15801561239a573d6000803e3d6000fd5b505050506040513d601f19601f8201168201806040525081019061083a9190613325565b60007f00000000000000000000000000000000000000000000000000000000000000006001600160a01b031663b9b70ff586866000878760405160240161241a9291906001600160a01b03929092168252602082015260400190565b60408051601f198184030181529181526020820180516001600160e01b031663a9059cbb60e01b1790525160e086901b6001600160e01b03191681526124669493929190600401613604565b6000604051808303816000875af1158015612485573d6000803e3d6000fd5b505050506040513d6000823e601f3d908101601f191682016040526124ad91908101906131f8565b90508051600014806124ce5750808060200190518101906124ce9190613325565b611b2657604051631aa7c25160e21b815260040160405180910390fd5b604051630214ea3360e31b81526001600160a01b0382811660048301527f000000000000000000000000000000000000000000000000000000000000000016906310a7519890602401611b77565b60405163110ac5cb60e21b81526001600160a01b0382811660048301526000917f00000000000000000000000000000000000000000000000000000000000000009091169063442b172c90602401602060405180830381865afa9250505080156125c0575060408051601f3d908101601f191682019092526125bd91810190613637565b60015b61083a575090565b806125e8836001600160a01b03166000908152600a602052604090205490565b6125f29190613353565b6001600160a01b0383166000908152600a6020526040812091909155600f8054839290612067908490613353565b6040516001600160a01b0383811660248301526044820183905261197391859182169063a9059cbb90606401611fdd565b6000336001600160a01b037f000000000000000000000000000000000000000000000000000000000000000016810361083d57604051630c281d0f60e11b8152600060048201527f00000000000000000000000000000000000000000000000000000000000000006001600160a01b0316906318503a1e906024016040805180830381865afa1580156126e8573d6000803e3d6000fd5b505050506040513d601f19601f8201168201806040525081019061270c91906135cf565b5092915050565b6001600160a01b03841661273d5760405163e602df0560e01b8152600060048201526024016119d1565b6001600160a01b03831661276757604051634a1406b160e11b8152600060048201526024016119d1565b6001600160a01b0380851660009081526003602090815260408083209387168352929052208290558015611cdf57826001600160a01b0316846001600160a01b03167f8c5be1e5ebec7d5bd14f71427d1e84f3dd0314c0f7b2291e5b200ac8c7c3b925846040516127da91815260200190565b60405180910390a350505050565b6000806127f6868686612ae4565b905061280183612ba8565b801561281d575060008480612818576128186132eb565b868809115b156122d05761282d600182613353565b9695505050505050565b6060600854600f54601054604051602001612865939291909283526020830191909152604082015260600190565b604051602081830303815290604052905090565b6001600160a01b038381166000908152600360209081526040808320938616835292905220546000198114611cdf57818110156128cf57828183604051637dc7a0d960e11b81526004016119d1939291906135ae565b611cdf84848484036000612713565b6001600160a01b03831661290857604051634b637e8f60e11b8152600060048201526024016119d1565b6001600160a01b0382166129325760405163ec442f0560e01b8152600060048201526024016119d1565b611973838383612bd5565b6129697f0000000000000000000000000000000000000000000000000000000000000000853085611fa8565b6129738382612cec565b826001600160a01b0316846001600160a01b03167fdcbc1c05240f31ff3ad067ef1ee35ce4997762752e3a095284754544f4c709d784846040516127da929190918252602082015260400190565b60006129d66001600160a01b03841683612d22565b905080516000141580156129fb5750808060200190518101906129f99190613325565b155b1561197357604051635274afe760e01b81526001600160a01b03841660048201526024016119d1565b826001600160a01b0316856001600160a01b031614612a4857612a48838683612879565b612a528382612d30565b612a7d7f00000000000000000000000000000000000000000000000000000000000000008584612620565b826001600160a01b0316846001600160a01b0316866001600160a01b03167ffbde797d201c681b91056529119e0b02407c7bb96a4a2c75c01fc9667232c8db8585604051612ad5929190918252602082015260400190565b60405180910390a45050505050565b6000838302816000198587098281108382030391505080600003612b1b57838281612b1157612b116132eb565b04925050506109a2565b808411612b3b5760405163227bc15360e01b815260040160405180910390fd5b6000848688096000868103871696879004966002600389028118808a02820302808a02820302808a02820302808a02820302808a02820302808a02909103029181900381900460010186841190950394909402919094039290920491909117919091029150509392505050565b60006002826003811115612bbe57612bbe613654565b612bc8919061366a565b60ff166001149050919050565b6001600160a01b038316612c00578060046000828254612bf59190613353565b90915550612c5f9050565b6001600160a01b03831660009081526002602052604090205481811015612c405783818360405163391434e360e21b81526004016119d1939291906135ae565b6001600160a01b03841660009081526002602052604090209082900390555b6001600160a01b038216612c7b57600480548290039055612c9a565b6001600160a01b03821660009081526002602052604090208054820190555b816001600160a01b0316836001600160a01b03167fddf252ad1be2c89b69c2b068fc378daa952ba7f163c4a11628f55a4df523b3ef83604051612cdf91815260200190565b60405180910390a3505050565b6001600160a01b038216612d165760405163ec442f0560e01b8152600060048201526024016119d1565b610eee60008383612bd5565b60606109a283836000612d66565b6001600160a01b038216612d5a57604051634b637e8f60e11b8152600060048201526024016119d1565b610eee82600083612bd5565b606081471015612d8b5760405163cd78605960e01b81523060048201526024016119d1565b600080856001600160a01b03168486604051612da7919061368c565b60006040518083038185875af1925050503d8060008114612de4576040519150601f19603f3d011682016040523d82523d6000602084013e612de9565b606091505b509150915061282d868383606082612e0957612e0482612e50565b6109a2565b8151158015612e2057506001600160a01b0384163b155b15612e4957604051639996b31560e01b81526001600160a01b03851660048201526024016119d1565b50806109a2565b805115612e605780518082602001fd5b604051630a12f52160e11b815260040160405180910390fd5b508054612e859061315a565b6000825580601f10612e95575050565b601f0160209004906000526020600020908101906119e391905b80821115612ec35760008155600101612eaf565b5090565b60005b83811015612ee2578181015183820152602001612eca565b50506000910152565b60008151808452612f03816020860160208601612ec7565b601f01601f19169290920160200192915050565b6020815260006109a26020830184612eeb565b600060208284031215612f3c57600080fd5b5035919050565b6001600160a01b03811681146119e357600080fd5b60008060408385031215612f6b57600080fd5b8235612f7681612f43565b946020939093013593505050565b600080600060608486031215612f9957600080fd5b8335612fa481612f43565b92506020840135612fb481612f43565b929592945050506040919091013590565b600060208284031215612fd757600080fd5b81356109a281612f43565b60008060408385031215612ff557600080fd5b50508035926020909101359150565b6000806040838503121561301757600080fd5b82359150602083013561302981612f43565b809150509250929050565b60008060006040848603121561304957600080fd5b833561305481612f43565b9250602084013567ffffffffffffffff8082111561307157600080fd5b818601915086601f83011261308557600080fd5b81358181111561309457600080fd5b8760208260051b85010111156130a957600080fd5b6020830194508093505050509250925092565b6000806000606084860312156130d157600080fd5b8335925060208401356130e381612f43565b915060408401356130f381612f43565b809150509250925092565b60008060006060848603121561311357600080fd5b833592506020840135915060408401356130f381612f43565b6000806040838503121561313f57600080fd5b823561314a81612f43565b9150602083013561302981612f43565b600181811c9082168061316e57607f821691505b602082108103611f0b57634e487b7160e01b600052602260045260246000fd5b6001600160a01b038681168252851660208201526040810184905260806060820181905281018290526000828460a0840137600060a0848401015260a0601f19601f85011683010190509695505050505050565b634e487b7160e01b600052604160045260246000fd5b60006020828403121561320a57600080fd5b815167ffffffffffffffff8082111561322257600080fd5b818401915084601f83011261323657600080fd5b815181811115613248576132486131e2565b604051601f8201601f19908116603f01168101908382118183101715613270576132706131e2565b8160405282815287602084870101111561328957600080fd5b61329a836020830160208801612ec7565b979650505050505050565b634e487b7160e01b600052601160045260246000fd5b60ff8181168382160190811115610860576108606132a5565b8082028115828204841417610860576108606132a5565b634e487b7160e01b600052601260045260246000fd5b600082613310576133106132eb565b500490565b8051801515811461083d57600080fd5b60006020828403121561333757600080fd5b6109a282613315565b81810381811115610860576108606132a5565b80820180821115610860576108606132a5565b60006020828403121561337857600080fd5b5051919050565b600181815b808511156133ba5781600019048211156133a0576133a06132a5565b808516156133ad57918102915b93841c9390800290613384565b509250929050565b6000826133d157506001610860565b816133de57506000610860565b81600181146133f457600281146133fe5761341a565b6001915050610860565b60ff84111561340f5761340f6132a5565b50506001821b610860565b5060208310610133831016604e8410600b841016171561343d575081810a610860565b613447838361337f565b806000190482111561345b5761345b6132a5565b029392505050565b60006109a260ff8416836133c2565b601f82111561197357600081815260208120601f850160051c810160208610156134995750805b601f850160051c820191505b818110156134b8578281556001016134a5565b505050505050565b815167ffffffffffffffff8111156134da576134da6131e2565b6134ee816134e8845461315a565b84613472565b602080601f831160018114613523576000841561350b5750858301515b600019600386901b1c1916600185901b1785556134b8565b600085815260208120601f198616915b8281101561355257888601518255948401946001909101908401613533565b50858210156135705787850151600019600388901b60f8161c191681555b5050505050600190811b01905550565b60008060006060848603121561359557600080fd5b8351925060208401519150604084015190509250925092565b6001600160a01b039390931683526020830191909152604082015260600190565b600080604083850312156135e257600080fd5b82516135ed81612f43565b91506135fb60208401613315565b90509250929050565b6001600160a01b038581168252841660208201526040810183905260806060820181905260009061282d90830184612eeb565b60006020828403121561364957600080fd5b81516109a281612f43565b634e487b7160e01b600052602160045260246000fd5b600060ff83168061367d5761367d6132eb565b8060ff84160691505092915050565b6000825161369e818460208701612ec7565b919091019291505056fea26469706673582212208115a273450ca961bbd862a5b6a4b3a7af0f535cf65ad0398f8ea823767208ee64736f6c63430008140033","linkReferences":{}},"methodIdentifiers":{"LTV()":"62965d8e","allowance(address,address)":"dd62ed3e","approve(address,uint256)":"095ea7b3","asset()":"38d52e0f","balanceOf(address)":"70a08231","borrow(uint256,uint256,address)":"d6bda0c0","checkAccountStatus(address,address[])":"b168c58f","checkVaultStatus()":"4b3d1223","collateral()":"d8dfeb45","collateralFactor(address)":"fbcc6f5e","collateralVault()":"0bece79c","convertToAssets(uint256)":"07a2d13a","convertToShares(uint256)":"c6e6f592","decimals()":"313ce567","deposit(uint256,address)":"6e553f65","disableController()":"869e50c7","getMaxBorrow(uint256,uint256)":"4d378d6b","getRate()":"679aefce","getRepoLoan(address,uint256)":"8e9ce760","getTermFee(uint256,uint256)":"5a7872eb","getTermFeeForAmount(uint256,uint256)":"43935d64","liquidate(address,uint256)":"bcbaf487","loans(address)":"73b4086b","maxDeposit(address)":"402d267d","maxLoanValue(uint256)":"81cdde9b","maxMint(address)":"c63d75b6","maxRedeem(address)":"d905777e","maxWithdraw(address)":"ce96cb77","mint(uint256,address)":"94bf804d","name()":"06fdde03","oracle()":"7dc0d1d0","owner()":"8da5cb5b","pledgedCollateral(address)":"b03afd47","previewDeposit(uint256)":"ef8b30f7","previewMint(uint256)":"b3d7f6b9","previewRedeem(uint256)":"4cdad506","previewWithdraw(uint256)":"0a28a477","redeem(uint256,address,address)":"ba087652","renounceOwnership()":"715018a6","repos(address,uint256)":"c28e8962","repurchase(address,uint256)":"715e0e4e","setCollateralFactor(address,uint256)":"c04f31ff","supplyCap()":"8f770ad0","symbol()":"95d89b41","totalAssets()":"01e1d114","totalSupply()":"18160ddd","transfer(address,uint256)":"a9059cbb","transferFrom(address,address,uint256)":"23b872dd","transferOwnership(address)":"f2fde38b","withdraw(uint256,address,address)":"b460af94"},"id":74}