{"abi":[{"type":"constructor","inputs":[{"name":"_evc","type":"address","internalType":"contract IEVC"},{"name":"_collateralVault","type":"address","internalType":"address"},{"name":"_repoVault","type":"address","internalType":"address"}],"stateMutability":"nonpayable"},{"type":"function","name":"approveAllVaultsOnBehalfOf","inputs":[{"name":"onBehalfOfAccount","type":"address","internalType":"address"}],"outputs":[],"stateMutability":"nonpayable"},{"type":"function","name":"collateralVault","inputs":[],"outputs":[{"name":"","type":"address","internalType":"address"}],"stateMutability":"view"},{"type":"function","name":"evc","inputs":[],"outputs":[{"name":"","type":"address","internalType":"contract IEVC"}],"stateMutability":"view"},{"type":"function","name":"repoVault","inputs":[],"outputs":[{"name":"","type":"address","internalType":"address"}],"stateMutability":"view"}],"bytecode":{"object":"0x60a060405234801561001057600080fd5b506040516103c83803806103c883398101604081905261002f9161007d565b6001600160a01b03928316608052600080549284166001600160a01b0319938416179055600180549190931691161790556100ca565b6001600160a01b038116811461007a57600080fd5b50565b60008060006060848603121561009257600080fd5b835161009d81610065565b60208501519093506100ae81610065565b60408501519092506100bf81610065565b809150509250925092565b6080516102d06100f86000396000818160850152818160f90152818161017f015261020701526102d06000f3fe608060405234801561001057600080fd5b506004361061004c5760003560e01c80630bece79c146100515780630fb411e814610080578063c6e8704e146100a7578063f160dfb9146100ba575b600080fd5b600054610064906001600160a01b031681565b6040516001600160a01b03909116815260200160405180910390f35b6100647f000000000000000000000000000000000000000000000000000000000000000081565b600154610064906001600160a01b031681565b6100cd6100c836600461026a565b6100cf565b005b6001546040516330da145b60e21b81526001600160a01b03838116600483015291821660248201527f00000000000000000000000000000000000000000000000000000000000000009091169063c368516c90604401600060405180830381600087803b15801561013f57600080fd5b505af1158015610153573d6000803e3d6000fd5b5050600154604051636a27f72d60e11b81526001600160a01b03858116600483015291821660248201527f0000000000000000000000000000000000000000000000000000000000000000909116925063d44fee5a9150604401600060405180830381600087803b1580156101c757600080fd5b505af11580156101db573d6000803e3d6000fd5b5050600054604051636a27f72d60e11b81526001600160a01b03858116600483015291821660248201527f0000000000000000000000000000000000000000000000000000000000000000909116925063d44fee5a9150604401600060405180830381600087803b15801561024f57600080fd5b505af1158015610263573d6000803e3d6000fd5b5050505050565b60006020828403121561027c57600080fd5b81356001600160a01b038116811461029357600080fd5b939250505056fea26469706673582212206d0c1f1c9519615300d5c6bdc4f131ed82e9aa67beec604895a84fda7a78ea5564736f6c63430008140033","linkReferences":{}},"methodIdentifiers":{"approveAllVaultsOnBehalfOf(address)":"f160dfb9","collateralVault()":"0bece79c","evc()":"0fb411e8","repoVault()":"c6e8704e"},"id":71}