{"abi":[{"type":"constructor","inputs":[{"name":"_depositToken","type":"address","internalType":"address"},{"name":"_pt","type":"address","internalType":"address"},{"name":"_SY","type":"address","internalType":"address"},{"name":"_market","type":"address","internalType":"address"},{"name":"_oracle","type":"address","internalType":"address"}],"stateMutability":"nonpayable"},{"type":"function","name":"LTV","inputs":[],"outputs":[{"name":"","type":"uint256","internalType":"uint256"}],"stateMutability":"view"},{"type":"function","name":"SY","inputs":[],"outputs":[{"name":"","type":"address","internalType":"contract IStandardizedYield"}],"stateMutability":"view"},{"type":"function","name":"YT","inputs":[],"outputs":[{"name":"","type":"address","internalType":"contract IPYieldToken"}],"stateMutability":"view"},{"type":"function","name":"allowance","inputs":[{"name":"owner","type":"address","internalType":"address"},{"name":"spender","type":"address","internalType":"address"}],"outputs":[{"name":"","type":"uint256","internalType":"uint256"}],"stateMutability":"view"},{"type":"function","name":"approve","inputs":[{"name":"spender","type":"address","internalType":"address"},{"name":"value","type":"uint256","internalType":"uint256"}],"outputs":[{"name":"","type":"bool","internalType":"bool"}],"stateMutability":"nonpayable"},{"type":"function","name":"asset","inputs":[],"outputs":[{"name":"","type":"address","internalType":"address"}],"stateMutability":"view"},{"type":"function","name":"balanceOf","inputs":[{"name":"account","type":"address","internalType":"address"}],"outputs":[{"name":"","type":"uint256","internalType":"uint256"}],"stateMutability":"view"},{"type":"function","name":"borrow","inputs":[{"name":"_collateralAmount","type":"uint256","internalType":"uint256"},{"name":"_term","type":"uint256","internalType":"uint256"},{"name":"receiver","type":"address","internalType":"address"}],"outputs":[],"stateMutability":"nonpayable"},{"type":"function","name":"closeLong","inputs":[{"name":"user","type":"address","internalType":"address"}],"outputs":[],"stateMutability":"nonpayable"},{"type":"function","name":"collateral","inputs":[],"outputs":[{"name":"","type":"address","internalType":"contract IPPrincipalToken"}],"stateMutability":"view"},{"type":"function","name":"convertToAssets","inputs":[{"name":"shares","type":"uint256","internalType":"uint256"}],"outputs":[{"name":"","type":"uint256","internalType":"uint256"}],"stateMutability":"view"},{"type":"function","name":"convertToShares","inputs":[{"name":"assets","type":"uint256","internalType":"uint256"}],"outputs":[{"name":"","type":"uint256","internalType":"uint256"}],"stateMutability":"view"},{"type":"function","name":"decimals","inputs":[],"outputs":[{"name":"","type":"uint8","internalType":"uint8"}],"stateMutability":"view"},{"type":"function","name":"deposit","inputs":[{"name":"assets","type":"uint256","internalType":"uint256"},{"name":"receiver","type":"address","internalType":"address"}],"outputs":[{"name":"","type":"uint256","internalType":"uint256"}],"stateMutability":"nonpayable"},{"type":"function","name":"flashFee","inputs":[{"name":"token","type":"address","internalType":"address"},{"name":"amount","type":"uint256","internalType":"uint256"}],"outputs":[{"name":"","type":"uint256","internalType":"uint256"}],"stateMutability":"view"},{"type":"function","name":"flashLoan","inputs":[{"name":"receiver","type":"address","internalType":"contract IERC3156FlashBorrower"},{"name":"token","type":"address","internalType":"address"},{"name":"amount","type":"uint256","internalType":"uint256"},{"name":"data","type":"bytes","internalType":"bytes"}],"outputs":[{"name":"","type":"bool","internalType":"bool"}],"stateMutability":"nonpayable"},{"type":"function","name":"getCollateralRequired","inputs":[{"name":"_borrowAmount","type":"uint256","internalType":"uint256"},{"name":"_term","type":"uint256","internalType":"uint256"}],"outputs":[{"name":"","type":"uint256","internalType":"uint256"}],"stateMutability":"view"},{"type":"function","name":"getMaxBorrow","inputs":[{"name":"_collateralValue","type":"uint256","internalType":"uint256"},{"name":"_term","type":"uint256","internalType":"uint256"}],"outputs":[{"name":"","type":"uint256","internalType":"uint256"}],"stateMutability":"view"},{"type":"function","name":"getRate","inputs":[],"outputs":[{"name":"","type":"uint256","internalType":"uint256"}],"stateMutability":"view"},{"type":"function","name":"getTermFee","inputs":[{"name":"_collateralValue","type":"uint256","internalType":"uint256"},{"name":"_term","type":"uint256","internalType":"uint256"}],"outputs":[{"name":"","type":"uint256","internalType":"uint256"}],"stateMutability":"view"},{"type":"function","name":"goLong","inputs":[{"name":"_PTamount","type":"uint256","internalType":"uint256"},{"name":"_term","type":"uint256","internalType":"uint256"},{"name":"_minPtOut","type":"uint256","internalType":"uint256"}],"outputs":[],"stateMutability":"nonpayable"},{"type":"function","name":"liquidate","inputs":[{"name":"_borrower","type":"address","internalType":"address"}],"outputs":[],"stateMutability":"nonpayable"},{"type":"function","name":"market","inputs":[],"outputs":[{"name":"","type":"address","internalType":"contract IPMarketV3"}],"stateMutability":"view"},{"type":"function","name":"maxDeposit","inputs":[{"name":"","type":"address","internalType":"address"}],"outputs":[{"name":"","type":"uint256","internalType":"uint256"}],"stateMutability":"view"},{"type":"function","name":"maxFlashLoan","inputs":[{"name":"token","type":"address","internalType":"address"}],"outputs":[{"name":"","type":"uint256","internalType":"uint256"}],"stateMutability":"view"},{"type":"function","name":"maxLoanValue","inputs":[{"name":"_collateralValue","type":"uint256","internalType":"uint256"}],"outputs":[{"name":"","type":"uint256","internalType":"uint256"}],"stateMutability":"view"},{"type":"function","name":"maxMint","inputs":[{"name":"","type":"address","internalType":"address"}],"outputs":[{"name":"","type":"uint256","internalType":"uint256"}],"stateMutability":"view"},{"type":"function","name":"maxRedeem","inputs":[{"name":"owner","type":"address","internalType":"address"}],"outputs":[{"name":"","type":"uint256","internalType":"uint256"}],"stateMutability":"view"},{"type":"function","name":"maxWithdraw","inputs":[{"name":"owner","type":"address","internalType":"address"}],"outputs":[{"name":"","type":"uint256","internalType":"uint256"}],"stateMutability":"view"},{"type":"function","name":"mint","inputs":[{"name":"shares","type":"uint256","internalType":"uint256"},{"name":"receiver","type":"address","internalType":"address"}],"outputs":[{"name":"","type":"uint256","internalType":"uint256"}],"stateMutability":"nonpayable"},{"type":"function","name":"name","inputs":[],"outputs":[{"name":"","type":"string","internalType":"string"}],"stateMutability":"view"},{"type":"function","name":"oracle","inputs":[],"outputs":[{"name":"","type":"address","internalType":"contract PtUsdOracle"}],"stateMutability":"view"},{"type":"function","name":"previewDeposit","inputs":[{"name":"assets","type":"uint256","internalType":"uint256"}],"outputs":[{"name":"","type":"uint256","internalType":"uint256"}],"stateMutability":"view"},{"type":"function","name":"previewMint","inputs":[{"name":"shares","type":"uint256","internalType":"uint256"}],"outputs":[{"name":"","type":"uint256","internalType":"uint256"}],"stateMutability":"view"},{"type":"function","name":"previewRedeem","inputs":[{"name":"shares","type":"uint256","internalType":"uint256"}],"outputs":[{"name":"","type":"uint256","internalType":"uint256"}],"stateMutability":"view"},{"type":"function","name":"previewWithdraw","inputs":[{"name":"assets","type":"uint256","internalType":"uint256"}],"outputs":[{"name":"","type":"uint256","internalType":"uint256"}],"stateMutability":"view"},{"type":"function","name":"redeem","inputs":[{"name":"shares","type":"uint256","internalType":"uint256"},{"name":"receiver","type":"address","internalType":"address"},{"name":"owner","type":"address","internalType":"address"}],"outputs":[{"name":"","type":"uint256","internalType":"uint256"}],"stateMutability":"nonpayable"},{"type":"function","name":"repos","inputs":[{"name":"","type":"address","internalType":"address"}],"outputs":[{"name":"collateralAmount","type":"uint256","internalType":"uint256"},{"name":"repurchasePrice","type":"uint256","internalType":"uint256"},{"name":"termExpires","type":"uint256","internalType":"uint256"}],"stateMutability":"view"},{"type":"function","name":"repurchase","inputs":[],"outputs":[],"stateMutability":"nonpayable"},{"type":"function","name":"symbol","inputs":[],"outputs":[{"name":"","type":"string","internalType":"string"}],"stateMutability":"view"},{"type":"function","name":"totalAssets","inputs":[],"outputs":[{"name":"","type":"uint256","internalType":"uint256"}],"stateMutability":"view"},{"type":"function","name":"totalSupply","inputs":[],"outputs":[{"name":"","type":"uint256","internalType":"uint256"}],"stateMutability":"view"},{"type":"function","name":"transfer","inputs":[{"name":"to","type":"address","internalType":"address"},{"name":"value","type":"uint256","internalType":"uint256"}],"outputs":[{"name":"","type":"bool","internalType":"bool"}],"stateMutability":"nonpayable"},{"type":"function","name":"transferFrom","inputs":[{"name":"from","type":"address","internalType":"address"},{"name":"to","type":"address","internalType":"address"},{"name":"value","type":"uint256","internalType":"uint256"}],"outputs":[{"name":"","type":"bool","internalType":"bool"}],"stateMutability":"nonpayable"},{"type":"function","name":"withdraw","inputs":[{"name":"assets","type":"uint256","internalType":"uint256"},{"name":"receiver","type":"address","internalType":"address"},{"name":"owner","type":"address","internalType":"address"}],"outputs":[{"name":"","type":"uint256","internalType":"uint256"}],"stateMutability":"nonpayable"},{"type":"event","name":"Approval","inputs":[{"name":"owner","type":"address","indexed":true,"internalType":"address"},{"name":"spender","type":"address","indexed":true,"internalType":"address"},{"name":"value","type":"uint256","indexed":false,"internalType":"uint256"}],"anonymous":false},{"type":"event","name":"Deposit","inputs":[{"name":"sender","type":"address","indexed":true,"internalType":"address"},{"name":"owner","type":"address","indexed":true,"internalType":"address"},{"name":"assets","type":"uint256","indexed":false,"internalType":"uint256"},{"name":"shares","type":"uint256","indexed":false,"internalType":"uint256"}],"anonymous":false},{"type":"event","name":"Transfer","inputs":[{"name":"from","type":"address","indexed":true,"internalType":"address"},{"name":"to","type":"address","indexed":true,"internalType":"address"},{"name":"value","type":"uint256","indexed":false,"internalType":"uint256"}],"anonymous":false},{"type":"event","name":"Withdraw","inputs":[{"name":"sender","type":"address","indexed":true,"internalType":"address"},{"name":"receiver","type":"address","indexed":true,"internalType":"address"},{"name":"owner","type":"address","indexed":true,"internalType":"address"},{"name":"assets","type":"uint256","indexed":false,"internalType":"uint256"},{"name":"shares","type":"uint256","indexed":false,"internalType":"uint256"}],"anonymous":false},{"type":"error","name":"AddressEmptyCode","inputs":[{"name":"target","type":"address","internalType":"address"}]},{"type":"error","name":"AddressInsufficientBalance","inputs":[{"name":"account","type":"address","internalType":"address"}]},{"type":"error","name":"ApproxFail","inputs":[]},{"type":"error","name":"ApproxParamsInvalid","inputs":[{"name":"guessMin","type":"uint256","internalType":"uint256"},{"name":"guessMax","type":"uint256","internalType":"uint256"},{"name":"eps","type":"uint256","internalType":"uint256"}]},{"type":"error","name":"ERC20InsufficientAllowance","inputs":[{"name":"spender","type":"address","internalType":"address"},{"name":"allowance","type":"uint256","internalType":"uint256"},{"name":"needed","type":"uint256","internalType":"uint256"}]},{"type":"error","name":"ERC20InsufficientBalance","inputs":[{"name":"sender","type":"address","internalType":"address"},{"name":"balance","type":"uint256","internalType":"uint256"},{"name":"needed","type":"uint256","internalType":"uint256"}]},{"type":"error","name":"ERC20InvalidApprover","inputs":[{"name":"approver","type":"address","internalType":"address"}]},{"type":"error","name":"ERC20InvalidReceiver","inputs":[{"name":"receiver","type":"address","internalType":"address"}]},{"type":"error","name":"ERC20InvalidSender","inputs":[{"name":"sender","type":"address","internalType":"address"}]},{"type":"error","name":"ERC20InvalidSpender","inputs":[{"name":"spender","type":"address","internalType":"address"}]},{"type":"error","name":"ERC4626ExceededMaxDeposit","inputs":[{"name":"receiver","type":"address","internalType":"address"},{"name":"assets","type":"uint256","internalType":"uint256"},{"name":"max","type":"uint256","internalType":"uint256"}]},{"type":"error","name":"ERC4626ExceededMaxMint","inputs":[{"name":"receiver","type":"address","internalType":"address"},{"name":"shares","type":"uint256","internalType":"uint256"},{"name":"max","type":"uint256","internalType":"uint256"}]},{"type":"error","name":"ERC4626ExceededMaxRedeem","inputs":[{"name":"owner","type":"address","internalType":"address"},{"name":"shares","type":"uint256","internalType":"uint256"},{"name":"max","type":"uint256","internalType":"uint256"}]},{"type":"error","name":"ERC4626ExceededMaxWithdraw","inputs":[{"name":"owner","type":"address","internalType":"address"},{"name":"assets","type":"uint256","internalType":"uint256"},{"name":"max","type":"uint256","internalType":"uint256"}]},{"type":"error","name":"FailedInnerCall","inputs":[]},{"type":"error","name":"MarketExchangeRateBelowOne","inputs":[{"name":"exchangeRate","type":"int256","internalType":"int256"}]},{"type":"error","name":"MarketExpired","inputs":[]},{"type":"error","name":"MarketInsufficientPtForTrade","inputs":[{"name":"currentAmount","type":"int256","internalType":"int256"},{"name":"requiredAmount","type":"int256","internalType":"int256"}]},{"type":"error","name":"MarketProportionMustNotEqualOne","inputs":[]},{"type":"error","name":"MarketProportionTooHigh","inputs":[{"name":"proportion","type":"int256","internalType":"int256"},{"name":"maxProportion","type":"int256","internalType":"int256"}]},{"type":"error","name":"MarketRateScalarBelowZero","inputs":[{"name":"rateScalar","type":"int256","internalType":"int256"}]},{"type":"error","name":"MarketZeroLnImpliedRate","inputs":[]},{"type":"error","name":"MarketZeroTotalPtOrTotalAsset","inputs":[{"name":"totalPt","type":"int256","internalType":"int256"},{"name":"totalAsset","type":"int256","internalType":"int256"}]},{"type":"error","name":"MathOverflowedMulDiv","inputs":[]},{"type":"error","name":"REPO__CollateralExpired","inputs":[]},{"type":"error","name":"REPO__InvalidTerm","inputs":[]},{"type":"error","name":"REPO__LiquidationImpaired","inputs":[]},{"type":"error","name":"REPO__MaxLoanExceeded","inputs":[]},{"type":"error","name":"REPO__RepayFailed","inputs":[]},{"type":"error","name":"REPO__SlippageToHigh","inputs":[]},{"type":"error","name":"REPO__WrongToken","inputs":[]},{"type":"error","name":"REPO__ZeroAmount","inputs":[]},{"type":"error","name":"SafeERC20FailedOperation","inputs":[{"name":"token","type":"address","internalType":"address"}]}],"bytecode":{"object":"0x60c060409080825234620004ea5760a0816200445980380380916200002582856200050b565b833981010312620004ea576200003b816200052f565b60206200004a8184016200052f565b90620000588585016200052f565b936200007560806200006d606084016200052f565b92016200052f565b86516001600160a01b03959194909186166200009183620004ef565b600983526814995c1bd5985d5b1d60ba1b85840152885192620000b484620004ef565b6002845261292b60f11b8685015280516001600160401b0391828211620003e7576003918254906001928383811c93168015620004df575b8b841014620004c95781908b601f9485811162000470575b50508b908483116001146200040957600092620003fd575b505060001982861b1c191690831b1783555b8651938411620003e75760049687548381811c91168015620003dc575b8b821014620003c757918a9795939183828f9997951162000362575b5088918511600114620002e457600093928592909183620002d8575b50501b92600019911b1c19161785555b6200019e8162000544565b9015620002cf575b60a052608052620f4240600a55620f1b30600b55168660018060a01b031998828a60055416176005551688600754161760075588519283809263781c18db60e01b82525afa908115620002c45785936000926200027e575b50508216856008541617600855168360095416176009551690600654161760065551613e3890816200062182396080518181816103a7015281816105c601528181610ad0015281816110b501528181611312015281816114c9015281816115ad01528181611c3301528181611cf20152612030015260a0518161150e0152f35b9080939450813d8311620002bc575b6200029981836200050b565b81010312620002b957509083620002b181936200052f565b9038620001fe565b80fd5b503d6200028d565b87513d6000823e3d90fd5b506012620001a6565b01519350388062000183565b91939290601f198416928a600052896000209360005b81811062000335575085116200031a575b50505050811b01855562000193565b01519060f884600019921b161c19169055388080806200030b565b94829496989a509683978c9394829b9d9395015181550196019301918c99979593918f99979593620002fa565b91939597509193959750886000528a6000208380880160051c8201928d8910620003bd575b918f9997958e9b999795939492940160051c01905b818110620003ab575062000167565b600081558d9a508f995084016200039c565b9250819262000387565b602289634e487b7160e01b6000525260246000fd5b90607f16906200014b565b634e487b7160e01b600052604160045260246000fd5b0151905038806200011c565b60008781528d8120879550929190601f198516908f5b8282106200045857505084116200043f575b505050811b0183556200012e565b015160001983881b60f8161c1916905538808062000431565b83850151865589979095019493840193018f6200041f565b909192508660005284826000209181860160051c8301938610620004bf575b918791869594930160051c01915b828110620004af57508d915062000104565b600081558594508791016200049d565b925081926200048f565b634e487b7160e01b600052602260045260246000fd5b92607f1692620000ec565b600080fd5b604081019081106001600160401b03821117620003e757604052565b601f909101601f19168101906001600160401b03821190821017620003e757604052565b51906001600160a01b0382168203620004ea57565b906040516020908181019063313ce56760e01b8252600481526200056881620004ef565b5160009485928392916001600160a01b03165afa3d1562000617573d906001600160401b038211620006035760405191620005ad601f8201601f19168501846200050b565b82523d858484013e5b80620005f7575b620005c9575b50508190565b8181805181010312620005f357015160ff811115620005e95780620005c3565b6001925060ff1690565b8380fd5b508181511015620005bd565b634e487b7160e01b85526041600452602485fd5b606090620005b656fe6040608081526004908136101561001557600080fd5b600090813560e01c92836301e1d1141461185a57836306fdde031461176657836307a2d13a146114b0578363095ea7b3146116be5783630a28a4771461169f57836318160ddd1461168157836323b872dd146116455783632f86556814611554578363313ce567146114f857836338d52e0f146114b5578363402d267d146106465783634cdad506146114b05783634d378d6b146114955783635a7872eb1461145f5783635cffe9de14611278578363613255ab1461125357836362965d8e14611235578363679aefce146112195783636e553f65146111e657836370a08231146111b057836374fe5c7214611054578363764f4cd214610a62578363781c18db14610a3a5783637dc0d1d014610a1257836380f55605146109ea57836381cdde9b146109c45783638441cfee146109695783638d1bc4ec1461090657836394bf804d146108cf57836395d89b41146107b5578363a9059cbb14610785578363afd27bf51461075d578363b3d7f6b91461073e578363b460af94146106cb578363ba0876521461064b578363c63d75b614610646578363c6e6f59214610214578363ce96cb7714610621578363d58c61721461056b578363d6bda0c0146102dd57508263d8dfeb45146102b6578263d905777e14610292578263d9d98ce414610264578263dd62ed3e1461021957505063ef8b30f71461021457600080fd5b61197e565b34610260578060031936011261026057806020926102356118e1565b61023d6118f7565b6001600160a01b0391821683526001865283832091168252845220549051908152f35b5080fd5b3461026057806003193601126102605760209061027f6118e1565b5061028b6024356120cb565b9051908152f35b346102605760203660031901126102605760209061028b6102b16118e1565b613d6a565b3461026057816003193601126102605760055490516001600160a01b039091168152602090f35b829034610260576060366003190112610260576044356001600160a01b038181169490929081359060243590878503610567576005548151630bc4ed8360e21b815260209188169082818881855afa90811561055d578a91610530575b5061052057841561051057620151808410610500578461035d9130903390613674565b84818860065416845192838092632f0ffc7760e21b82525afa9081156104f65789916104c3575b50610398670de0b6b3a76400009186612098565b04986103a4848b613aff565b977f0000000000000000000000000000000000000000000000000000000000000000169583516370a0823160e01b8152308282015283816024818b5afa9081156104b9578b91610488575b50891161047a5750936002896104679561042195600d6104779d9e9661046f9a61043161042a610421600b548c612098565b600a54906120ab565b9542611b22565b9584519861043e8a61199c565b895282890195865284890196875252528d209351845551600184015551910155600b5490612098565b600c54611b22565b600c556136c4565b80f35b835163dc5990cf60e01b8152fd5b90508381813d83116104b2575b61049f8183611a22565b810103126104ae57518c6103ef565b8a80fd5b503d610495565b85513d8d823e3d90fd5b90508181813d83116104ef575b6104da8183611a22565b810103126104eb5751610398610384565b8880fd5b503d6104d0565b83513d8b823e3d90fd5b825163352885c360e21b81528690fd5b8251631d92ba9f60e11b81528690fd5b825163144c7e8b60e01b81528690fd5b6105509150833d8511610556575b6105488183611a22565b810190611ee1565b8b61033a565b503d61053e565b84513d8c823e3d90fd5b8680fd5b5081903461061e578160031936011261061e57600290338352600d6020526106038184206105fa835161059d8161199c565b8254815260018301546020820181815293870154868301526001600160a01b03906105ec9030337f00000000000000000000000000000000000000000000000000000000000000008516613674565b6005541690519033906136c4565b51600c546120e7565b600c55338352600d6020528220828155826001820155015580f35b50fd5b50346102605760203660031901126102605760209061028b6106416118e1565b613ce5565b61190d565b91346106c8575061065b36611949565b92919361066784613d6a565b80861161068f5750508361068991610680602096613cb7565b94859133611db5565b51908152f35b9251632e52afbb60e21b81526001600160a01b0390941690840190815260208101949094525060408301529081906060010390fd5b0390fd5b80fd5b91346106c857506106db36611949565b9291936106e784613ce5565b8086116107095750506106899084610700602096613b67565b94859233611db5565b9251633fa733bb60e21b81526001600160a01b0390941690840190815260208101949094525060408301529081906060010390fd5b91346106c85760203660031901126106c8575061028b60209235613c89565b503461026057816003193601126102605760075490516001600160a01b039091168152602090f35b50346102605780600319360112610260576020906107ae6107a46118e1565b6024359033611a44565b5160018152f35b91346106c857806003193601126106c85781519181845492600184811c918186169586156108c5575b60209687851081146108b2579087899a92868b999a9b52918260001461088857505060011461082d575b85886108298961081a848a0385611a22565b51928284938452830190611876565b0390f35b815286935091907f8a35acfbc15ff81a39ae7d344fd709f28e8600b4aa8c65c6b64bfe7fe36bd19b5b828410610870575050508201018161081a61082988610808565b8054848a018601528895508794909301928101610856565b60ff19168882015294151560051b8701909401945085935061081a92506108299150899050610808565b634e487b7160e01b835260228a52602483fd5b92607f16926107de565b346109025781600319360112610902576020925035906106896108f06118f7565b926108fa81613c89565b809433611ca9565b8280fd5b91346106c8576109249061091936611933565b9290600a5490612098565b9062015180918281029281840414901517156109565761012c92808402938404036109565760208461028b85856120ab565b634e487b7160e01b815260118552602490fd5b5034610260576020366003190112610260579081906001600160a01b0361098e6118e1565b168152600d6020522090610829825491600260018501549401549051938493846040919493926060820195825260208201520152565b91346106c85760203660031901126106c8575061028b610421602093600b549035612098565b503461026057816003193601126102605760095490516001600160a01b039091168152602090f35b503461026057816003193601126102605760065490516001600160a01b039091168152602090f35b503461026057816003193601126102605760085490516001600160a01b039091168152602090f35b34610902576060366003190112610902578035670de0b6b3a76400009160018060a01b0383610a9d84610a988460095416612ee1565b612098565b0490610aae610421600b5484612098565b92602491610abe83358095613aff565b9688610aca89886120e7565b610af9847f00000000000000000000000000000000000000000000000000000000000000001691303384613674565b600754825163095ea7b360e01b81529085166001600160a01b031686820190815260208082018b90529991928e918b9085908190604001038185855af1918215611049578b9460849361102c575b508760075416955195869485936320e8c56560e01b8552308c8601528c85015260448401528160648401525af1908115611022578b91610ff5575b508260095416948a51809663794052f360e01b8252308783015281836101209384935afa968715610feb578d97610f31575b5050610bc38460085416612604565b906001600160ff1b038a11610f2d5760a08701934285511115610f1d5787518b811315610f01575089918b918f8f8b610bfd428983612131565b91610c0a878a8585612392565b9a9199909c42905190610c1c916120e7565b98845190610c2991612e8f565b84528301928351610c3a8c8c612588565b610c4391612e8f565b8094525192610c519161263c565b908351930151938212610ed05790610c75610c6f610c7a9383612588565b91612337565b612753565b670d529ae9e8600000808213610eae5750610ca99291610c75610c9f610ca4936125cb565b612337565b612588565b908112610e9957908f91610cbc90612a4d565b918212610e95576301e1338091828102928184041490151715610e84575090610ce4916120ab565b8061010089015215610e745790610cfb8d92612320565b9382851261090257821361026057126104ae578994818311610dfe575b505090610d34610d6594939282600754168360095416906136c4565b60095416868a845193818552610d4985611a06565b8551635b709f1760e01b8152968795869485933090850161210a565b03925af18015610df457610dc2969260029492610d8892610dc8575b5042611b22565b91805194610d958661199c565b8552600d82860192878452828701948552338a525287209351845551600184015551910155600c54611b22565b600c5580f35b610de790853d8711610ded575b610ddf8183611a22565b8101906120f4565b50610d81565b503d610dd5565b86513d89823e3d90fd5b83949550610e14610e4c93999460085416612604565b918b5192610e21846119ea565b604435958685528a8501528d8d8501526005606085015266038d7ea4c680006080850152429261341e565b50908110610e64579487929190610d34610d65610d18565b8751636919632360e11b81528390fd5b8b51635534d70f60e11b81528690fd5b8f60118a634e487b7160e01b835252fd5b8f80fd5b8e5163329e322960e21b8152808a0191909152fd5b955092505050604494508893508e5193637e34684f60e11b8552840152820152fd5b5050505060648f6008848f8d93519362461bcd60e51b8552840152820152676e6567617469766560c01b6044820152fd5b878c8f60449386915193632185509b60e21b8552840152820152fd5b8c5163b2094b5960e01b81528790fd5b8c80fd5b908092975081813d8311610fe4575b610f4a8183611a22565b81010312610f2d578b5191820182811067ffffffffffffffff821117610fd2578c528051825288810151898301528b8101518c83015260608101518581168103610fce5760608301526080810151608083015260a081015160a083015260c081015160c083015260e081015160e08301526101008091015190820152948c80610bb4565b8d80fd5b634e487b7160e01b8e5260418752878efd5b503d610f40565b8c513d8f823e3d90fd5b90508681813d831161101b575b61100c8183611a22565b810103126104ae57518b610b82565b503d611002565b8a513d8d823e3d90fd5b61104290863d8811610556576105488183611a22565b5038610b47565b8551903d90823e3d90fd5b3461090257602090816003193601126111ac5761106f6118e1565b6001600160a01b03808216808752600d855285872086519194909391926110dc906110998561199c565b8554948581528960026001890154988b8401998a5201549101527f000000000000000000000000000000000000000000000000000000000000000016809461375c565b9061110c8289516110ec816119ce565b600f81526e73616c655f616d6f756e743a20257360881b8a820152613704565b6111408551895161111c816119ce565b60138152727265707572636861736550726963653a20257360681b8a820152613704565b845182111561119e575083600296938998969361116461117794600d9851906120e7565b908161118d575b50505051600c546120e7565b600c558552528220828155826001820155015580f35b611196926136c4565b89808061116b565b875163da6e545760e01b8152fd5b8380fd5b50346102605760203660031901126102605760209181906001600160a01b036111d76118e1565b16815280845220549051908152f35b346109025781600319360112610902576020925035906106896112076118f7565b61121084613b9d565b93849133611ca9565b50346102605781600319360112610260576020905161012c8152f35b5034610260578160031936011261026057602090600b549051908152f35b50346102605760203660031901126102605760209061028b6112736118e1565b612022565b34610902576080366003190112610902576001600160a01b03908035828116919082900361145b576112a86118f7565b94604435936064359667ffffffffffffffff8089116111ac573660238a0112156111ac57888501359081116111ac57366024828b0101116111ac576112ec82612022565b871161144b5791859183889594611302876120cb565b9b61130d8d89611b22565b9c86867f0000000000000000000000000000000000000000000000000000000000000000169c61133d918e6136c4565b8c5198899687966323e30c8b60e01b8852338d890152166024870152604486015260648501526084840160a090528160a485015260240160c48401378481830160c40152601f1990601f011681010360c40181845a94602095f19081156114405780916113ec575b507f0947cd39683897964c4681f2a9ace479400f0bd467117d0ae02e99e303012ade9150036113de5750926107ae916020943091613674565b8351632ac2ab4360e11b8152fd5b90506020823d8211611438575b8161140660209383611a22565b810103126106c857507f0947cd39683897964c4681f2a9ace479400f0bd467117d0ae02e99e303012ade9051876113a5565b3d91506113f9565b8651903d90823e3d90fd5b875163dc5990cf60e01b81528590fd5b8480fd5b50346102605760209061028b61148f61147736611933565b611489610421600b9493945485612098565b92613aff565b906120e7565b50346102605760209061028b6114aa36611933565b90613aff565b6118b6565b5034610260578160031936011261026057517f00000000000000000000000000000000000000000000000000000000000000006001600160a01b03168152602090f35b92503461026057816003193601126102605760ff7f0000000000000000000000000000000000000000000000000000000000000000169160ff8311611541576020838351908152f35b634e487b7160e01b815260118452602490fd5b346109025760203660031901126109025761156d6118e1565b50338352600d6020528183209082516115858161199c565b825481526002600184015493602083019485520154808583015242111561160257516115db907f00000000000000000000000000000000000000000000000000000000000000006001600160a01b03169061375c565b8251116115f45750829161060360029251600c546120e7565b825163da6e545760e01b8152fd5b835162461bcd60e51b8152602081840152601b60248201527f5265706f5661756c743a205465726d206e6f74206578706972656400000000006044820152606490fd5b5034610260576060366003190112610260576020906107ae6116656118e1565b61166d6118f7565b6044359161167c833383611b45565b611a44565b50346102605781600319360112610260576020906002549051908152f35b91346106c85760203660031901126106c8575061028b60209235613b67565b346109025781600319360112610902576116d66118e1565b60243590331561174f576001600160a01b031691821561173857508083602095338152600187528181208582528752205582519081527f8c5be1e5ebec7d5bd14f71427d1e84f3dd0314c0f7b2291e5b200ac8c7c3b925843392a35160018152f35b8351634a1406b160e11b8152908101859052602490fd5b835163e602df0560e01b8152808401869052602490fd5b91346106c857806003193601126106c8578151918160035492600184811c91818616958615611850575b60209687851081146108b2578899509688969785829a5291826000146118295750506001146117cd575b505050610829929161081a910385611a22565b9190869350600383527fc2575a0e9e593c00f959f8c92f12db2869c3395a3b0502d05e2516446f71f85b5b828410611811575050508201018161081a6108296117ba565b8054848a0186015288955087949093019281016117f8565b60ff19168782015293151560051b8601909301935084925061081a915061082990506117ba565b92607f1692611790565b503461026057816003193601126102605760209061028b611c18565b919082519283825260005b8481106118a2575050826000602080949584010152601f8019910116010190565b602081830181015184830182015201611881565b346118dc5760203660031901126118dc5760206118d4600435613cb7565b604051908152f35b600080fd5b600435906001600160a01b03821682036118dc57565b602435906001600160a01b03821682036118dc57565b346118dc5760203660031901126118dc576119266118e1565b5060206040516000198152f35b60409060031901126118dc576004359060243590565b60609060031901126118dc57600435906001600160a01b039060243582811681036118dc579160443590811681036118dc5790565b346118dc5760203660031901126118dc5760206118d4600435613b9d565b6060810190811067ffffffffffffffff8211176119b857604052565b634e487b7160e01b600052604160045260246000fd5b6040810190811067ffffffffffffffff8211176119b857604052565b60a0810190811067ffffffffffffffff8211176119b857604052565b6020810190811067ffffffffffffffff8211176119b857604052565b90601f8019910116810190811067ffffffffffffffff8211176119b857604052565b916001600160a01b03808416928315611b095716928315611af05760009083825281602052604082205490838210611abe575091604082827fddf252ad1be2c89b69c2b068fc378daa952ba7f163c4a11628f55a4df523b3ef958760209652828652038282205586815220818154019055604051908152a3565b60405163391434e360e21b81526001600160a01b03919091166004820152602481019190915260448101839052606490fd5b60405163ec442f0560e01b815260006004820152602490fd5b604051634b637e8f60e11b815260006004820152602490fd5b91908201809211611b2f57565b634e487b7160e01b600052601160045260246000fd5b9160018060a01b038093169160009383855260016020526040938486209183169182875260205284862054926000198403611b84575b50505050505050565b848410611be857508015611bd0578115611bb857855260016020528385209085526020520391205538808080808080611b7b565b8451634a1406b160e11b815260048101879052602490fd5b845163e602df0560e01b815260048101879052602490fd5b8551637dc7a0d960e11b81526001600160a01b039190911660048201526024810184905260448101859052606490fd5b6040516370a0823160e01b81523060048201526020816024817f00000000000000000000000000000000000000000000000000000000000000006001600160a01b03165afa908115611c9d57600091611c6f575090565b906020823d8211611c95575b81611c8860209383611a22565b810103126106c857505190565b3d9150611c7b565b6040513d6000823e3d90fd5b604080516323b872dd60e01b60208201526001600160a01b03928316602482018190523060448301526064808301879052825294919391929190611d1690611cf0816119ea565b7f0000000000000000000000000000000000000000000000000000000000000000611ef9565b16938415611d9d579081611d4e7fdcbc1c05240f31ff3ad067ef1ee35ce4997762752e3a095284754544f4c709d79493600254611b22565b600255856000526000602052826000208181540190558560007fddf252ad1be2c89b69c2b068fc378daa952ba7f163c4a11628f55a4df523b3ef60208651858152a382519182526020820152a3565b825163ec442f0560e01b815260006004820152602490fd5b9194936001600160a01b038087169493818116939083878603611ed0575b50508515611b0957600092868452836020526040938481205499828b10611ea057508188999a7ffbde797d201c681b91056529119e0b02407c7bb96a4a2c75c01fc9667232c8db97989983528260205203858220558160025403600255887fddf252ad1be2c89b69c2b068fc378daa952ba7f163c4a11628f55a4df523b3ef60208751858152a3835163a9059cbb60e01b60208201526001600160a01b038316602482015260448082018990528152611e9190611cf0606482611a22565b835196875260208701521693a4565b855163391434e360e21b81526001600160a01b03919091166004820152602481018b905260448101839052606490fd5b611eda918a611b45565b3883611dd3565b908160209103126118dc575180151581036118dc5790565b60018060a01b031690600080826020829451910182865af13d15611fb2573d67ffffffffffffffff8111611f9e57604051611f55939291611f44601f8201601f191660200183611a22565b8152809260203d92013e5b83611fbf565b8051908115159182611f83575b5050611f6b5750565b60249060405190635274afe760e01b82526004820152fd5b611f969250602080918301019101611ee1565b153880611f62565b634e487b7160e01b83526041600452602483fd5b611f559150606090611f4f565b90611fe65750805115611fd457805190602001fd5b604051630a12f52160e11b8152600490fd5b81511580612019575b611ff7575090565b604051639996b31560e01b81526001600160a01b039091166004820152602490fd5b50803b15611fef565b6001600160a01b03908116907f0000000000000000000000000000000000000000000000000000000000000000168103612086576020602491604051928380926370a0823160e01b82523060048301525afa908115611c9d57600091611c6f575090565b604051639723554960e01b8152600490fd5b81810292918115918404141715611b2f57565b81156120b5570490565b634e487b7160e01b600052601260045260246000fd5b600a810290808204600a1490151715611b2f57620f4240900490565b91908203918211611b2f57565b91908260409103126118dc576020825192015190565b61212e939260609260018060a01b0316825260208201528160408201520190611876565b90565b909291926040918251916080830183811067ffffffffffffffff8211176119b857845260009182845260208401908382528585018481526060860196858852869960a0840181815111156122d3579061218a91516120e7565b936080840151976301e1338096878a0299808b058914901517156122bf576001600160ff1b03998a88116122bb57876121c291612377565b898113156122a457825260208601516121da9161263c565b8083528551908115801561229c575b61227f5750508451906122068761010088015194519251946125a4565b93670de0b6b3a7640000851261226857509261224360c09593610c75610c9f61223e86610c75610c6f6122529e9d9b6122499a612588565b6125cb565b90612307565b90520151612098565b049182116106c857506122649061275d565b9052565b5163329e322960e21b815260048101859052602490fd5b6044925084519163b1c4aefb60e01b835260048301526024820152fd5b5080156121e9565b602490855190630e520c3b60e11b82526004820152fd5b8980fd5b634e487b7160e01b89526011600452602489fd5b825163b2094b5960e01b8152600490fd5b90670de0b6b3a764000060008382039312818412811691841390151617611b2f57565b81810392916000138015828513169184121617611b2f57565b9081600003918083056000191490151715611b2f57565b90670de0b6b3a764000091828102928184051490151715611b2f57565b818102929160008212600160ff1b821416611b2f578184051490151715611b2f57565b81156120b557600160ff1b8114600019831416611b2f570590565b93919284516020830151906123bf845191610c75610c6f6040880151956123b98885612e8f565b93612588565b670d529ae9e860000080821361256a57506123e49291610c75610c9f610ca4936125cb565b670de0b6b3a76400009081811261252b57606061240c61240783610c7587612337565b612320565b9401519060008094136000146125435781610c7561242992612337565b82811261252b57508161244661244060e0936122e4565b86612354565b05965b01516001600160ff1b0392908381116102605787606461246c6124739383612354565b0595612307565b918183128015612510571561250857600019925b828113156124fa575b8181029181830414901517156124e657866124aa91611b22565b60001981019081116124e657866124c0916120ab565b9283116106c857506124d961212e93926124e092612354565b9585612690565b93612690565b634e487b7160e01b82526011600452602482fd5b61250390612ed0565b612490565b600192612487565b50505061212e9291506125266124e09186612690565b6124d9565b6024906040519063329e322960e21b82526004820152fd5b506125646124078261255f61255960e0956122e4565b88612354565b612377565b96612449565b6044925060405191637e34684f60e11b835260048301526024820152fd5b91909160008382019384129112908015821691151617611b2f57565b6301e13380916125b391612098565b046001600160ff1b0381116118dc5761212e9061275d565b670de0b6b3a764000081146125f2576125ed81610c75610c6f61212e946122e4565b612a4d565b60405163a9c8b14d60e01b8152600490fd5b604051630754bb7160e21b815290602090829060049082906000906001600160a01b03165af1908115611c9d57600091611c6f575090565b612667670de0b6b3a7640000916000841260001461268857600019935b600081131561267f57612098565b046001600160ff1b0381116118dc5761212e91612354565b610a9890612ed0565b600193612659565b60008212156126f257600019915b60008113156126e357905b670de0b6b3a764000091828102928184041490151715611b2f576126cc916120ab565b6001600160ff1b0381116118dc5761212e91612354565b6126ec90612ed0565b906126a9565b60019161269e565b1561270157565b60405162461bcd60e51b815260206004820152601060248201526f125b9d985b1a5908195e1c1bdb995b9d60821b6044820152606490fd5b80156120b5576ec097ce7bc90715b34b9f10000000000590565b81156120b5570590565b680238fd42c5cf03ffff1981121580612a3a575b61277a906126fa565b60008112612a25576064906806f05b59d3b200000081126129d8576806f05b59d3b1ffffff190168056bc75e2d6310000082770195e54c5dd42177f53a27172fa9ec630262827000000000925b0280829168ad78ebc5ac620000008112156129b2575b50806856bc75e2d6310000008492121561298e575b682b5e3af16b1880000081121561296c575b6815af1d78b58c40000081121561294a575b680ad78ebc5ac6200000811215612929575b81811215612908575b6802b5e3af16b18800008112156128e7575b68015af1d78b58c400008112156128c6575b60028282800205056003838383020505600484848302050560058585830205056006868683020505600787878302050590600888888402050592600989898602050594600a8a8a8802050596600b8b8b8a02050598600c8c8c8c0205059a0101010101010101010101010205020590565b6806f5f1775788937937829168015af1d78b58c3ffff190193020591612855565b6808f00f760a4b2db55d82916802b5e3af16b187ffff190193020591612843565b680ebc5fb41746121110829168056bc75e2d630fffff190193020591612831565b68280e60114edb805d038291680ad78ebc5ac61fffff190193020591612828565b690127fa27722cc06cc5e282916815af1d78b58c3fffff190193020591612816565b693f1fce3da636ea5cf8508291682b5e3af16b187fffff190193020591612804565b6b02df0ab5a80a22c61ab5a70082916856bc75e2d630ffffff1901930205916127f2565b6e01855144814a7ff805980ff0084000925068ad78ebc5ac61ffffff19019050826127dd565b6803782dace9d90000008112612a12576803782dace9d8ffffff190168056bc75e2d63100000826b1425982cf597cd205cef7380926127c7565b68056bc75e2d63100000826001926127c7565b612a319060000361275d565b61212e90612739565b5068070c1cc73b00c80000811315612771565b6000811315612b205780670c7d713b49da00001280612b0f575b15612b0657670de0b6b3a7640000906ec097ce7bc90715b34b9f100000000090612aaa908302828101906ec097ce7bc90715b34b9f0fffffffff19018302612753565b9080828002059181838202058284820205838582020591848684020593858786020595808888020597880205600f900596600d900595600b900594600990059360079005926005900591600390050101010101010160011b0590565b61212e90612b55565b50670f43fc2c04ee00008112612a67565b60405162461bcd60e51b815260206004820152600d60248201526c6f7574206f6620626f756e647360981b6044820152606490fd5b670de0b6b3a76400008112612e785760649060007e1600ef3172e58d2e933ec884fde10064c63b5372d805e203c0000000000000821215612e4d575b73011798004d755d3c8bc8e03204cf44619e000000821215612e2c575b8202908202816e01855144814a7ff805980ff00840008281811215612e05575b5050506b02df0ab5a80a22c61ab5a70080821215612de5575b50693f1fce3da636ea5cf85080821215612dc5575b50690127fa27722cc06cc5e280821215612da5575b5068280e60114edb805d0380821215612d85575b50680ebc5fb4174612111080821215612d6e575b506808f00f760a4b2db55d80821215612d4e575b506806f5f177578893793780821215612d2e575b506806248f33704b28660380821215612d0f575b506805c548670b9510e7ac80821215612cf0575b50612caf68056bc75e2d6310000091828082019168056bc75e2d630fffff190102612753565b9080828002059181838202058284820205916003600560076009600b888a89020598808b8b02059a8b0205059805960594059205010101010160011b010590565b68056bc75e2d631000006756bc75e2d631000092020591019038612c89565b68056bc75e2d6310000067ad78ebc5ac62000092020591019038612c75565b68056bc75e2d6310000068015af1d78b58c4000092020591019038612c61565b68056bc75e2d631000006802b5e3af16b188000092020591019038612c4d565b68056bc75e2d631000008092020591019038612c39565b68056bc75e2d63100000680ad78ebc5ac620000092020591019038612c25565b68056bc75e2d631000006815af1d78b58c40000092020591019038612c11565b68056bc75e2d63100000682b5e3af16b1880000092020591019038612bfc565b68056bc75e2d631000006856bc75e2d63100000092020591019038612be7565b68056bc75e2d631000009192945068ad78ebc5ac6200000093500205910190388080612bce565b6b1425982cf597cd205cef7380909105906803782dace9d900000001612bae565b50770195e54c5dd42177f53a27172fa9ec63026282700000000090056806f05b59d3b2000000612b91565b612e84612e8991612739565b612b55565b60000390565b90808212612ea05761212e91612307565b60405162461bcd60e51b81526020600482015260086024820152676e6567617469766560c01b6044820152606490fd5b600160ff1b8114611b2f5760000390565b60408051630b2339af60e21b8152906001600160a01b03906000906060846004818887165afa801561313357829483916130ff575b508390825195633ba0b9a960e01b8752866004816020988994165afa9586156130f25784966130c3575b501690805193636951ac2760e11b85528085600481865afa9485156130b957849561308a575b50815163516399df60e01b8152928184600481845afa938415613080578594613061575b5083612fdc575b505050600014612fc55750905b818110612fb057505061212e9061313e565b612fc090610a9861212e9461313e565b6120ab565b5080821115612fd75750805b90612f9e565b612fd1565b82516360e0a9e160e01b81529293508190839060049082905afa9283156130585750839261301a575b50506001600160801b03164314388080612f91565b90809250813d8311613051575b6130318183611a22565b8101031261026057516001600160801b0381168103610260573880613005565b503d613027565b513d85823e3d90fd5b613079919450823d8411610556576105488183611a22565b9238612f8a565b83513d87823e3d90fd5b9080955081813d83116130b2575b6130a28183611a22565b810103126111ac57519338612f66565b503d613098565b82513d86823e3d90fd5b9095508481813d83116130eb575b6130db8183611a22565b810103126111ac57519438612f40565b503d6130d1565b50505051903d90823e3d90fd5b849550613123915060603d811161312c575b61311b8183611a22565b8101906133ba565b91959050612f16565b503d613111565b5051903d90823e3d90fd5b604080516370c264df60e11b815260049290916020916001600160a01b031682848681845afa9384156133635760009461338b575b5042841161318c575050505050670de0b6b3a764000090565b8151906131988261199c565b600282528382019183368437603c6131af826133fb565b52835192839163883bdbfd60e01b83526024830190878a8501525180915260448301919060005b8882821061336e575050505091818060009403915afa928315613363576000936132ad575b5050815160011015613298578101516001600160d81b0391908216908290613222906133fb565b51169003918183116132835790603c8161324161324a959442906120e7565b931604166125a4565b90600082126118dc57811561326e57506ec097ce7bc90715b34b9f10000000000490565b601290634e487b7160e01b6000525260246000fd5b601184634e487b7160e01b6000525260246000fd5b603284634e487b7160e01b6000525260246000fd5b9091923d8082853e6132bf8185611a22565b83019082848303126106c857835167ffffffffffffffff9485821161090257019082601f830112156106c8578151948511613350578460051b9186519561330886850188611a22565b86528480870193820101938411610260578401915b8383106133315750505050509038806131fb565b82516001600160d81b038116810361090257815291840191840161331d565b634e487b7160e01b815260418852602490fd5b82513d6000823e3d90fd5b835163ffffffff16855287955093840193909201916001016131d6565b90938382813d83116133b3575b6133a28183611a22565b810103126106c85750519238613173565b503d613398565b908160609103126118dc5780516001600160a01b03929083811681036118dc5792602083015181811681036118dc5760409093015190811681036118dc5790565b8051156134085760200190565b634e487b7160e01b600052603260045260246000fd5b91939261342f909591958684612131565b936040840151156134fe575b60005b60608501518110156134ec576134548186613624565b61346b613463828a8a89612392565b509190612ed0565b848111801591906134d3576080890151826134a9575b505061349c575085525b6000198114611b2f5760010161343e565b9750945050509250509190565b909150670de0b6b3a7640000908103818111611b2f576134c99087612098565b0411153880613481565b5050506000198101908111611b2f57602086015261348b565b604051637d388ed960e11b8152600490fd5b602084016135338151855161353961351f60608b015160408c015190612307565b670de0b6b3a76400009485918c5190612354565b0561275d565b90838201848112926000938482129080158216911516176136105761357e8c613578602061356f6135859796610c758c97612337565b92015185612588565b90612354565b0590612307565b6103e7908181029181830414901517156124e6576103e89004905080821015613607575080925b528551908282119081156135f9575b506135c757505061343b565b6106c46080870151604051938493632cc06bc160e21b8552600485016040919493926060820195825260208201520152565b9050608087015111386135bb565b905080926135ac565b634e487b7160e01b84526011600452602484fd5b901580613667575b61366057602081519101518082111561365157604051637d388ed960e11b8152600490fd5b61365a91611b22565b60011c90565b6040015190565b506040810151151561362c565b601c600060649281946020966040519860605260405260601b602c526323b872dd60601b600c525af13d156001600051141716156136b6576000606052604052565b637939f4246000526004601cfd5b601092602092601452603452604460009384809363a9059cbb60601b82525af13d1560018351141716156136f757603452565b6390b8ec1890526004601cfd5b600091908291613749604051809261373560208301956309710a9d60e41b8752604060248501526064840190611876565b90604483015203601f198101835282611a22565b51906a636f6e736f6c652e6c6f675afa50565b60095460408051630b2339af60e21b815294939290916001600160a01b0390811691906004906060888381875afa92831561390a5760009384998591613ad7575b508260009a1699875196630bc4ed8360e21b8852878c818860209b8c935afa908115613acd578391613ab0575b501561393d575050865163a9059cbb60e01b81529083166001600160a01b0381168583019081526020810193909352999091869183918290600090829060400103925af180156139325798859160009a613915575b5060248751809b819363bcb7ea5d60e01b8352868916888401525af1801561390a5784959697986000916138d5575b5060a49291600091945b8189519a8b97889663769f8e5d60e01b885230908801526024870152166044850152826064850152826084850152165af19182156138cb575060009161389f575b50905090565b82813d83116138c4575b6138b38183611a22565b810103126106c85750518038613899565b503d6138a9565b513d6000823e3d90fd5b9192939482813d8311613903575b6138ed8183611a22565b810103126106c8575051849392919060a461384e565b503d6138e3565b85513d6000823e3d90fd5b61392b90833d8511610556576105488183611a22565b503861381f565b86513d6000823e3d90fd5b885163a9059cbb60e01b81526001600160a01b0390911681870190815260208101859052939b949691959491939092508791839182908890829060400103925af18015613aa6579987916139c39b613a89575b5085600954168251918683526139a583611a06565b868451809e819582946329910b1160e01b84528c8a168b850161210a565b03925af18015613a7f5785969798998491613a51575b5093600091613a4c8596613a2360a497988c516139f5816119ce565b601b81527f6e657453794f757420636c6f736520706f736974696f6e3a20257300000000008c820152613704565b8a51613a2e816119ce565b600d81526c636c6f7365206665653a20257360981b8a820152613704565b613858565b60a49450613a4c95915091613a746000938a3d8c11610ded57610ddf8183611a22565b9296509450916139d9565b86513d85823e3d90fd5b613a9f90883d8a11610556576105488183611a22565b5038613990565b87513d86823e3d90fd5b613ac79150893d8b11610556576105488183611a22565b386137ca565b8a513d85823e3d90fd5b91945050613af491985060603d811161312c5761311b8183611a22565b98919390983861379d565b600b54613b0b91612098565b90613b19600a5480936120ab565b9062015180918383028381048503611b2f5761012c9280840293840403611b2f57613b4d92613b47916120e7565b90612098565b91818102918183041490151715611b2f5761212e916120ab565b613b7b613b72611c18565b600c5490611b22565b60025460018101809111611b2f5760018201809211611b2f5761212e92613bca565b613ba8613b72611c18565b60025460018101809111611b2f5760018201809211611b2f5761212e92613bf4565b9190613bd7828285613bf4565b9282156120b55709613be65790565b60018101809111611b2f5790565b90918282029160001984820993838086109503948086039514613c7c5784831115613c6a5782910981600003821680920460028082600302188083028203028083028203028083028203028083028203028083028203028092029003029360018380600003040190848311900302920304170290565b60405163227bc15360e01b8152600490fd5b50509061212e92506120ab565b613c94613b72611c18565b60018101809111611b2f576002549060018201809211611b2f5761212e92613bca565b613cc2613b72611c18565b60018101809111611b2f576002549060018201809211611b2f5761212e92613bf4565b600554604051630bc4ed8360e21b81526001600160a01b0392916020908290600490829087165afa908115611c9d57600091613d4c575b5015613d395716600052600060205261212e604060002054613cb7565b61212e9150613d4790613d6a565b613cb7565b613d64915060203d8111610556576105488183611a22565b38613d1c565b600554604051630bc4ed8360e21b81526001600160a01b0392916020908290600490829087165afa908115611c9d57600091613de4575b5015613db95716600052600060205260406000205490565b16600052600060205261212e604060002054613dd3611c18565b613dde613b72611c18565b91613bf4565b613dfc915060203d8111610556576105488183611a22565b38613da156fea2646970667358221220f1b2a41157db6f6ac0c790059f456378541de0de03c41ce0bbc81f0b2292a72964736f6c63430008140033","linkReferences":{}},"methodIdentifiers":{"LTV()":"62965d8e","SY()":"afd27bf5","YT()":"781c18db","allowance(address,address)":"dd62ed3e","approve(address,uint256)":"095ea7b3","asset()":"38d52e0f","balanceOf(address)":"70a08231","borrow(uint256,uint256,address)":"d6bda0c0","closeLong(address)":"74fe5c72","collateral()":"d8dfeb45","convertToAssets(uint256)":"07a2d13a","convertToShares(uint256)":"c6e6f592","decimals()":"313ce567","deposit(uint256,address)":"6e553f65","flashFee(address,uint256)":"d9d98ce4","flashLoan(address,address,uint256,bytes)":"5cffe9de","getCollateralRequired(uint256,uint256)":"8d1bc4ec","getMaxBorrow(uint256,uint256)":"4d378d6b","getRate()":"679aefce","getTermFee(uint256,uint256)":"5a7872eb","goLong(uint256,uint256,uint256)":"764f4cd2","liquidate(address)":"2f865568","market()":"80f55605","maxDeposit(address)":"402d267d","maxFlashLoan(address)":"613255ab","maxLoanValue(uint256)":"81cdde9b","maxMint(address)":"c63d75b6","maxRedeem(address)":"d905777e","maxWithdraw(address)":"ce96cb77","mint(uint256,address)":"94bf804d","name()":"06fdde03","oracle()":"7dc0d1d0","previewDeposit(uint256)":"ef8b30f7","previewMint(uint256)":"b3d7f6b9","previewRedeem(uint256)":"4cdad506","previewWithdraw(uint256)":"0a28a477","redeem(uint256,address,address)":"ba087652","repos(address)":"8441cfee","repurchase()":"d58c6172","symbol()":"95d89b41","totalAssets()":"01e1d114","totalSupply()":"18160ddd","transfer(address,uint256)":"a9059cbb","transferFrom(address,address,uint256)":"23b872dd","withdraw(uint256,address,address)":"b460af94"},"id":62}